0230875530999992024010100004-34450-058583FM-12+000399999V0201101N00511030001CN010000199+02461+01621101361ADDAA106000091GA1061+030001031GE19AGL   +99999+99999GF106991061999030001999999KA1120M+02811KA2120N+02191MA1999999101281MD1410001+9999REMSYN08887553 12960 61110 10246 20162 30128 40136 54000 60001 86070 333 10281 20219 56060 86360=
0230875530999992024010100004-34450-058583FM-12+000399999V0201101N00511030001CN010000199+02461+01621101361ADDAA106000091GA1061+030001031GE19AGL   +99999+99999GF106991061999030001999999KA1120M+02811KA2120N+02191MA1999999101281MD1410001+9999REMSYN08887553 12960 61110 10246 20162 30128 40136 54000 60001 86070 333 10281 20219 56060 86360=
0197875530999992024010101004-34450-058583FM-12+000399999V0200801N00511030001CN010000199+02421+01611101441ADDGA1051+030001031GA2041+060001021GE19AGL   +99999+99999GF105991051999030001999999MA1999999101361MD1310111+9999REMSYN07687553 42960 50810 10242 20161 30136 40144 53011 85076 333 56066 85360 84270=
0197875530999992024010101004-34450-058583FM-12+000399999V0200801N00511030001CN010000199+02421+01611101441ADDGA1051+030001031GA2041+060001021GE19AGL   +99999+99999GF105991051999030001999999MA1999999101361MD1310111+9999REMSYN07687553 42960 50810 10242 20161 30136 40144 53011 85076 333 56066 85360 84270=
0175875530999992024010102004-34450-058583FM-12+000399999V0200201N00211030001CN010000199+02261+01591101501ADDGA1051+030001031GE19AGL   +99999+99999GF105991051999030001999999MA1999999101411MD1210171+9999REMSYN07087553 42960 50204 10226 20159 30141 40150 52017 85070 333 56060 85360=
0175875530999992024010102004-34450-058583FM-12+000399999V0200201N00211030001CN010000199+02261+01591101501ADDGA1051+030001031GE19AGL   +99999+99999GF105991051999030001999999MA1999999101411MD1210171+9999REMSYN07087553 42960 50204 10226 20159 30141 40150 52017 85070 333 56060 85360=
0175875530999992024010104004-34450-058583FM-12+000399999V0200501N00211030001CN010000199+02141+01371101431ADDGA1051+030001031GE19AGL   +99999+99999GF105991051999030001999999MA1999999101341MD1810011+9999REMSYN07087553 42960 50504 10214 20137 30134 40143 58001 85070 333 56060 85360=
0175875530999992024010104004-34450-058583FM-12+000399999V0200501N00211030001CN010000199+02141+01371101431ADDGA1051+030001031GE19AGL   +99999+99999GF105991051999030001999999MA1999999101341MD1810011+9999REMSYN07087553 42960 50504 10214 20137 30134 40143 58001 85070 333 56060 85360=
0197875530999992024010105004-34450-058583FM-12+000399999V0200501N00261030001CN010000199+02141+01371101361ADDGA1051+030001031GA2061+060001021GE19AGL   +99999+99999GF107991051999030001999999MA1999999101281MD1810131+9999REMSYN07687553 42960 70505 10214 20137 30128 40136 58013 85076 333 56066 85360 86270=
0197875530999992024010105004-34450-058583FM-12+000399999V0200501N00261030001CN010000199+02141+01371101361ADDGA1051+030001031GA2061+060001021GE19AGL   +99999+99999GF107991051999030001999999MA1999999101281MD1810131+9999REMSYN07687553 42960 70505 10214 20137 30128 40136 58013 85076 333 56066 85360 86270=
0192875530999992024010106004-34450-058583FM-12+000399999V0200601N00411030001CN010000199+02181+01531101271ADDAA106000091GA1071+030001031GE19AGL   +99999+99999GF107991071999030001999999MA1999999101181MD1810251+9999REMSYN07687553 12960 70608 10218 20153 30118 40127 58025 60001 87070 333 56060 87360=
0192875530999992024010106004-34450-058583FM-12+000399999V0200601N00411030001CN010000199+02181+01531101271ADDAA106000091GA1071+030001031GE19AGL   +99999+99999GF107991071999030001999999MA1999999101181MD1810251+9999REMSYN07687553 12960 70608 10218 20153 30118 40127 58025 60001 87070 333 56060 87360=
0175875530999992024010107004-34450-058583FM-12+000399999V0200501N00361030001CN010000199+02061+01561101321ADDGA1071+030001031GE19AGL   +99999+99999GF107991071999030001999999MA1999999101221MD1510121+9999REMSYN07087553 42960 70507 10206 20156 30122 40132 55012 87070 333 56060 87360=
0175875530999992024010107004-34450-058583FM-12+000399999V0200501N00361030001CN010000199+02061+01561101321ADDGA1071+030001031GE19AGL   +99999+99999GF107991071999030001999999MA1999999101221MD1510121+9999REMSYN07087553 42960 70507 10206 20156 30122 40132 55012 87070 333 56060 87360=
0175875530999992024010108004-34450-058583FM-12+000399999V0200501N00361030001CN010000199+02061+01561101331ADDGA1081+030001031GE19AGL   +99999+99999GF108991081999030001999999MA1999999101241MD1510041+9999REMSYN07087553 42960 80507 10206 20156 30124 40133 55004 8807/ 333 56069 88360=
0175875530999992024010108004-34450-058583FM-12+000399999V0200501N00361030001CN010000199+02061+01561101331ADDGA1081+030001031GE19AGL   +99999+99999GF108991081999030001999999MA1999999101241MD1510041+9999REMSYN07087553 42960 80507 10206 20156 30124 40133 55004 8807/ 333 56069 88360=
0197875530999992024010110004-34450-058583FM-12+000399999V0200601N002610600019N010000199+02041+01581101421ADDGA1041+030001031GA2051+060001021GE19AGL   +99999+99999GF106991041999030001999999MA1999999101331MD1310111+9999REMSYN07687553 42960 60605 10204 20158 30133 40142 53011 84076 333 56076 84360 85270=
0197875530999992024010110004-34450-058583FM-12+000399999V0200601N002610600019N010000199+02041+01581101421ADDGA1041+030001031GA2051+060001021GE19AGL   +99999+99999GF106991041999030001999999MA1999999101331MD1310111+9999REMSYN07687553 42960 60605 10204 20158 30133 40142 53011 84076 333 56076 84360 85270=
0175875530999992024010111004-34450-058583FM-12+000399999V0200301N004112200019N010000199+02181+01521101451ADDGA1041+030001031GE19AGL   +99999+99999GF104991041999030001999999MA1999999101361MD1210121+9999REMSYN07087553 42960 40308 10218 20152 30136 40145 52012 84070 333 56060 84360=
0175875530999992024010111004-34450-058583FM-12+000399999V0200301N004112200019N010000199+02181+01521101451ADDGA1041+030001031GE19AGL   +99999+99999GF104991041999030001999999MA1999999101361MD1210121+9999REMSYN07087553 42960 40308 10218 20152 30136 40145 52012 84070 333 56060 84360=
0213875530999992024010112004-34450-058583FM-12+000399999V0200401N00461030001CN010000199+02311+01651101421ADDGA1061+030001031GE19AGL   +99999+99999GF106991061999030001999999KA1240M+02471KA2240N+01961MA1999999101331MD1990051+9999REMSYN08287553 32960 60409 10231 20165 30133 40142 50005 86070 333 10247 20196 56060 86360=
0213875530999992024010112004-34450-058583FM-12+000399999V0200401N00461030001CN010000199+02311+01651101421ADDGA1061+030001031GE19AGL   +99999+99999GF106991061999030001999999KA1240M+02471KA2240N+01961MA1999999101331MD1990051+9999REMSYN08287553 32960 60409 10231 20165 30133 40142 50005 86070 333 10247 20196 56060 86360=
0175875530999992024010113004-34450-058583FM-12+000399999V0200101N00211030001CN010000199+02371+01681101441ADDGA1061+030001031GE19AGL   +99999+99999GF106991061999030001999999MA1999999101361MD1310031+9999REMSYN07087553 42960 60104 10237 20168 30136 40144 53003 86070 333 56060 86360=
0175875530999992024010113004-34450-058583FM-12+000399999V0200101N00211030001CN010000199+02371+01681101441ADDGA1061+030001031GE19AGL   +99999+99999GF106991061999030001999999MA1999999101361MD1310031+9999REMSYN07087553 42960 60104 10237 20168 30136 40144 53003 86070 333 56060 86360=
0175875530999992024010114004-34450-058583FM-12+000399999V0200701N00211030001CN010000199+02551+01631101441ADDGA1051+030001031GE19AGL   +99999+99999GF105991051999030001999999MA1999999101361MD1410001+9999REMSYN07087553 42960 50704 10255 20163 30136 40144 54000 85070 333 56060 85360=
0175875530999992024010114004-34450-058583FM-12+000399999V0200701N00211030001CN010000199+02551+01631101441ADDGA1051+030001031GE19AGL   +99999+99999GF105991051999030001999999MA1999999101361MD1410001+9999REMSYN07087553 42960 50704 10255 20163 30136 40144 54000 85070 333 56060 85360=
0197875530999992024010116004-34450-058583FM-12+000399999V0201001N00361030001CN010000199+02761+01591101321ADDGA1021+024001061GA2051+030001031GE19AGL   +99999+99999GF105991021999024001999999MA1999999101221MD1810131+9999REMSYN07687553 42860 51007 10276 20159 30122 40132 58013 83870 333 56760 82658 85360=
0197875530999992024010116004-34450-058583FM-12+000399999V0201001N00361030001CN010000199+02761+01591101321ADDGA1021+024001061GA2051+030001031GE19AGL   +99999+99999GF105991021999024001999999MA1999999101221MD1810131+9999REMSYN07687553 42860 51007 10276 20159 30122 40132 58013 83870 333 56760 82658 85360=
0175875530999992024010117004-34450-058583FM-12+000399999V0200901N004112200019N010000199+02861+01441101231ADDGA1021+030001031GE19AGL   +99999+99999GF102991021999030001999999MA1999999101141MD1710211+9999REMSYN07087553 42960 20908 10286 20144 30114 40123 57021 82070 333 56060 82360=
0175875530999992024010117004-34450-058583FM-12+000399999V0200901N004112200019N010000199+02861+01441101231ADDGA1021+030001031GE19AGL   +99999+99999GF102991021999030001999999MA1999999101141MD1710211+9999REMSYN07087553 42960 20908 10286 20144 30114 40123 57021 82070 333 56060 82360=
0192875530999992024010118004-34450-058583FM-12+000399999V0200701N005112200019N010000199+02771+01501101181ADDAA106000091GA1021+030001031GE19AGL   +99999+99999GF102991021999030001999999MA1999999101091MD1710191+9999REMSYN07687553 12960 20710 10277 20150 30109 40118 57019 60001 82070 333 56060 82360=
0192875530999992024010118004-34450-058583FM-12+000399999V0200701N005112200019N010000199+02771+01501101181ADDAA106000091GA1021+030001031GE19AGL   +99999+99999GF102991021999030001999999MA1999999101091MD1710191+9999REMSYN07687553 12960 20710 10277 20150 30109 40118 57019 60001 82070 333 56060 82360=
0175875530999992024010119004-34450-058583FM-12+000399999V0200801N004612200019N010000199+02781+01651101151ADDGA1021+030001031GE19AGL   +99999+99999GF102991021999030001999999MA1999999101061MD1710161+9999REMSYN07087553 42960 20809 10278 20165 30106 40115 57016 82070 333 56060 82360=
0175875530999992024010119004-34450-058583FM-12+000399999V0200801N004612200019N010000199+02781+01651101151ADDGA1021+030001031GE19AGL   +99999+99999GF102991021999030001999999MA1999999101061MD1710161+9999REMSYN07087553 42960 20809 10278 20165 30106 40115 57016 82070 333 56060 82360=
0175875530999992024010120004-34450-058583FM-12+000399999V0200801N005112200019N010000199+02761+01591101081ADDGA1011+030001031GE19AGL   +99999+99999GF101991011999030001999999MA1999999100981MD1710161+9999REMSYN07087553 42960 10810 10276 20159 30098 40108 57016 81070 333 56060 81360=
0175875530999992024010120004-34450-058583FM-12+000399999V0200801N005112200019N010000199+02761+01591101081ADDGA1011+030001031GE19AGL   +99999+99999GF101991011999030001999999MA1999999100981MD1710161+9999REMSYN07087553 42960 10810 10276 20159 30098 40108 57016 81070 333 56060 81360=
0175875530999992024010122004-34450-058583FM-12+000399999V0201101N00621030001CN010000199+02551+01711101061ADDGA1061+030001031GE19AGL   +99999+99999GF106991061999030001999999MA1999999100971MD1510091+9999REMSYN07087553 42960 61112 10255 20171 30097 40106 55009 86070 333 56060 86360=
0175875530999992024010122004-34450-058583FM-12+000399999V0201101N00621030001CN010000199+02551+01711101061ADDGA1061+030001031GE19AGL   +99999+99999GF106991061999030001999999MA1999999100971MD1510091+9999REMSYN07087553 42960 61112 10255 20171 30097 40106 55009 86070 333 56060 86360=
0175875530999992024010123004-34450-058583FM-12+000399999V0201101N00621030001CN010000199+02481+01741101111ADDGA1071+030001031GE19AGL   +99999+99999GF107991071999030001999999MA1999999101021MD1310041+9999REMSYN07087553 42960 71112 10248 20174 30102 40111 53004 87070 333 56060 87360=
0175875530999992024010123004-34450-058583FM-12+000399999V0201101N00621030001CN010000199+02481+01741101111ADDGA1071+030001031GE19AGL   +99999+99999GF107991071999030001999999MA1999999101021MD1310041+9999REMSYN07087553 42960 71112 10248 20174 30102 40111 53004 87070 333 56060 87360=
0230875530999992024010200004-34450-058583FM-12+000399999V0201401N00361030001CN010000199+02421+01791101261ADDAA106000091GA1071+030001031GE19AGL   +99999+99999GF107991071999030001999999KA1120M+02901KA2120N+02281MA1999999101171MD1210231+9999REMSYN08887553 12960 71407 10242 20179 30117 40126 52023 60001 87070 333 10290 20228 56060 87360=
0230875530999992024010200004-34450-058583FM-12+000399999V0201401N00361030001CN010000199+02421+01791101261ADDAA106000091GA1071+030001031GE19AGL   +99999+99999GF107991071999030001999999KA1120M+02901KA2120N+02281MA1999999101171MD1210231+9999REMSYN08887553 12960 71407 10242 20179 30117 40126 52023 60001 87070 333 10290 20228 56060 87360=
0175875530999992024010201004-34450-058583FM-12+000399999V0201201N00461030001CN010000199+02351+01751101311ADDGA1071+030001031GE19AGL   +99999+99999GF107991071999030001999999MA1999999101221MD1210251+9999REMSYN07087553 42960 71209 10235 20175 30122 40131 52025 87070 333 56060 87360=
0175875530999992024010201004-34450-058583FM-12+000399999V0201201N00461030001CN010000199+02351+01751101311ADDGA1071+030001031GE19AGL   +99999+99999GF107991071999030001999999MA1999999101221MD1210251+9999REMSYN07087553 42960 71209 10235 20175 30122 40131 52025 87070 333 56060 87360=
0175875530999992024010202004-34450-058583FM-12+000399999V0201301N00621030001CN010000199+02201+01801101311ADDGA1071+030001031GE19AGL   +99999+99999GF107991071999030001999999MA1999999101221MD1210201+9999REMSYN07087553 42960 71312 10220 20180 30122 40131 52020 87070 333 56060 87360=
0175875530999992024010202004-34450-058583FM-12+000399999V0201301N00621030001CN010000199+02201+01801101311ADDGA1071+030001031GE19AGL   +99999+99999GF107991071999030001999999MA1999999101221MD1210201+9999REMSYN07087553 42960 71312 10220 20180 30122 40131 52020 87070 333 56060 87360=
0175875530999992024010204004-34450-058583FM-12+000399999V0201201N00311030001CN010000199+02301+01851101281ADDGA1061+030001031GE19AGL   +99999+99999GF106991061999030001999999MA1999999101201MD1710031+9999REMSYN07087553 42960 61206 10230 20185 30120 40128 57003 86070 333 56060 86360=
0175875530999992024010204004-34450-058583FM-12+000399999V0201201N00311030001CN010000199+02301+01851101281ADDGA1061+030001031GE19AGL   +99999+99999GF106991061999030001999999MA1999999101201MD1710031+9999REMSYN07087553 42960 61206 10230 20185 30120 40128 57003 86070 333 56060 86360=
0175875530999992024010205004-34450-058583FM-12+000399999V0201001N00261030001CN010000199+02221+01881101251ADDGA1051+030001031GE19AGL   +99999+99999GF105991051999030001999999MA1999999101161MD1710071+9999REMSYN07087553 42960 51005 10222 20188 30116 40125 57007 85070 333 56060 85360=
0175875530999992024010205004-34450-058583FM-12+000399999V0201001N00261030001CN010000199+02221+01881101251ADDGA1051+030001031GE19AGL   +99999+99999GF105991051999030001999999MA1999999101161MD1710071+9999REMSYN07087553 42960 51005 10222 20188 30116 40125 57007 85070 333 56060 85360=
0192875530999992024010206004-34450-058583FM-12+000399999V0200701N00151030001CN010000199+02071+01841101211ADDAA106000091GA1061+030001031GE19AGL   +99999+99999GF106991061999030001999999MA1999999101121MD1710081+9999REMSYN07687553 12960 60703 10207 20184 30112 40121 57008 60001 86070 333 56060 86360=
0192875530999992024010206004-34450-058583FM-12+000399999V0200701N00151030001CN010000199+02071+01841101211ADDAA106000091GA1061+030001031GE19AGL   +99999+99999GF106991061999030001999999MA1999999101121MD1710081+9999REMSYN07687553 12960 60703 10207 20184 30112 40121 57008 60001 86070 333 56060 86360=
0129875530999992024010207004-34450-058583FM-12+000399999V0200601N002619999999N010000199+02071+99999999999ADDGE19AGL   +99999+99999GF106991999999999999999999REMSYN06987553 42960 60605 10207 2170 30114 40123 57005 86070 333 56060 86360=
0129875530999992024010207004-34450-058583FM-12+000399999V0200601N002619999999N010000199+02071+99999999999ADDGE19AGL   +99999+99999GF106991999999999999999999REMSYN06987553 42960 60605 10207 2170 30114 40123 57005 86070 333 56060 86360=
0175875530999992024010208004-34450-058583FM-12+000399999V0200801N00311030001CN010000199+02081+01671101271ADDGA1061+030001031GE19AGL   +99999+99999GF106991061999030001999999MA1999999101181MD1310031+9999REMSYN07087553 42960 60806 10208 20167 30118 40127 53003 86070 333 56060 86360=
0175875530999992024010208004-34450-058583FM-12+000399999V0200801N00311030001CN010000199+02081+01671101271ADDGA1061+030001031GE19AGL   +99999+99999GF106991061999030001999999MA1999999101181MD1310031+9999REMSYN07087553 42960 60806 10208 20167 30118 40127 53003 86070 333 56060 86360=
0175875530999992024010210004-34450-058583FM-12+000399999V0200801N00361030001CN010000199+02161+01831101361ADDGA1061+030001031GE19AGL   +99999+99999GF106991061999030001999999MA1999999101281MD1210131+9999REMSYN07087553 42960 60807 10216 20183 30128 40136 52013 86070 333 56060 86360=
0175875530999992024010210004-34450-058583FM-12+000399999V0200801N00361030001CN010000199+02161+01831101361ADDGA1061+030001031GE19AGL   +99999+99999GF106991061999030001999999MA1999999101281MD1210131+9999REMSYN07087553 42960 60807 10216 20183 30128 40136 52013 86070 333 56060 86360=
0175875530999992024010211004-34450-058583FM-12+000399999V0200601N003612200019N010000199+02301+01881101321ADDGA1041+030001031GE19AGL   +99999+99999GF104991041999030001999999MA1999999101221MD1990041+9999REMSYN07087553 42960 40607 10230 20188 30122 40132 50004 84050 333 56060 84360=
0175875530999992024010211004-34450-058583FM-12+000399999V0200601N003612200019N010000199+02301+01881101321ADDGA1041+030001031GE19AGL   +99999+99999GF104991041999030001999999MA1999999101221MD1990041+9999REMSYN07087553 42960 40607 10230 20188 30122 40132 50004 84050 333 56060 84360=
0229875530999992024010212004-34450-058583FM-12+000399999V0200801N002612200019N010000199+02421+01941101341ADDGA1021+007501061GA2999+999999031GE19AGL   +99999+99999GF104991021999007501999999KA1240M+02451KA2240N+02051MA1999999101251MD1310031+9999REMSYN08287553 32560 40805 10242 20194 30125 40134 53003 82450 333 10245 20205 56220 82625=
0229875530999992024010212004-34450-058583FM-12+000399999V0200801N002612200019N010000199+02421+01941101341ADDGA1021+007501061GA2999+999999031GE19AGL   +99999+99999GF104991021999007501999999KA1240M+02451KA2240N+02051MA1999999101251MD1310031+9999REMSYN08287553 32560 40805 10242 20194 30125 40134 53003 82450 333 10245 20205 56220 82625=
0191875530999992024010213004-34450-058583FM-12+000399999V0200901N003612200019N010000199+02491+01971101351ADDGA1031+006601061GA2999+999999031GE19AGL   +99999+99999GF104991031999006601999999MA1999999101261MD1510011+9999REMSYN07087553 42560 40907 10249 20197 30126 40135 55001 83450 333 56220 83622=
0191875530999992024010213004-34450-058583FM-12+000399999V0200901N003612200019N010000199+02491+01971101351ADDGA1031+006601061GA2999+999999031GE19AGL   +99999+99999GF104991031999006601999999MA1999999101261MD1510011+9999REMSYN07087553 42560 40907 10249 20197 30126 40135 55001 83450 333 56220 83622=
0191875530999992024010214004-34450-058583FM-12+000399999V0201201N004112200019N010000199+02541+01861101351ADDGA1031+006901061GA2999+999999031GE19AGL   +99999+99999GF104991031999006901999999MA1999999101261MD1110041+9999REMSYN07087553 42560 41208 10254 20186 30126 40135 51004 83450 333 56220 83623=
0191875530999992024010214004-34450-058583FM-12+000399999V0201201N004112200019N010000199+02541+01861101351ADDGA1031+006901061GA2999+999999031GE19AGL   +99999+99999GF104991031999006901999999MA1999999101261MD1110041+9999REMSYN07087553 42560 41208 10254 20186 30126 40135 51004 83450 333 56220 83623=
0191875530999992024010216004-34450-058583FM-12+000399999V0201201N005712200019N010000199+02591+01901101351ADDGA1031+009001061GA2999+999999021GE19AGL   +99999+99999GF104991031999009001999999MA1999999101261MD1410001+9999REMSYN07087553 42560 41211 10259 20190 30126 40135 54000 83505 333 56205 83630=
0191875530999992024010216004-34450-058583FM-12+000399999V0201201N005712200019N010000199+02591+01901101351ADDGA1031+009001061GA2999+999999021GE19AGL   +99999+99999GF104991031999009001999999MA1999999101261MD1410001+9999REMSYN07087553 42560 41211 10259 20190 30126 40135 54000 83505 333 56205 83630=
0207875530999992024010217004-34450-058583FM-12+000399999V0201101N006712200019N010000199+02651+01841101331ADDGA1021+009001061GA2999+999999031GA3999+999999001GE19AGL   +99999+99999GF102991021999009001999999MA1999999101241MD1810031+9999REMSYN07087553 42560 21113 10265 20184 30124 40133 58003 82574 333 56225 82630=
0207875530999992024010217004-34450-058583FM-12+000399999V0201101N006712200019N010000199+02651+01841101331ADDGA1021+009001061GA2999+999999031GA3999+999999001GE19AGL   +99999+99999GF102991021999009001999999MA1999999101241MD1810031+9999REMSYN07087553 42560 21113 10265 20184 30124 40133 58003 82574 333 56225 82630=
0214875530999992024010218004-34450-058583FM-12+000399999V0201101N007212200019N010000199+02711+01811101271ADDAA106000091GA1011+012001081GA2999+999999001GE19AGL   +99999+99999GF102991011999012001999999MA1999999101181MD1810081+9999REMSYN08287553 12660 21114 10271 20181 30118 40127 58008 60001 81204 333 56205 57815 81840=
0214875530999992024010218004-34450-058583FM-12+000399999V0201101N007212200019N010000199+02711+01811101271ADDAA106000091GA1011+012001081GA2999+999999001GE19AGL   +99999+99999GF102991011999012001999999MA1999999101181MD1810081+9999REMSYN08287553 12660 21114 10271 20181 30118 40127 58008 60001 81204 333 56205 57815 81840=
0191875530999992024010219004-34450-058583FM-12+000399999V0201101N006212200019N010000199+02711+01741101261ADDGA1021+030001031GA2999+999999001GE19AGL   +99999+99999GF102991021999030001999999MA1999999101171MD1710091+9999REMSYN07087553 42960 21112 10271 20174 30117 40126 57009 82054 333 56055 82360=
0191875530999992024010219004-34450-058583FM-12+000399999V0201101N006212200019N010000199+02711+01741101261ADDGA1021+030001031GA2999+999999001GE19AGL   +99999+99999GF102991021999030001999999MA1999999101171MD1710091+9999REMSYN07087553 42960 21112 10271 20174 30117 40126 57009 82054 333 56055 82360=
0207875530999992024010220004-34450-058583FM-12+000399999V0201201N005712200019N010000199+02641+01801101231ADDGA1011+006001071GA2999+999999031GA3999+999999001GE19AGL   +99999+99999GF102991011999006001999999MA1999999101141MD1710091+9999REMSYN07087553 42560 21211 10264 20180 30114 40123 57009 81754 333 56255 81720=
0207875530999992024010220004-34450-058583FM-12+000399999V0201201N005712200019N010000199+02641+01801101231ADDGA1011+006001071GA2999+999999031GA3999+999999001GE19AGL   +99999+99999GF102991011999006001999999MA1999999101141MD1710091+9999REMSYN07087553 42560 21211 10264 20180 30114 40123 57009 81754 333 56255 81720=
0191875530999992024010222004-34450-058583FM-12+000399999V0201201N008212200019N010000199+02451+01941101271ADDGA1021+006601071GA2999+999999031GE19AGL   +99999+99999GF103991021999006601999999MA1999999101181MD1310011+9999REMSYN07087553 42560 31216 10245 20194 30118 40127 53001 82770 333 56250 82722=
0191875530999992024010222004-34450-058583FM-12+000399999V0201201N008212200019N010000199+02451+01941101271ADDGA1021+006601071GA2999+999999031GE19AGL   +99999+99999GF103991021999006601999999MA1999999101181MD1310011+9999REMSYN07087553 42560 31216 10245 20194 30118 40127 53001 82770 333 56250 82722=
0191875530999992024010223004-34450-058583FM-12+000399999V0201201N008212200019N010000199+02371+01971101281ADDGA1011+006001071GA2999+999999031GE19AGL   +99999+99999GF101991011999006001999999MA1999999101201MD1310051+9999REMSYN07087553 42560 11216 10237 20197 30120 40128 53005 81770 333 56250 81720=
0191875530999992024010223004-34450-058583FM-12+000399999V0201201N008212200019N010000199+02371+01971101281ADDGA1011+006001071GA2999+999999031GE19AGL   +99999+99999GF101991011999006001999999MA1999999101201MD1310051+9999REMSYN07087553 42560 11216 10237 20197 30120 40128 53005 81770 333 56250 81720=
0246875530999992024010300004-34450-058583FM-12+000399999V0201201N00671006001CN010000199+02371+02001101321ADDAA106000091GA1051+006001081GA2999+999999031GE19AGL   +99999+99999GF105991051999006001999999KA1120M+02731KA2120N+02361MA1999999101221MD1210081+9999REMSYN08887553 12560 51213 10237 20200 30122 40132 52008 60001 85170 333 10273 20236 56360 85820=
0246875530999992024010300004-34450-058583FM-12+000399999V0201201N00671006001CN010000199+02371+02001101321ADDAA106000091GA1051+006001081GA2999+999999031GE19AGL   +99999+99999GF105991051999006001999999KA1120M+02731KA2120N+02361MA1999999101221MD1210081+9999REMSYN08887553 12560 51213 10237 20200 30122 40132 52008 60001 85170 333 10273 20236 56360 85820=
0191875530999992024010301004-34450-058583FM-12+000399999V0201001N006712200019N010000199+02411+01851101351ADDGA1031+005101061GA2999+999999031GE19AGL   +99999+99999GF103991031999005101999999MA1999999101261MD1210081+9999REMSYN07087553 42460 31013 10241 20185 30126 40135 52008 83570 333 56360 83617=
0191875530999992024010301004-34450-058583FM-12+000399999V0201001N006712200019N010000199+02411+01851101351ADDGA1031+005101061GA2999+999999031GE19AGL   +99999+99999GF103991031999005101999999MA1999999101261MD1210081+9999REMSYN07087553 42460 31013 10241 20185 30126 40135 52008 83570 333 56360 83617=
0175875530999992024010302004-34450-058583FM-12+000399999V0201001N006712200019N010000199+02341+01861101381ADDGA1021+015001061GE19AGL   +99999+99999GF102991021999015001999999MA1999999101291MD1210091+9999REMSYN07087553 42760 21013 10234 20186 30129 40138 52009 82500 333 56300 82650=
0175875530999992024010302004-34450-058583FM-12+000399999V0201001N006712200019N010000199+02341+01861101381ADDGA1021+015001061GE19AGL   +99999+99999GF102991021999015001999999MA1999999101291MD1210091+9999REMSYN07087553 42760 21013 10234 20186 30129 40138 52009 82500 333 56300 82650=
0175875530999992024010304004-34450-058583FM-12+000399999V0200901N006212200019N010000199+02271+01831101421ADDGA1011+006901061GE19AGL   +99999+99999GF101991011999006901999999MA1999999101331MD1210071+9999REMSYN07087553 42560 10912 10227 20183 30133 40142 52007 81500 333 56200 81623=
0175875530999992024010304004-34450-058583FM-12+000399999V0200901N006212200019N010000199+02271+01831101421ADDGA1011+006901061GE19AGL   +99999+99999GF101991011999006901999999MA1999999101331MD1210071+9999REMSYN07087553 42560 10912 10227 20183 30133 40142 52007 81500 333 56200 81623=
0175875530999992024010305004-34450-058583FM-12+000399999V0200901N006712200019N010000199+02211+01831101421ADDGA1041+006301061GE19AGL   +99999+99999GF104991041999006301999999MA1999999101331MD1110041+9999REMSYN07087553 42560 40913 10221 20183 30133 40142 51004 84500 333 56200 84621=
0175875530999992024010305004-34450-058583FM-12+000399999V0200901N006712200019N010000199+02211+01831101421ADDGA1041+006301061GE19AGL   +99999+99999GF104991041999006301999999MA1999999101331MD1110041+9999REMSYN07087553 42560 40913 10221 20183 30133 40142 51004 84500 333 56200 84621=
0192875530999992024010306004-34450-058583FM-12+000399999V0200901N005712200019N010000199+02221+01791101421ADDAA106000091GA1041+006001061GE19AGL   +99999+99999GF104991041999006001999999MA1999999101331MD1110011+9999REMSYN07687553 12560 40911 10222 20179 30133 40142 51001 60001 84500 333 56200 84620=
0192875530999992024010306004-34450-058583FM-12+000399999V0200901N005712200019N010000199+02221+01791101421ADDAA106000091GA1041+006001061GE19AGL   +99999+99999GF104991041999006001999999MA1999999101331MD1110011+9999REMSYN07687553 12560 40911 10222 20179 30133 40142 51001 60001 84500 333 56200 84620=
0175875530999992024010307004-34450-058583FM-12+000399999V0200901N005712200019N010000199+02221+01861101421ADDGA1041+006001061GE19AGL   +99999+99999GF104991041999006001999999MA1999999101331MD1990001+9999REMSYN07087553 42560 40911 10222 20186 30133 40142 50000 84500 333 56200 84620=
0175875530999992024010307004-34450-058583FM-12+000399999V0200901N005712200019N010000199+02221+01861101421ADDGA1041+006001061GE19AGL   +99999+99999GF104991041999006001999999MA1999999101331MD1990001+9999REMSYN07087553 42560 40911 10222 20186 30133 40142 50000 84500 333 56200 84620=
0175875530999992024010308004-34450-058583FM-12+000399999V0200901N006212200019N010000199+02221+01861101501ADDGA1041+006001061GE19AGL   +99999+99999GF104991041999006001999999MA1999999101411MD1310081+9999REMSYN07087553 42560 40912 10222 20186 30141 40150 53008 84500 333 56200 84620=
0175875530999992024010308004-34450-058583FM-12+000399999V0200901N006212200019N010000199+02221+01861101501ADDGA1041+006001061GE19AGL   +99999+99999GF104991041999006001999999MA1999999101411MD1310081+9999REMSYN07087553 42560 40912 10222 20186 30141 40150 53008 84500 333 56200 84620=
0175875530999992024010310004-34450-058583FM-12+000399999V0200801N00571004801CN010000199+02171+01861101571ADDGA1071+004801061GE19AGL   +99999+99999GF107991071999004801999999MA1999999101481MD1310151+9999REMSYN07087553 42460 70811 10217 20186 30148 40157 53015 87500 333 56200 87616=
0175875530999992024010310004-34450-058583FM-12+000399999V0200801N00571004801CN010000199+02171+01861101571ADDGA1071+004801061GE19AGL   +99999+99999GF107991071999004801999999MA1999999101481MD1310151+9999REMSYN07087553 42460 70811 10217 20186 30148 40157 53015 87500 333 56200 87616=
0219875530999992024010311004-34450-058583FM-12+000399999V0200901N005710060019N010000199+02211+01871101621ADDGA1041+004801061GA2061+006001081GA3061+012601081GE19AGL   +99999+99999GF107991041999004801999999MA1999999101531MD1310121+9999REMSYN08287553 42460 70911 10221 20187 30153 40162 53012 87500 333 56200 84616 86820 86842=
0219875530999992024010311004-34450-058583FM-12+000399999V0200901N005710060019N010000199+02211+01871101621ADDGA1041+004801061GA2061+006001081GA3061+012601081GE19AGL   +99999+99999GF107991041999004801999999MA1999999101531MD1310121+9999REMSYN08287553 42460 70911 10221 20187 30153 40162 53012 87500 333 56200 84616 86820 86842=
0213875530999992024010312004-34450-058583FM-12+000399999V0201001N00461004501CN010000199+02341+01871101661ADDGA1071+004501061GE19AGL   +99999+99999GF107991071999004501999999KA1240M+02431KA2240N+02171MA1999999101571MD1210171+9999REMSYN08287553 32460 71009 10234 20187 30157 40166 52017 87500 333 10243 20217 56300 87615=
0213875530999992024010312004-34450-058583FM-12+000399999V0201001N00461004501CN010000199+02341+01871101661ADDGA1071+004501061GE19AGL   +99999+99999GF107991071999004501999999KA1240M+02431KA2240N+02171MA1999999101571MD1210171+9999REMSYN08287553 32460 71009 10234 20187 30157 40166 52017 87500 333 10243 20217 56300 87615=
0175875530999992024010313004-34450-058583FM-12+000399999V0200901N00461005101CN010000199+02351+01801101631ADDGA1071+005101061GE19AGL   +99999+99999GF107991071999005101999999MA1999999101541MD1210071+9999REMSYN07087553 42460 70909 10235 20180 30154 40163 52007 87500 333 56300 87617=
0175875530999992024010313004-34450-058583FM-12+000399999V0200901N00461005101CN010000199+02351+01801101631ADDGA1071+005101061GE19AGL   +99999+99999GF107991071999005101999999MA1999999101541MD1210071+9999REMSYN07087553 42460 70909 10235 20180 30154 40163 52007 87500 333 56300 87617=
0175875530999992024010314004-34450-058583FM-12+000399999V0201101N00511006001CN010000199+02441+01921101631ADDGA1071+006001061GE19AGL   +99999+99999GF107991071999006001999999MA1999999101541MD1210011+9999REMSYN07087553 42560 71110 10244 20192 30154 40163 52001 87500 333 56300 87620=
0175875530999992024010314004-34450-058583FM-12+000399999V0201101N00511006001CN010000199+02441+01921101631ADDGA1071+006001061GE19AGL   +99999+99999GF107991071999006001999999MA1999999101541MD1210011+9999REMSYN07087553 42560 71110 10244 20192 30154 40163 52001 87500 333 56300 87620=
0175875530999992024010316004-34450-058583FM-12+000399999V0201301N005712200019N010000199+02641+01971101591ADDGA1041+006901061GE19AGL   +99999+99999GF104991041999006901999999MA1999999101501MD1710041+9999REMSYN07087553 42560 41311 10264 20197 30150 40159 57004 84500 333 56300 84623=
0175875530999992024010316004-34450-058583FM-12+000399999V0201301N005712200019N010000199+02641+01971101591ADDGA1041+006901061GE19AGL   +99999+99999GF104991041999006901999999MA1999999101501MD1710041+9999REMSYN07087553 42560 41311 10264 20197 30150 40159 57004 84500 333 56300 84623=
0203875530999992024010317004-34450-058583FM-12+000399999V0201201N006212200019N010000199+02691+01941101571ADDGA1021+008101061GA2011+013501081GE19AGL   +99999+99999GF103991021999008101999999MA1999999101481MD1710071+9999REMSYN08287553 42560 31212 10269 20194 30148 40157 57007 83200 333 56300 57873 82627 81845=
0203875530999992024010317004-34450-058583FM-12+000399999V0201201N006212200019N010000199+02691+01941101571ADDGA1021+008101061GA2011+013501081GE19AGL   +99999+99999GF103991021999008101999999MA1999999101481MD1710071+9999REMSYN08287553 42560 31212 10269 20194 30148 40157 57007 83200 333 56300 57873 82627 81845=
0198875530999992024010318004-34450-058583FM-12+000399999V0201301N006212200019N010000199+02711+01931101511ADDAA106000091GA1021+009001081GE19AGL   +99999+99999GF102991021999009001999999MA1999999101421MD1710091+9999REMSYN08287553 12560 21312 10271 20193 30142 40151 57009 60001 82200 333 56300 57872 82830=
0198875530999992024010318004-34450-058583FM-12+000399999V0201301N006212200019N010000199+02711+01931101511ADDAA106000091GA1021+009001081GE19AGL   +99999+99999GF102991021999009001999999MA1999999101421MD1710091+9999REMSYN08287553 12560 21312 10271 20193 30142 40151 57009 60001 82200 333 56300 57872 82830=
0203875530999992024010319004-34450-058583FM-12+000399999V0201201N006212200019N010000199+02841+02031101471ADDGA1011+009001081GA2011+015001091GE19AGL   +99999+99999GF102991011999009001999999MA1999999101381MD1710121+9999REMSYN08287553 42560 21212 10284 20203 30138 40147 57012 82300 333 56300 57971 81830 81950=
0203875530999992024010319004-34450-058583FM-12+000399999V0201201N006212200019N010000199+02841+02031101471ADDGA1011+009001081GA2011+015001091GE19AGL   +99999+99999GF102991011999009001999999MA1999999101381MD1710121+9999REMSYN08287553 42560 21212 10284 20203 30138 40147 57012 82300 333 56300 57971 81830 81950=
0191875530999992024010320004-34450-058583FM-12+000399999V0201201N007212200019N010000199+02671+01951101431ADDGA1011+009001081GA2999+999999001GE19AGL   +99999+99999GF103991011999009001999999MA1999999101341MD1710131+9999REMSYN07087553 42560 31214 10267 20195 30134 40143 57013 81103 333 56307 81830=
0191875530999992024010320004-34450-058583FM-12+000399999V0201201N007212200019N010000199+02671+01951101431ADDGA1011+009001081GA2999+999999001GE19AGL   +99999+99999GF103991011999009001999999MA1999999101341MD1710131+9999REMSYN07087553 42560 31214 10267 20195 30134 40143 57013 81103 333 56307 81830=
0191875530999992024010322004-34450-058583FM-12+000399999V0201201N007712200019N010000199+02531+02031101441ADDGA1011+010501061GA2999+999999001GE19AGL   +99999+99999GF103991011999010501999999MA1999999101361MD1710031+9999REMSYN07087553 42660 31215 10253 20203 30136 40144 57003 81403 333 56307 81635=
0191875530999992024010322004-34450-058583FM-12+000399999V0201201N007712200019N010000199+02531+02031101441ADDGA1011+010501061GA2999+999999001GE19AGL   +99999+99999GF103991011999010501999999MA1999999101361MD1710031+9999REMSYN07087553 42660 31215 10253 20203 30136 40144 57003 81403 333 56307 81635=
0175875530999992024010323004-34450-058583FM-12+000399999V0201301N006712200019N010000199+02481+02061101411ADDGA1031+060001021GE19AGL   +99999+99999GF103991031999060001999999MA1999999101321MD1710031+9999REMSYN07087553 42960 31313 10248 20206 30132 40141 57003 80008 333 56007 83270=
0175875530999992024010323004-34450-058583FM-12+000399999V0201301N006712200019N010000199+02481+02061101411ADDGA1031+060001021GE19AGL   +99999+99999GF103991031999060001999999MA1999999101321MD1710031+9999REMSYN07087553 42960 31313 10248 20206 30132 40141 57003 80008 333 56007 83270=
0230875530999992024010400004-34450-058583FM-12+000399999V0201201N007212200019N010000199+02471+02061101421ADDAA106000091GA1021+060001001GE19AGL   +99999+99999GF102991021999060001999999KA1120M+02851KA2120N+02321MA1999999101331MD1110031+9999REMSYN08887553 12960 21214 10247 20206 30133 40142 51003 60001 80003 333 10285 20232 56006 82070=
0230875530999992024010400004-34450-058583FM-12+000399999V0201201N007212200019N010000199+02471+02061101421ADDAA106000091GA1021+060001001GE19AGL   +99999+99999GF102991021999060001999999KA1120M+02851KA2120N+02321MA1999999101331MD1110031+9999REMSYN08887553 12960 21214 10247 20206 30133 40142 51003 60001 80003 333 10285 20232 56006 82070=
0089875530999992024010401004-34450-058583FM-12+000399999V0201101N006219999999N010000199+02451+02101101421ADDGF100000MA1999999101331MD1610031+9999REMSYN04887553 42960 01112 10245 20210 30133 40142 56003=
0089875530999992024010402004-34450-058583FM-12+000399999V0200901N005119999999N010000199+02531+02051101501ADDGF100000MA1999999101411MD1310091+9999REMSYN04887553 42960 00910 10253 20205 30141 40150 53009=
0089875530999992024010404004-34450-058583FM-12+000399999V0200701N006719999999N010000199+02371+01661101551ADDGF100000MA1999999101461MD1310131+9999REMSYN04887553 42960 00713 10237 20166 30146 40155 53013=
0089875530999992024010405004-34450-058583FM-12+000399999V0200801N004619999999N010000199+02231+01801101551ADDGF100000MA1999999101461MD1110051+9999REMSYN04887553 42960 00809 10223 20180 30146 40155 51005=
0106875530999992024010406004-34450-058583FM-12+000399999V0200801N005719999999N010000199+02241+01831101501ADDGF100000AA106000091MA1999999101411MD1990001+9999REMSYN05487553 12960 00811 10224 20183 30141 40150 50000 60001=
0083875530999992024010407004-34450-058583FM-12+000399999V0200801N005119999999N010000199+02181+99999101501ADDGF100000MA1999999101411MD1610051+9999REMSYN04287553 42960 00810 10218 30141 40150 56005=
0191875530999992024010408004-34450-058583FM-12+000399999V0200801N004612200019N010000199+02141+01861101591ADDGA1011+005401071GA2999+999999001GE19AGL   +99999+99999GF102991011999005401999999MA1999999101501MD1310041+9999REMSYN07087553 42460 20809 10214 20186 30150 40159 53004 81601 333 56206 81718=
0191875530999992024010408004-34450-058583FM-12+000399999V0200801N004612200019N010000199+02141+01861101591ADDGA1011+005401071GA2999+999999001GE19AGL   +99999+99999GF102991011999005401999999MA1999999101501MD1310041+9999REMSYN07087553 42460 20809 10214 20186 30150 40159 53004 81601 333 56206 81718=
0191875530999992024010410004-34450-058583FM-12+000399999V0200701N00511005401CN010000199+02171+01891101701ADDGA1051+005401071GA2999+999999001GE19AGL   +99999+99999GF105991051999005401999999MA1999999101611MD1210201+9999REMSYN07087553 42460 50710 10217 20189 30161 40170 52020 85601 333 56206 85718=
0191875530999992024010410004-34450-058583FM-12+000399999V0200701N00511005401CN010000199+02171+01891101701ADDGA1051+005401071GA2999+999999001GE19AGL   +99999+99999GF105991051999005401999999MA1999999101611MD1210201+9999REMSYN07087553 42460 50710 10217 20189 30161 40170 52020 85601 333 56206 85718=
0175875530999992024010411004-34450-058583FM-12+000399999V0200601N00571005101CN010000199+02231+01851101741ADDGA1061+005101071GE19AGL   +99999+99999GF106991061999005101999999MA1999999101651MD1210151+9999REMSYN07087553 42460 60611 10223 20185 30165 40174 52015 86600 333 56200 86717=
0175875530999992024010411004-34450-058583FM-12+000399999V0200601N00571005101CN010000199+02231+01851101741ADDGA1061+005101071GE19AGL   +99999+99999GF106991061999005101999999MA1999999101651MD1210151+9999REMSYN07087553 42460 60611 10223 20185 30165 40174 52015 86600 333 56200 86717=
0213875530999992024010412004-34450-058583FM-12+000399999V0200401N00511005701CN010000199+02281+01841101741ADDGA1061+005701061GE19AGL   +99999+99999GF106991061999005701999999KA1240M+02541KA2240N+02111MA1999999101651MD1110091+9999REMSYN08287553 32460 60410 10228 20184 30165 40174 51009 86500 333 10254 20211 56200 86619=
0213875530999992024010412004-34450-058583FM-12+000399999V0200401N00511005701CN010000199+02281+01841101741ADDGA1061+005701061GE19AGL   +99999+99999GF106991061999005701999999KA1240M+02541KA2240N+02111MA1999999101651MD1110091+9999REMSYN08287553 32460 60410 10228 20184 30165 40174 51009 86500 333 10254 20211 56200 86619=
0175875530999992024010413004-34450-058583FM-12+000399999V0200701N00621006601CN010000199+02541+01931101731ADDGA1061+006601061GE19AGL   +99999+99999GF106991061999006601999999MA1999999101641MD1110031+9999REMSYN07087553 42560 60712 10254 20193 30164 40173 51003 86500 333 56200 86622=
0175875530999992024010413004-34450-058583FM-12+000399999V0200701N00621006601CN010000199+02541+01931101731ADDGA1061+006601061GE19AGL   +99999+99999GF106991061999006601999999MA1999999101641MD1110031+9999REMSYN07087553 42560 60712 10254 20193 30164 40173 51003 86500 333 56200 86622=
0197875530999992024010414004-34450-058583FM-12+000399999V0200701N00411008701CN010000199+02581+01921101731ADDGA1051+008701061GA2071+013501061GE19AGL   +99999+99999GF107991051999008701999999MA1999999101641MD1610011+9999REMSYN07687553 42560 70708 10258 20192 30164 40173 56001 87500 333 56200 85629 87645=
0197875530999992024010414004-34450-058583FM-12+000399999V0200701N00411008701CN010000199+02581+01921101731ADDGA1051+008701061GA2071+013501061GE19AGL   +99999+99999GF107991051999008701999999MA1999999101641MD1610011+9999REMSYN07687553 42560 70708 10258 20192 30164 40173 56001 87500 333 56200 85629 87645=
0175875530999992024010416004-34450-058583FM-12+000399999V0200901N00571009301CN010000199+02781+01911101591ADDGA1051+009301061GE19AGL   +99999+99999GF105991051999009301999999MA1999999101501MD1810131+9999REMSYN07087553 42560 50911 10278 20191 30150 40159 58013 85500 333 56200 85631=
0175875530999992024010416004-34450-058583FM-12+000399999V0200901N00571009301CN010000199+02781+01911101591ADDGA1051+009301061GE19AGL   +99999+99999GF105991051999009301999999MA1999999101501MD1810131+9999REMSYN07087553 42560 50911 10278 20191 30150 40159 58013 85500 333 56200 85631=
0191875530999992024010417004-34450-058583FM-12+000399999V0200901N004612200019N010000199+02781+01911101551ADDGA1021+010501061GA2999+999999001GE19AGL   +99999+99999GF104991021999010501999999MA1999999101461MD1710171+9999REMSYN07087553 42660 40909 10278 20191 30146 40155 57017 82501 333 56207 82635=
0191875530999992024010417004-34450-058583FM-12+000399999V0200901N004612200019N010000199+02781+01911101551ADDGA1021+010501061GA2999+999999001GE19AGL   +99999+99999GF104991021999010501999999MA1999999101461MD1710171+9999REMSYN07087553 42660 40909 10278 20191 30146 40155 57017 82501 333 56207 82635=
0208875530999992024010418004-34450-058583FM-12+000399999V0201101N005712200019N010000199+02751+01961101471ADDAA106000091GA1021+010501081GA2999+999999001GE19AGL   +99999+99999GF103991021999010501999999MA1999999101381MD1710201+9999REMSYN07687553 12660 31111 10275 20196 30138 40147 57020 60001 82101 333 56207 82835=
0208875530999992024010418004-34450-058583FM-12+000399999V0201101N005712200019N010000199+02751+01961101471ADDAA106000091GA1021+010501081GA2999+999999001GE19AGL   +99999+99999GF103991021999010501999999MA1999999101381MD1710201+9999REMSYN07687553 12660 31111 10275 20196 30138 40147 57020 60001 82101 333 56207 82835=
0191875530999992024010419004-34450-058583FM-12+000399999V0201101N006212200019N010000199+02851+01921101421ADDGA1011+008701081GA2999+999999001GE19AGL   +99999+99999GF102991011999008701999999MA1999999101331MD1710171+9999REMSYN07087553 42560 21112 10285 20192 30133 40142 57017 81101 333 56207 81829=
0191875530999992024010419004-34450-058583FM-12+000399999V0201101N006212200019N010000199+02851+01921101421ADDGA1011+008701081GA2999+999999001GE19AGL   +99999+99999GF102991011999008701999999MA1999999101331MD1710171+9999REMSYN07087553 42560 21112 10285 20192 30133 40142 57017 81101 333 56207 81829=
0191875530999992024010420004-34450-058583FM-12+000399999V0201101N005112200019N010000199+02781+01871101391ADDGA1011+009601081GA2999+999999001GE19AGL   +99999+99999GF102991011999009601999999MA1999999101301MD1710161+9999REMSYN07087553 42560 21110 10278 20187 30130 40139 57016 81101 333 56207 81832=
0191875530999992024010420004-34450-058583FM-12+000399999V0201101N005112200019N010000199+02781+01871101391ADDGA1011+009601081GA2999+999999001GE19AGL   +99999+99999GF102991011999009601999999MA1999999101301MD1710161+9999REMSYN07087553 42560 21110 10278 20187 30130 40139 57016 81101 333 56207 81832=
0175875530999992024010422004-34450-058583FM-12+000399999V0201201N005712200019N010000199+02571+02031101331ADDGA1041+060001021GE19AGL   +99999+99999GF104991041999060001999999MA1999999101241MD1710091+9999REMSYN07087553 42960 41211 10257 20203 30124 40133 57009 80006 333 56007 84270=
0175875530999992024010422004-34450-058583FM-12+000399999V0201201N005712200019N010000199+02571+02031101331ADDGA1041+060001021GE19AGL   +99999+99999GF104991041999060001999999MA1999999101241MD1710091+9999REMSYN07087553 42960 41211 10257 20203 30124 40133 57009 80006 333 56007 84270=
0175875530999992024010423004-34450-058583FM-12+000399999V0201201N004612200019N010000199+02531+02051101361ADDGA1031+060001021GE19AGL   +99999+99999GF103991031999060001999999MA1999999101281MD1510031+9999REMSYN07087553 42960 31209 10253 20205 30128 40136 55003 80006 333 56007 83270=
0175875530999992024010423004-34450-058583FM-12+000399999V0201201N004612200019N010000199+02531+02051101361ADDGA1031+060001021GE19AGL   +99999+99999GF103991031999060001999999MA1999999101281MD1510031+9999REMSYN07087553 42960 31209 10253 20205 30128 40136 55003 80006 333 56007 83270=
0252875530999992024010500004-34450-058583FM-12+000399999V0201201N005112200019N010000199+02541+02031101401ADDAA106000091GA1011+030001031GA2031+060001001GE19AGL   +99999+99999GF104991011999030001999999KA1120M+02901KA2120N+02281MA1999999101301MD1210041+9999REMSYN09487553 12960 41210 10254 20203 30130 40140 52004 60001 81073 333 10290 20228 56077 81360 83070=
0252875530999992024010500004-34450-058583FM-12+000399999V0201201N005112200019N010000199+02541+02031101401ADDAA106000091GA1011+030001031GA2031+060001001GE19AGL   +99999+99999GF104991011999030001999999KA1120M+02901KA2120N+02281MA1999999101301MD1210041+9999REMSYN09487553 12960 41210 10254 20203 30130 40140 52004 60001 81073 333 10290 20228 56077 81360 83070=
0175875530999992024010501004-34450-058583FM-12+000399999V0201101N004112200019N010000199+02541+02091101441ADDGA1041+060001021GE19AGL   +99999+99999GF104991041999060001999999MA1999999101361MD1210121+9999REMSYN07087553 42960 41108 10254 20209 30136 40144 52012 80008 333 56007 84270=
0175875530999992024010501004-34450-058583FM-12+000399999V0201101N004112200019N010000199+02541+02091101441ADDGA1041+060001021GE19AGL   +99999+99999GF104991041999060001999999MA1999999101361MD1210121+9999REMSYN07087553 42960 41108 10254 20209 30136 40144 52012 80008 333 56007 84270=
0175875530999992024010502004-34450-058583FM-12+000399999V0200801N003612200019N010000199+02481+02061101461ADDGA1031+060001021GE19AGL   +99999+99999GF103991031999060001999999MA1999999101371MD1210091+9999REMSYN07087553 42960 30807 10248 20206 30137 40146 52009 80008 333 56007 83270=
0175875530999992024010502004-34450-058583FM-12+000399999V0200801N003612200019N010000199+02481+02061101461ADDGA1031+060001021GE19AGL   +99999+99999GF103991031999060001999999MA1999999101371MD1210091+9999REMSYN07087553 42960 30807 10248 20206 30137 40146 52009 80008 333 56007 83270=
0175875530999992024010504004-34450-058583FM-12+000399999V0200701N005712200019N010000199+02381+01781101431ADDGA1031+060001021GE19AGL   +99999+99999GF103991031999060001999999MA1999999101341MD1710011+9999REMSYN07087553 42960 30711 10238 20178 30134 40143 57001 80008 333 56007 83270=
0175875530999992024010504004-34450-058583FM-12+000399999V0200701N005712200019N010000199+02381+01781101431ADDGA1031+060001021GE19AGL   +99999+99999GF103991031999060001999999MA1999999101341MD1710011+9999REMSYN07087553 42960 30711 10238 20178 30134 40143 57001 80008 333 56007 83270=
0175875530999992024010505004-34450-058583FM-12+000399999V0200601N005112200019N010000199+02281+01841101391ADDGA1041+060001021GE19AGL   +99999+99999GF104991041999060001999999MA1999999101301MD1710071+9999REMSYN07087553 42960 40610 10228 20184 30130 40139 57007 80008 333 56007 84270=
0175875530999992024010505004-34450-058583FM-12+000399999V0200601N005112200019N010000199+02281+01841101391ADDGA1041+060001021GE19AGL   +99999+99999GF104991041999060001999999MA1999999101301MD1710071+9999REMSYN07087553 42960 40610 10228 20184 30130 40139 57007 80008 333 56007 84270=
0192875530999992024010506004-34450-058583FM-12+000399999V0200601N005112200019N010000199+02251+01791101361ADDAA106000091GA1031+060001021GE19AGL   +99999+99999GF103991031999060001999999MA1999999101281MD1710111+9999REMSYN07687553 12960 30610 10225 20179 30128 40136 57011 60001 80008 333 56007 83270=
0192875530999992024010506004-34450-058583FM-12+000399999V0200601N005112200019N010000199+02251+01791101361ADDAA106000091GA1031+060001021GE19AGL   +99999+99999GF103991031999060001999999MA1999999101281MD1710111+9999REMSYN07687553 12960 30610 10225 20179 30128 40136 57011 60001 80008 333 56007 83270=
0175875530999992024010507004-34450-058583FM-12+000399999V0200501N004112200019N010000199+02131+01831101361ADDGA1021+060001021GE19AGL   +99999+99999GF102991021999060001999999MA1999999101281MD1710071+9999REMSYN07087553 42960 20508 10213 20183 30128 40136 57007 80008 333 56007 82270=
0175875530999992024010507004-34450-058583FM-12+000399999V0200501N004112200019N010000199+02131+01831101361ADDGA1021+060001021GE19AGL   +99999+99999GF102991021999060001999999MA1999999101281MD1710071+9999REMSYN07087553 42960 20508 10213 20183 30128 40136 57007 80008 333 56007 82270=
0175875530999992024010510004-34450-058583FM-12+000399999V0200401N003612200019N010000199+02131+01761101511ADDGA1041+060001021GE19AGL   +99999+99999GF104991041999060001999999MA1999999101421MD1210151+9999REMSYN07087553 42960 40407 10213 20176 30142 40151 52015 80008 333 56007 84270=
0175875530999992024010510004-34450-058583FM-12+000399999V0200401N003612200019N010000199+02131+01761101511ADDGA1041+060001021GE19AGL   +99999+99999GF104991041999060001999999MA1999999101421MD1210151+9999REMSYN07087553 42960 40407 10213 20176 30142 40151 52015 80008 333 56007 84270=
0175875530999992024010511004-34450-058583FM-12+000399999V0200301N003610600019N010000199+02171+01841101501ADDGA1051+060001021GE19AGL   +99999+99999GF105991051999060001999999MA1999999101411MD1210191+9999REMSYN07087553 42960 50307 10217 20184 30141 40150 52019 80008 333 56007 85270=
0175875530999992024010511004-34450-058583FM-12+000399999V0200301N003610600019N010000199+02171+01841101501ADDGA1051+060001021GE19AGL   +99999+99999GF105991051999060001999999MA1999999101411MD1210191+9999REMSYN07087553 42960 50307 10217 20184 30141 40150 52019 80008 333 56007 85270=
0213875530999992024010512004-34450-058583FM-12+000399999V0200201N004112200019N010000199+02371+01851101471ADDGA1041+060001021GE19AGL   +99999+99999GF104991041999060001999999KA1240M+02561KA2240N+02011MA1999999101381MD1990051+9999REMSYN08287553 32960 40208 10237 20185 30138 40147 50005 80005 333 10256 20201 56006 84270=
0213875530999992024010512004-34450-058583FM-12+000399999V0200201N004112200019N010000199+02371+01851101471ADDGA1041+060001021GE19AGL   +99999+99999GF104991041999060001999999KA1240M+02561KA2240N+02011MA1999999101381MD1990051+9999REMSYN08287553 32960 40208 10237 20185 30138 40147 50005 80005 333 10256 20201 56006 84270=
0175875530999992024010513004-34450-058583FM-12+000399999V0200201N004112200019N010000199+02581+01921101481ADDGA1041+060001021GE19AGL   +99999+99999GF104991041999060001999999MA1999999101381MD1510041+9999REMSYN07087553 42960 40208 10258 20192 30138 40148 55004 80005 333 56006 84270=
0175875530999992024010513004-34450-058583FM-12+000399999V0200201N004112200019N010000199+02581+01921101481ADDGA1041+060001021GE19AGL   +99999+99999GF104991041999060001999999MA1999999101381MD1510041+9999REMSYN07087553 42960 40208 10258 20192 30138 40148 55004 80005 333 56006 84270=
0197875530999992024010514004-34450-058583FM-12+000399999V0200401N003612200019N010000199+02781+02031101421ADDGA1021+004501081GA2031+060001021GE19AGL   +99999+99999GF103991021999004501999999MA1999999101331MD1810081+9999REMSYN07687553 42460 30407 10278 20203 30133 40142 58008 82105 333 56106 82815 83270=
0197875530999992024010514004-34450-058583FM-12+000399999V0200401N003612200019N010000199+02781+02031101421ADDGA1021+004501081GA2031+060001021GE19AGL   +99999+99999GF103991021999004501999999MA1999999101331MD1810081+9999REMSYN07687553 42460 30407 10278 20203 30133 40142 58008 82105 333 56106 82815 83270=
0175875530999992024010516004-34450-058583FM-12+000399999V0200301N004612200019N010000199+02981+01991101261ADDGA1041+011701081GE19AGL   +99999+99999GF104991041999011701999999MA1999999101171MD1710211+9999REMSYN07087553 42660 40309 10298 20199 30117 40126 57021 84100 333 56100 84839=
0175875530999992024010516004-34450-058583FM-12+000399999V0200301N004612200019N010000199+02981+01991101261ADDGA1041+011701081GE19AGL   +99999+99999GF104991041999011701999999MA1999999101171MD1710211+9999REMSYN07087553 42660 40309 10298 20199 30117 40126 57021 84100 333 56100 84839=
0175875530999992024010517004-34450-058583FM-12+000399999V0200401N00361013801CN010000199+02981+01921101201ADDGA1051+013801081GE19AGL   +99999+99999GF105991051999013801999999MA1999999101101MD1710231+9999REMSYN07087553 42660 50407 10298 20192 30110 40120 57023 85100 333 56100 85846=
0175875530999992024010517004-34450-058583FM-12+000399999V0200401N00361013801CN010000199+02981+01921101201ADDGA1051+013801081GE19AGL   +99999+99999GF105991051999013801999999MA1999999101101MD1710231+9999REMSYN07087553 42660 50407 10298 20192 30110 40120 57023 85100 333 56100 85846=
0192875530999992024010518004-34450-058583FM-12+000399999V0200701N00411012901CN010000199+02931+01951101161ADDAA106000091GA1051+012901081GE19AGL   +99999+99999GF105991051999012901999999MA1999999101061MD1710201+9999REMSYN07687553 12660 50708 10293 20195 30106 40116 57020 60001 85100 333 56100 85843=
0192875530999992024010518004-34450-058583FM-12+000399999V0200701N00411012901CN010000199+02931+01951101161ADDAA106000091GA1051+012901081GE19AGL   +99999+99999GF105991051999012901999999MA1999999101061MD1710201+9999REMSYN07687553 12660 50708 10293 20195 30106 40116 57020 60001 85100 333 56100 85843=
0175875530999992024010519004-34450-058583FM-12+000399999V0200801N004112200019N010000199+03091+02001101051ADDGA1041+014101081GE19AGL   +99999+99999GF104991041999014101999999MA1999999100961MD1710211+9999REMSYN07087553 42660 40808 10309 20200 30096 40105 57021 84100 333 56100 84847=
0175875530999992024010519004-34450-058583FM-12+000399999V0200801N004112200019N010000199+03091+02001101051ADDGA1041+014101081GE19AGL   +99999+99999GF104991041999014101999999MA1999999100961MD1710211+9999REMSYN07087553 42660 40808 10309 20200 30096 40105 57021 84100 333 56100 84847=
0175875530999992024010520004-34450-058583FM-12+000399999V0200801N004612200019N010000199+03081+02041100991ADDGA1021+014101081GE19AGL   +99999+99999GF102991021999014101999999MA1999999100901MD1710201+9999REMSYN07087553 42660 20809 10308 20204 30090 40099 57020 82100 333 56100 82847=
0175875530999992024010520004-34450-058583FM-12+000399999V0200801N004612200019N010000199+03081+02041100991ADDGA1021+014101081GE19AGL   +99999+99999GF102991021999014101999999MA1999999100901MD1710201+9999REMSYN07087553 42660 20809 10308 20204 30090 40099 57020 82100 333 56100 82847=
0089875530999992024010522004-34450-058583FM-12+000399999V0200901N006219999999N010000199+02821+02071101001ADDGF100000MA1999999100901MD1510051+9999REMSYN04887553 42960 00912 10282 20207 30090 40100 55005=
0191875530999992024010523004-34450-058583FM-12+000399999V0201001N005112200019N010000199+02721+02131101051ADDGA1011+030001031GA2999+999999001GE19AGL   +99999+99999GF101991011999030001999999MA1999999100961MD1310051+9999REMSYN07087553 42960 11010 10272 20213 30096 40105 53005 81072 333 56066 81360=
0191875530999992024010523004-34450-058583FM-12+000399999V0201001N005112200019N010000199+02721+02131101051ADDGA1011+030001031GA2999+999999001GE19AGL   +99999+99999GF101991011999030001999999MA1999999100961MD1310051+9999REMSYN07087553 42960 11010 10272 20213 30096 40105 53005 81072 333 56066 81360=
0230875530999992024010600004-34450-058583FM-12+000399999V0201001N005112200019N010000199+02651+02161101061ADDAA106000091GA1011+030001031GE19AGL   +99999+99999GF101991011999030001999999KA1120M+03091KA2120N+02371MA1999999100971MD1210091+9999REMSYN08887553 12960 11010 10265 20216 30097 40106 52009 60001 81070 333 10309 20237 56060 81360=
0230875530999992024010600004-34450-058583FM-12+000399999V0201001N005112200019N010000199+02651+02161101061ADDAA106000091GA1011+030001031GE19AGL   +99999+99999GF101991011999030001999999KA1120M+03091KA2120N+02371MA1999999100971MD1210091+9999REMSYN08887553 12960 11010 10265 20216 30097 40106 52009 60001 81070 333 10309 20237 56060 81360=
0089875530999992024010601004-34450-058583FM-12+000399999V0201001N004619999999N010000199+02621+02241101101ADDGF100000MA1999999101011MD1210111+9999REMSYN04887553 42960 01009 10262 20224 30101 40110 52011=
0089875530999992024010602004-34450-058583FM-12+000399999V0201001N004619999999N010000199+02601+02311101041ADDGF100000MA1999999100941MD1710011+9999REMSYN04887553 42960 01009 10260 20231 30094 40104 57001=
0089875530999992024010604004-34450-058583FM-12+000399999V0200301N003619999999N010000199+02491+01991101001ADDGF100000MA1999999100901MD1710111+9999REMSYN04887553 42960 00307 10249 20199 30090 40100 57011=
0089875530999992024010605004-34450-058583FM-12+000399999V0200201N004119999999N010000199+02451+01911100941ADDGF100000MA1999999100851MD1710091+9999REMSYN04887553 42960 00208 10245 20191 30085 40094 57009=
0106875530999992024010606004-34450-058583FM-12+000399999V0203601N003119999999N010000199+02391+01941100921ADDGF100000AA106000091MA1999999100821MD1710121+9999REMSYN05487553 12960 03606 10239 20194 30082 40092 57012 60001=
0175875530999992024010607004-34450-058583FM-12+000399999V0203601N001512200019N010000199+02321+01921100941ADDGA1031+030001031GE19AGL   +99999+99999GF103991031999030001999999MA1999999100851MD1710051+9999REMSYN07087553 42960 33603 10232 20192 30085 40094 57005 83070 333 56060 83360=
0175875530999992024010607004-34450-058583FM-12+000399999V0203601N001512200019N010000199+02321+01921100941ADDGA1031+030001031GE19AGL   +99999+99999GF103991031999030001999999MA1999999100851MD1710051+9999REMSYN07087553 42960 33603 10232 20192 30085 40094 57005 83070 333 56060 83360=
0175875530999992024010608004-34450-058583FM-12+000399999V0200201N004112200019N010000199+02301+01901100851ADDGA1021+030001031GE19AGL   +99999+99999GF102991021999030001999999MA1999999100761MD1710091+9999REMSYN07087553 42960 20208 10230 20190 30076 40085 57009 82070 333 56060 82360=
0175875530999992024010608004-34450-058583FM-12+000399999V0200201N004112200019N010000199+02301+01901100851ADDGA1021+030001031GE19AGL   +99999+99999GF102991021999030001999999MA1999999100761MD1710091+9999REMSYN07087553 42960 20208 10230 20190 30076 40085 57009 82070 333 56060 82360=
0197875530999992024010610004-34450-058583FM-12+000399999V0203401N003610600019N010000199+02201+01951100901ADDGA1021+030001031GA2081+060001021GE19AGL   +99999+99999GF108991021999030001999999MA1999999100811MD1710041+9999REMSYN07687553 42960 83407 10220 20195 30081 40090 57004 82077 333 56066 82360 88270=
0197875530999992024010610004-34450-058583FM-12+000399999V0203401N003610600019N010000199+02201+01951100901ADDGA1021+030001031GA2081+060001021GE19AGL   +99999+99999GF108991021999030001999999MA1999999100811MD1710041+9999REMSYN07687553 42960 83407 10220 20195 30081 40090 57004 82077 333 56066 82360 88270=
0197875530999992024010611004-34450-058583FM-12+000399999V0200201N003610600019N010000199+02311+01961100831ADDGA1041+030001031GA2081+060001021GE19AGL   +99999+99999GF108991041999030001999999MA1999999100741MD1710011+9999REMSYN07687553 42960 80207 10231 20196 30074 40083 57001 84077 333 56066 84360 88270=
0197875530999992024010611004-34450-058583FM-12+000399999V0200201N003610600019N010000199+02311+01961100831ADDGA1041+030001031GA2081+060001021GE19AGL   +99999+99999GF108991041999030001999999MA1999999100741MD1710011+9999REMSYN07687553 42960 80207 10231 20196 30074 40083 57001 84077 333 56066 84360 88270=
0235875530999992024010612004-34450-058583FM-12+000399999V0203201N002610600019N010000199+02451+02061100921ADDGA1041+030001031GA2081+060001021GE19AGL   +99999+99999GF108991041999030001999999KA1240M+02651KA2240N+02231MA1999999100821MD1310041+9999REMSYN08887553 32960 83205 10245 20206 30082 40092 53004 84077 333 10265 20223 56066 84360 88270=
0235875530999992024010612004-34450-058583FM-12+000399999V0203201N002610600019N010000199+02451+02061100921ADDGA1041+030001031GA2081+060001021GE19AGL   +99999+99999GF108991041999030001999999KA1240M+02651KA2240N+02231MA1999999100821MD1310041+9999REMSYN08887553 32960 83205 10245 20206 30082 40092 53004 84077 333 10265 20223 56066 84360 88270=
0197875530999992024010613004-34450-058583FM-12+000399999V0203601N004110600019N010000199+02521+02121100931ADDGA1021+030001031GA2081+060001021GE19AGL   +99999+99999GF108991021999030001999999MA1999999100841MD1310031+9999REMSYN07687553 42960 83608 10252 20212 30084 40093 53003 82077 333 56066 82360 88270=
0197875530999992024010613004-34450-058583FM-12+000399999V0203601N004110600019N010000199+02521+02121100931ADDGA1021+030001031GA2081+060001021GE19AGL   +99999+99999GF108991021999030001999999MA1999999100841MD1310031+9999REMSYN07687553 42960 83608 10252 20212 30084 40093 53003 82077 333 56066 82360 88270=
0197875530999992024010614004-34450-058583FM-12+000399999V0200601N002610600019N010000199+02561+02141100991ADDGA1021+030001031GA2081+060001021GE19AGL   +99999+99999GF108991021999030001999999MA1999999100901MD1210161+9999REMSYN07687553 42960 80605 10256 20214 30090 40099 52016 82077 333 56066 82360 88270=
0197875530999992024010614004-34450-058583FM-12+000399999V0200601N002610600019N010000199+02561+02141100991ADDGA1021+030001031GA2081+060001021GE19AGL   +99999+99999GF108991021999030001999999MA1999999100901MD1210161+9999REMSYN07687553 42960 80605 10256 20214 30090 40099 52016 82077 333 56066 82360 88270=
0197875530999992024010616004-34450-058583FM-12+000399999V0200301N003110600019N010000199+02601+02171100971ADDGA1021+030001031GA2081+060001021GE19AGL   +99999+99999GF108991021999030001999999MA1999999100881MD1110041+9999REMSYN07687553 42960 80306 10260 20217 30088 40097 51004 82077 333 56066 82360 88270=
0197875530999992024010616004-34450-058583FM-12+000399999V0200301N003110600019N010000199+02601+02171100971ADDGA1021+030001031GA2081+060001021GE19AGL   +99999+99999GF108991021999030001999999MA1999999100881MD1110041+9999REMSYN07687553 42960 80306 10260 20217 30088 40097 51004 82077 333 56066 82360 88270=
0197875530999992024010617004-34450-058583FM-12+000399999V0200501N004610600019N010000199+02671+02211100901ADDGA1021+030001031GA2081+060001021GE19AGL   +99999+99999GF108991021999030001999999MA1999999100811MD1810091+9999REMSYN07687553 42960 80509 10267 20221 30081 40090 58009 82077 333 56066 82360 88270=
0197875530999992024010617004-34450-058583FM-12+000399999V0200501N004610600019N010000199+02671+02211100901ADDGA1021+030001031GA2081+060001021GE19AGL   +99999+99999GF108991021999030001999999MA1999999100811MD1810091+9999REMSYN07687553 42960 80509 10267 20221 30081 40090 58009 82077 333 56066 82360 88270=
0214875530999992024010618004-34450-058583FM-12+000399999V0200201N005110600019N010000199+02791+02061100831ADDAA106000091GA1021+030001031GA2081+060001021GE19AGL   +99999+99999GF108991021999030001999999MA1999999100741MD1710161+9999REMSYN08287553 12960 80210 10279 20206 30074 40083 57016 60001 82077 333 56066 82360 88270=
0214875530999992024010618004-34450-058583FM-12+000399999V0200201N005110600019N010000199+02791+02061100831ADDAA106000091GA1021+030001031GA2081+060001021GE19AGL   +99999+99999GF108991021999030001999999MA1999999100741MD1710161+9999REMSYN08287553 12960 80210 10279 20206 30074 40083 57016 60001 82077 333 56066 82360 88270=
0197875530999992024010619004-34450-058583FM-12+000399999V0203401N004110600019N010000199+03011+02181100791ADDGA1011+030001031GA2081+060001021GE19AGL   +99999+99999GF108991011999030001999999MA1999999100701MD1710171+9999REMSYN07687553 42960 83408 10301 20218 30070 40079 57017 81077 333 56066 81360 88270=
0197875530999992024010619004-34450-058583FM-12+000399999V0203401N004110600019N010000199+03011+02181100791ADDGA1011+030001031GA2081+060001021GE19AGL   +99999+99999GF108991011999030001999999MA1999999100701MD1710171+9999REMSYN07687553 42960 83408 10301 20218 30070 40079 57017 81077 333 56066 81360 88270=
0213875530999992024010620004-34450-058583FM-12+000399999V0203601N00361060001CN010000199+03041+02061100731ADDGA1011+010501081GA2061+060001021GA3999+999999021GE19AGL   +99999+99999GF106991011999010501999999MA1999999100641MD1710171+9999REMSYN07687553 42660 63607 10304 20206 30064 40073 57017 81176 333 56076 81835 86270=
0213875530999992024010620004-34450-058583FM-12+000399999V0203601N00361060001CN010000199+03041+02061100731ADDGA1011+010501081GA2061+060001021GA3999+999999021GE19AGL   +99999+99999GF106991011999010501999999MA1999999100641MD1710171+9999REMSYN07687553 42660 63607 10304 20206 30064 40073 57017 81176 333 56076 81835 86270=
0197875530999992024010622004-34450-058583FM-12+000399999V0203601N004112200019N010000199+02871+02011100681ADDGA1011+030001031GA2041+060001021GE19AGL   +99999+99999GF104991011999030001999999MA1999999100581MD1610121+9999REMSYN07687553 42960 43608 10287 20201 30058 40068 56012 81076 333 56066 81360 84270=
0197875530999992024010622004-34450-058583FM-12+000399999V0203601N004112200019N010000199+02871+02011100681ADDGA1011+030001031GA2041+060001021GE19AGL   +99999+99999GF104991011999030001999999MA1999999100581MD1610121+9999REMSYN07687553 42960 43608 10287 20201 30058 40068 56012 81076 333 56066 81360 84270=
0197875530999992024010623004-34450-058583FM-12+000399999V0203501N004112200019N010000199+02831+02041100721ADDGA1011+030001031GA2041+060001021GE19AGL   +99999+99999GF104991011999030001999999MA1999999100621MD1610011+9999REMSYN07687553 42960 43508 10283 20204 30062 40072 56001 81076 333 56066 81360 84270=
0197875530999992024010623004-34450-058583FM-12+000399999V0203501N004112200019N010000199+02831+02041100721ADDGA1011+030001031GA2041+060001021GE19AGL   +99999+99999GF104991011999030001999999MA1999999100621MD1610011+9999REMSYN07687553 42960 43508 10283 20204 30062 40072 56001 81076 333 56066 81360 84270=
0230875530999992024010700004-34450-058583FM-12+000399999V0203601N002612200019N010000199+02631+02121100741ADDAA106000091GA1031+060001021GE19AGL   +99999+99999GF103991031999060001999999KA1120M+03071KA2120N+02451MA1999999100651MD1310071+9999REMSYN08887553 12960 33605 10263 20212 30065 40074 53007 60001 80006 333 10307 20245 56006 83270=
0230875530999992024010700004-34450-058583FM-12+000399999V0203601N002612200019N010000199+02631+02121100741ADDAA106000091GA1031+060001021GE19AGL   +99999+99999GF103991031999060001999999KA1120M+03071KA2120N+02451MA1999999100651MD1310071+9999REMSYN08887553 12960 33605 10263 20212 30065 40074 53007 60001 80006 333 10307 20245 56006 83270=
0089875530999992024010701004-34450-058583FM-12+000399999V0203301N001519999999N010000199+02581+02131100881ADDGF100000MA1999999100781MD1310201+9999REMSYN04887553 42960 03303 10258 20213 30078 40088 53020=
0089875530999992024010702004-34450-058583FM-12+000399999V0203601N002619999999N010000199+02401+02101100741ADDGF100000MA1999999100651MD1990031+9999REMSYN04887553 42960 03605 10240 20210 30065 40074 50003=
0089875530999992024010704004-34450-058583FM-12+000399999V0200101N003119999999N010000199+02341+02161100731ADDGF100000MA1999999100641MD1510151+9999REMSYN04887553 42960 00106 10234 20216 30064 40073 55015=
0089875530999992024010705004-34450-058583FM-12+000399999V0202201N002119999999N010000199+02401+02131100781ADDGF100000MA1999999100691MD1310041+9999REMSYN04887553 42960 02204 10240 20213 30069 40078 53004=
0106875530999992024010706004-34450-058583FM-12+000399999V0202001N002119999999N010000199+02391+02041100781ADDGF100000AA106000091MA1999999100691MD1110081+9999REMSYN05487553 12960 02004 10239 20204 30069 40078 51008 60001=
0089875530999992024010707004-34450-058583FM-12+000399999V0201301N004119999999N010000199+02261+01851100731ADDGF100000MA1999999100641MD1990001+9999REMSYN04887553 42960 01308 10226 20185 30064 40073 50000=
0089875530999992024010708004-34450-058583FM-12+000399999V0201301N002119999999N010000199+02261+01981100781ADDGF100000MA1999999100691MD1510001+9999REMSYN04887553 42960 01304 10226 20198 30069 40078 55000=
0175875530999992024010710004-34450-058583FM-12+000399999V0200901N003612200019N010000199+02431+02071100821ADDGA1041+060001021GE19AGL   +99999+99999GF104991041999060001999999MA1999999100731MD1310091+9999REMSYN07087553 42960 40907 10243 20207 30073 40082 53009 80006 333 56006 84270=
0175875530999992024010710004-34450-058583FM-12+000399999V0200901N003612200019N010000199+02431+02071100821ADDGA1041+060001021GE19AGL   +99999+99999GF104991041999060001999999MA1999999100731MD1310091+9999REMSYN07087553 42960 40907 10243 20207 30073 40082 53009 80006 333 56006 84270=
0197875530999992024010711004-34450-058583FM-12+000399999V0200901N004110600019N010000199+02501+02061100841ADDGA1041+030001031GA2081+060001021GE19AGL   +99999+99999GF108991041999030001999999MA1999999100741MD1310051+9999REMSYN07687553 42960 80908 10250 20206 30074 40084 53005 84077 333 56077 84360 88270=
0197875530999992024010711004-34450-058583FM-12+000399999V0200901N004110600019N010000199+02501+02061100841ADDGA1041+030001031GA2081+060001021GE19AGL   +99999+99999GF108991041999030001999999MA1999999100741MD1310051+9999REMSYN07687553 42960 80908 10250 20206 30074 40084 53005 84077 333 56077 84360 88270=
0235875530999992024010712004-34450-058583FM-12+000399999V0200801N00511030001CN010000199+02541+02061100821ADDGA1051+030001031GA2071+060001021GE19AGL   +99999+99999GF107991051999030001999999KA1240M+02631KA2240N+02231MA1999999100731MD1990041+9999REMSYN08887553 32960 70810 10254 20206 30073 40082 50004 85076 333 10263 20223 56066 85360 87270=
0235875530999992024010712004-34450-058583FM-12+000399999V0200801N00511030001CN010000199+02541+02061100821ADDGA1051+030001031GA2071+060001021GE19AGL   +99999+99999GF107991051999030001999999KA1240M+02631KA2240N+02231MA1999999100731MD1990041+9999REMSYN08887553 32960 70810 10254 20206 30073 40082 50004 85076 333 10263 20223 56066 85360 87270=
0216875530999992024010713004-34450-058583FM-12+000399999V0200801N00461999999CN010000199+02681+02051100861ADDGA1031+030001031GA2041+060001021GE19AGL   +99999+99999GF104991031999030001999999MA1999999100771MD1310041+9999REMSYN07687553 42960 40809 10268 20205 30077 40086 53004 83076 333 56066 83360 84270=EQDQ01 060003SCOCIG
0216875530999992024010713004-34450-058583FM-12+000399999V0200801N00461999999CN010000199+02681+02051100861ADDGA1031+030001031GA2041+060001021GE19AGL   +99999+99999GF104991031999030001999999MA1999999100771MD1310041+9999REMSYN07687553 42960 40809 10268 20205 30077 40086 53004 83076 333 56066 83360 84270=EQDQ01 060003SCOCIG
0216875530999992024010714004-34450-058583FM-12+000399999V0209999V00411999999CN010000199+02851+02081100841ADDGA1021+009001081GA2041+060001021GE19AGL   +99999+99999GF104991021999009001999999MA1999999100741MD1410001+9999REMSYN07687553 42560 49908 10285 20208 30074 40084 54000 82106 333 56206 82830 84270=EQDQ01 060003SCOCIG
0216875530999992024010714004-34450-058583FM-12+000399999V0209999V00411999999CN010000199+02851+02081100841ADDGA1021+009001081GA2041+060001021GE19AGL   +99999+99999GF104991021999009001999999MA1999999100741MD1410001+9999REMSYN07687553 42560 49908 10285 20208 30074 40084 54000 82106 333 56206 82830 84270=EQDQ01 060003SCOCIG
0213875530999992024010716004-34450-058583FM-12+000399999V0209999V00261030001CN010000199+03041+01901100751ADDGA1041+010501081GA2041+030001031GA3999+999999021GE19AGL   +99999+99999GF105991041999010501999999MA1999999100661MD1710111+9999REMSYN07687553 42660 59905 10304 20190 30066 40075 57011 84176 333 56166 84835 84360=
0213875530999992024010716004-34450-058583FM-12+000399999V0209999V00261030001CN010000199+03041+01901100751ADDGA1041+010501081GA2041+030001031GA3999+999999021GE19AGL   +99999+99999GF105991041999010501999999MA1999999100661MD1710111+9999REMSYN07687553 42660 59905 10304 20190 30066 40075 57011 84176 333 56166 84835 84360=
0222875530999992024010717004-34450-058583FM-12+000399999V0200901N00461999999CN010000199+03021+01971100681ADDGA1041+012001081GA2021+013501081GE19AGL   +99999+99999GF104991041999012001999999MA1999999100581MD1710161+9999REMSYN08287553 42660 40909 10302 20197 30058 40068 57016 84201 333 56009 57854 84840 82845=EQDQ01 013503SCOCIG
0222875530999992024010717004-34450-058583FM-12+000399999V0200901N00461999999CN010000199+03021+01971100681ADDGA1041+012001081GA2021+013501081GE19AGL   +99999+99999GF104991041999012001999999MA1999999100581MD1710161+9999REMSYN08287553 42660 40909 10302 20197 30058 40068 57016 84201 333 56009 57854 84840 82845=EQDQ01 013503SCOCIG
0214875530999992024010718004-34450-058583FM-12+000399999V0200901N00511030001CN010000199+03011+01991100571ADDAA106000091GA1041+012001081GA2041+030001031GE19AGL   +99999+99999GF105991041999012001999999MA1999999100481MD1710211+9999REMSYN08287553 12660 50910 10301 20199 30048 40057 57021 60001 84170 333 56260 84840 84360=
0214875530999992024010718004-34450-058583FM-12+000399999V0200901N00511030001CN010000199+03011+01991100571ADDAA106000091GA1041+012001081GA2041+030001031GE19AGL   +99999+99999GF105991041999012001999999MA1999999100481MD1710211+9999REMSYN08287553 12660 50910 10301 20199 30048 40057 57021 60001 84170 333 56260 84840 84360=
0275875530999992024010719004-34450-058583FM-12+000399999V0200901N00461015001CN009000199+02811+01871100471ADDAY191021AY261021GA1041+013501081GA2021+015001091GA3051+030001031GA4071+060001021GE19AGL   +99999+99999GF107991041999013501999999MA1999999100381MD1710281+9999MW1951REMSYN10087553 41659 70909 10281 20187 30038 40047 57028 79596 84976 333 56266 57900 84845 82950 85360 87270=
0275875530999992024010719004-34450-058583FM-12+000399999V0200901N00461015001CN009000199+02811+01871100471ADDAY191021AY261021GA1041+013501081GA2021+015001091GA3051+030001031GA4071+060001021GE19AGL   +99999+99999GF107991041999013501999999MA1999999100381MD1710281+9999MW1951REMSYN10087553 41659 70909 10281 20187 30038 40047 57028 79596 84976 333 56266 57900 84845 82950 85360 87270=
0231875530999992024010720004-34450-058583FM-12+000399999V0202201N01081015001CN001500199+02051+01881100591ADDAY191021AY261021GA1041+003901071GA2031+015001091GE19AGL   +99999+99999GF108991041999003901999999MA1999999100501MD1510081+9999MW1971REMSYN08887553 41415 82221 10205 20188 30050 40059 55008 79796 889// 333 56500 57920 84713 83950=
0231875530999992024010720004-34450-058583FM-12+000399999V0202201N01081015001CN001500199+02051+01881100591ADDAY191021AY261021GA1041+003901071GA2031+015001091GE19AGL   +99999+99999GF108991041999003901999999MA1999999100501MD1510081+9999MW1971REMSYN08887553 41415 82221 10205 20188 30050 40059 55008 79796 889// 333 56500 57920 84713 83950=
0247875530999992024010722004-34450-058583FM-12+000399999V0200301N00261030001CN009000199+01991+01881100651ADDAY191021AY261021GA1031+013501061GA2051+030001031GA3081+060001021GE19AGL   +99999+99999GF108991031999013501999999MA1999999100561MD1310171+9999MW1911REMSYN08887553 41659 80305 10199 20188 30056 40065 53017 79196 83576 333 56266 83645 85360 88270=
0247875530999992024010722004-34450-058583FM-12+000399999V0200301N00261030001CN009000199+01991+01881100651ADDAY191021AY261021GA1031+013501061GA2051+030001031GA3081+060001021GE19AGL   +99999+99999GF108991031999013501999999MA1999999100561MD1310171+9999MW1911REMSYN08887553 41659 80305 10199 20188 30056 40065 53017 79196 83576 333 56266 83645 85360 88270=
0225875530999992024010723004-34450-058583FM-12+000399999V0200101N003110300019N008000199+02021+01861100771ADDAY191021AY261021GA1021+013501061GA2081+030001031GE19AGL   +99999+99999GF108991021999013501999999MA1999999100681MD1310171+9999MW1601REMSYN08287553 41658 80106 10202 20186 30068 40077 53017 76096 8257/ 333 56169 82645 88360=
0225875530999992024010723004-34450-058583FM-12+000399999V0200101N003110300019N008000199+02021+01861100771ADDAY191021AY261021GA1021+013501061GA2081+030001031GE19AGL   +99999+99999GF108991021999013501999999MA1999999100681MD1310171+9999MW1601REMSYN08287553 41658 80106 10202 20186 30068 40077 53017 76096 8257/ 333 56169 82645 88360=
0280875530999992024010800004-34450-058583FM-12+000399999V0202101N007210300019N008000199+02091+01901100821ADDAA106019031AY191021AY261021GA1021+004201061GA2081+030001031GE19AGL   +99999+99999GF108991021999004201999999KA1120M+03151KA2120N+01981MA1999999100731MD1310231+9999MW1601REMSYN10087553 11458 82114 10209 20190 30073 40082 53023 60191 76096 8257/ 333 10315 20198 56569 82614 88360=
0280875530999992024010800004-34450-058583FM-12+000399999V0202101N007210300019N008000199+02091+01901100821ADDAA106019031AY191021AY261021GA1021+004201061GA2081+030001031GE19AGL   +99999+99999GF108991021999004201999999KA1120M+03151KA2120N+01981MA1999999100731MD1310231+9999MW1601REMSYN10087553 11458 82114 10209 20190 30073 40082 53023 60191 76096 8257/ 333 10315 20198 56569 82614 88360=
0225875530999992024010801004-34450-058583FM-12+000399999V0201701N004610300019N010000199+02151+01821100921ADDAY161021AY221021GA1031+009901061GA2081+030001031GE19AGL   +99999+99999GF108991031999009901999999MA1999999100821MD1310271+9999MW1211REMSYN08287553 41560 81709 10215 20182 30082 40092 53027 72162 8357/ 333 56469 83633 88360=
0225875530999992024010801004-34450-058583FM-12+000399999V0201701N004610300019N010000199+02151+01821100921ADDAY161021AY221021GA1031+009901061GA2081+030001031GE19AGL   +99999+99999GF108991031999009901999999MA1999999100821MD1310271+9999MW1211REMSYN08287553 41560 81709 10215 20182 30082 40092 53027 72162 8357/ 333 56469 83633 88360=
0203875530999992024010802004-34450-058583FM-12+000399999V0201201N00261030001CN010000199+02101+01701100951ADDAY161021AY221021GA1081+030001031GE19AGL   +99999+99999GF108991081999030001999999MA1999999100861MD1110191+9999MW1211REMSYN07687553 41960 81205 10210 20170 30086 40095 51019 72162 8807/ 333 56069 88360=
0203875530999992024010802004-34450-058583FM-12+000399999V0201201N00261030001CN010000199+02101+01701100951ADDAY161021AY221021GA1081+030001031GE19AGL   +99999+99999GF108991081999030001999999MA1999999100861MD1110191+9999MW1211REMSYN07687553 41960 81205 10210 20170 30086 40095 51019 72162 8807/ 333 56069 88360=
0225875530999992024010804004-34450-058583FM-12+000399999V0200201N002110300019N009000199+01921+01811100741ADDAY161021AY221021GA1021+012001061GA2081+030001031GE19AGL   +99999+99999GF108991021999012001999999MA1999999100651MD1810171+9999MW1601REMSYN08287553 41659 80204 10192 20181 30065 40074 58017 76062 8257/ 333 56169 82640 88360=
0225875530999992024010804004-34450-058583FM-12+000399999V0200201N002110300019N009000199+01921+01811100741ADDAY161021AY221021GA1021+012001061GA2081+030001031GE19AGL   +99999+99999GF108991021999012001999999MA1999999100651MD1810171+9999MW1601REMSYN08287553 41659 80204 10192 20181 30065 40074 58017 76062 8257/ 333 56169 82640 88360=
0220875530999992024010806004-34450-058583FM-12+000399999V0203601N001512200019N010000199+01931+01831100681ADDAA106000021AY161021AY211021GA1021+030001031GE19AGL   +99999+99999GF102991021999030001999999MA1999999100581MD1510371+9999MW1011REMSYN08287553 11960 23603 10193 20183 30058 40068 55037 69901 70161 82070 333 56060 82360=
0220875530999992024010806004-34450-058583FM-12+000399999V0203601N001512200019N010000199+01931+01831100681ADDAA106000021AY161021AY211021GA1021+030001031GE19AGL   +99999+99999GF102991021999030001999999MA1999999100581MD1510371+9999MW1011REMSYN08287553 11960 23603 10193 20183 30058 40068 55037 69901 70161 82070 333 56060 82360=
0117875530999992024010807004-34450-058583FM-12+000399999V0209999C000019999999N008000199+01811+01791100611ADDGF100000AY141021AY211021MA1999999100521MD1610131+9999MW1111REMSYN05487553 41958 00000 10181 20179 30052 40061 56013 71141=
0117875530999992024010808004-34450-058583FM-12+000399999V0209999V001019999999N010000199+01841+01821100681ADDGF100000AY141021AY221021MA1999999100581MD1310041+9999MW1021REMSYN05487553 41960 09902 10184 20182 30058 40068 53004 70242=
0203875530999992024010810004-34450-058583FM-12+000399999V0202301N002112200019N010000199+01871+01791100921ADDAY141021AY221021GA1031+060001001GE19AGL   +99999+99999GF103991031999060001999999MA1999999100821MD1210311+9999MW1021REMSYN07687553 41960 32304 10187 20179 30082 40092 52031 70242 80004 333 56009 83070=
0203875530999992024010810004-34450-058583FM-12+000399999V0202301N002112200019N010000199+01871+01791100921ADDAY141021AY221021GA1031+060001001GE19AGL   +99999+99999GF103991031999060001999999MA1999999100821MD1210311+9999MW1021REMSYN07687553 41960 32304 10187 20179 30082 40092 52031 70242 80004 333 56009 83070=
0175875530999992024010811004-34450-058583FM-12+000399999V0202101N001512200019N010000199+02051+01911100981ADDGA1011+060001001GE19AGL   +99999+99999GF101991011999060001999999MA1999999100891MD1110311+9999REMSYN07087553 42960 12103 10205 20191 30089 40098 51031 80002 333 56006 81070=
0175875530999992024010811004-34450-058583FM-12+000399999V0202101N001512200019N010000199+02051+01911100981ADDGA1011+060001001GE19AGL   +99999+99999GF101991011999060001999999MA1999999100891MD1110311+9999REMSYN07087553 42960 12103 10205 20191 30089 40098 51031 80002 333 56006 81070=
0258875530999992024010812004-34450-058583FM-12+000399999V0202001N002112200019N010000199+02341+01891100981ADDAA124019031AY141021AY201021GA1011+060001001GE19AGL   +99999+99999GF101991011999060001999999KA1240M+02341KA2240N+01571MA1999999100891MD1110191+9999MW1021REMSYN09487553 11960 12004 10234 20189 30089 40098 51019 60194 70240 80002 333 10234 20157 56006 81070=
0258875530999992024010812004-34450-058583FM-12+000399999V0202001N002112200019N010000199+02341+01891100981ADDAA124019031AY141021AY201021GA1011+060001001GE19AGL   +99999+99999GF101991011999060001999999KA1240M+02341KA2240N+01571MA1999999100891MD1110191+9999MW1021REMSYN09487553 11960 12004 10234 20189 30089 40098 51019 60194 70240 80002 333 10234 20157 56006 81070=
0175875530999992024010813004-34450-058583FM-12+000399999V0202301N002612200019N010000199+02471+01881101001ADDGA1011+060001001GE19AGL   +99999+99999GF101991011999060001999999MA1999999100901MD1310081+9999REMSYN07087553 42960 12305 10247 20188 30090 40100 53008 80002 333 56006 81070=
0175875530999992024010813004-34450-058583FM-12+000399999V0202301N002612200019N010000199+02471+01881101001ADDGA1011+060001001GE19AGL   +99999+99999GF101991011999060001999999MA1999999100901MD1310081+9999REMSYN07087553 42960 12305 10247 20188 30090 40100 53008 80002 333 56006 81070=
0089875530999992024010814004-34450-058583FM-12+000399999V0202201N003119999999N010000199+02641+01891100971ADDGF100000MA1999999100881MD1810011+9999REMSYN04887553 42960 02206 10264 20189 30088 40097 58001=
0089875530999992024010816004-34450-058583FM-12+000399999V0209999V002119999999N010000199+02941+01641100861ADDGF100000MA1999999100771MD1810131+9999REMSYN04887553 42960 09904 10294 20164 30077 40086 58013=
0175875530999992024010817004-34450-058583FM-12+000399999V0202101N004112200019N010000199+02981+01661100851ADDGA1011+012001081GE19AGL   +99999+99999GF101991011999012001999999MA1999999100761MD1610121+9999REMSYN07087553 42660 12108 10298 20166 30076 40085 56012 81100 333 56000 81840=
0175875530999992024010817004-34450-058583FM-12+000399999V0202101N004112200019N010000199+02981+01661100851ADDGA1011+012001081GE19AGL   +99999+99999GF101991011999012001999999MA1999999100761MD1610121+9999REMSYN07087553 42660 12108 10298 20166 30076 40085 56012 81100 333 56000 81840=
0192875530999992024010818004-34450-058583FM-12+000399999V0202301N003112200019N010000199+03031+01561100831ADDAA106000091GA1011+015001081GE19AGL   +99999+99999GF101991011999015001999999MA1999999100741MD1610081+9999REMSYN07687553 12760 12306 10303 20156 30074 40083 56008 60001 81100 333 56000 81850=
0192875530999992024010818004-34450-058583FM-12+000399999V0202301N003112200019N010000199+03031+01561100831ADDAA106000091GA1011+015001081GE19AGL   +99999+99999GF101991011999015001999999MA1999999100741MD1610081+9999REMSYN07687553 12760 12306 10303 20156 30074 40083 56008 60001 81100 333 56000 81850=
0175875530999992024010819004-34450-058583FM-12+000399999V0202701N002612200019N010000199+03131+01451100801ADDGA1011+015001081GE19AGL   +99999+99999GF101991011999015001999999MA1999999100701MD1810071+9999REMSYN07087553 42760 12705 10313 20145 30070 40080 58007 81100 333 56000 81850=
0175875530999992024010819004-34450-058583FM-12+000399999V0202701N002612200019N010000199+03131+01451100801ADDGA1011+015001081GE19AGL   +99999+99999GF101991011999015001999999MA1999999100701MD1810071+9999REMSYN07087553 42760 12705 10313 20145 30070 40080 58007 81100 333 56000 81850=
0191875530999992024010820004-34450-058583FM-12+000399999V0209999V001512200019N010000199+03081+01881100791ADDGA1011+015001081GA2999+999999001GE19AGL   +99999+99999GF101991011999015001999999MA1999999100701MD1610051+9999REMSYN07087553 42760 19903 10308 20188 30070 40079 56005 81104 333 56006 81850=
0191875530999992024010820004-34450-058583FM-12+000399999V0209999V001512200019N010000199+03081+01881100791ADDGA1011+015001081GA2999+999999001GE19AGL   +99999+99999GF101991011999015001999999MA1999999100701MD1610051+9999REMSYN07087553 42760 19903 10308 20188 30070 40079 56005 81104 333 56006 81850=
0191875530999992024010822004-34450-058583FM-12+000399999V0200601N004612200019N010000199+02851+01941100801ADDGA1011+030001031GA2999+999999001GE19AGL   +99999+99999GF101991011999030001999999MA1999999100701MD1510001+9999REMSYN07087553 42960 10609 10285 20194 30070 40080 55000 81054 333 56066 81360=
0191875530999992024010822004-34450-058583FM-12+000399999V0200601N004612200019N010000199+02851+01941100801ADDGA1011+030001031GA2999+999999001GE19AGL   +99999+99999GF101991011999030001999999MA1999999100701MD1510001+9999REMSYN07087553 42960 10609 10285 20194 30070 40080 55000 81054 333 56066 81360=
0191875530999992024010823004-34450-058583FM-12+000399999V0200601N004112200019N010000199+02661+02011100841ADDGA1011+030001031GA2999+999999001GE19AGL   +99999+99999GF101991011999030001999999MA1999999100741MD1310041+9999REMSYN07087553 42960 10608 10266 20201 30074 40084 53004 81054 333 56066 81360=
0191875530999992024010823004-34450-058583FM-12+000399999V0200601N004112200019N010000199+02661+02011100841ADDGA1011+030001031GA2999+999999001GE19AGL   +99999+99999GF101991011999030001999999MA1999999100741MD1310041+9999REMSYN07087553 42960 10608 10266 20201 30074 40084 53004 81054 333 56066 81360=
0230875530999992024010900004-34450-058583FM-12+000399999V0200301N001512200019N010000199+02521+01871100941ADDAA106000091GA1011+060001021GE19AGL   +99999+99999GF101991011999060001999999KA1120M+03171KA2120N+02341MA1999999100851MD1210191+9999REMSYN08887553 12960 10303 10252 20187 30085 40094 52019 60001 80008 333 10317 20234 56007 81270=
0230875530999992024010900004-34450-058583FM-12+000399999V0200301N001512200019N010000199+02521+01871100941ADDAA106000091GA1011+060001021GE19AGL   +99999+99999GF101991011999060001999999KA1120M+03171KA2120N+02341MA1999999100851MD1210191+9999REMSYN08887553 12960 10303 10252 20187 30085 40094 52019 60001 80008 333 10317 20234 56007 81270=
0089875530999992024010901004-34450-058583FM-12+000399999V0203601N001019999999N010000199+02421+01931100991ADDGF100000MA1999999100901MD1210201+9999REMSYN04887553 42960 03602 10242 20193 30090 40099 52020=
0089875530999992024010902004-34450-058583FM-12+000399999V0209999C000019999999N010000199+02371+01891101031ADDGF100000MA1999999100941MD1210201+9999REMSYN04887553 42960 00000 10237 20189 30094 40103 52020=
0089875530999992024010904004-34450-058583FM-12+000399999V0200601N001519999999N010000199+02301+01901101011ADDGF100000MA1999999100921MD1210011+9999REMSYN04887553 42960 00603 10230 20190 30092 40101 52001=
0089875530999992024010905004-34450-058583FM-12+000399999V0209999C000019999999N010000199+02101+01781100971ADDGF100000MA1999999100881MD1710071+9999REMSYN04887553 42960 00000 10210 20178 30088 40097 57007=
0106875530999992024010906004-34450-058583FM-12+000399999V0200501N000519999999N010000199+02101+01781100991ADDGF100000AA106000091MA1999999100901MD1710011+9999REMSYN05487553 12960 00501 10210 20178 30090 40099 57001 60001=
0089875530999992024010907004-34450-058583FM-12+000399999V0209999C000019999999N010000199+02211+01881101031ADDGF100000MA1999999100941MD1210031+9999REMSYN04887553 42960 00000 10221 20188 30094 40103 52003=
0089875530999992024010908004-34450-058583FM-12+000399999V0209999C000019999999N010000199+02061+01811101051ADDGF100000MA1999999100961MD1210081+9999REMSYN04887553 42960 00000 10206 20181 30096 40105 52008=
0089875530999992024010910004-34450-058583FM-12+000399999V0209999C000019999999N010000199+02371+01951101061ADDGF100000MA1999999100971MD1210031+9999REMSYN04887553 42960 00000 10237 20195 30097 40106 52003=
0089875530999992024010911004-34450-058583FM-12+000399999V0200401N003119999999N010000199+02501+01861101071ADDGF100000MA1999999100981MD1110031+9999REMSYN04887553 42960 00406 10250 20186 30098 40107 51003=
0213875530999992024010912004-34450-058583FM-12+000399999V0200301N003112200019N010000199+02691+01891101081ADDGA1011+060001001GE19AGL   +99999+99999GF101991011999060001999999KA1240M+02711KA2240N+01871MA1999999100981MD1110051+9999REMSYN08287553 32960 10306 10269 20189 30098 40108 51005 80001 333 10271 20187 56006 81070=
0213875530999992024010912004-34450-058583FM-12+000399999V0200301N003112200019N010000199+02691+01891101081ADDGA1011+060001001GE19AGL   +99999+99999GF101991011999060001999999KA1240M+02711KA2240N+01871MA1999999100981MD1110051+9999REMSYN08287553 32960 10306 10269 20189 30098 40108 51005 80001 333 10271 20187 56006 81070=
0175875530999992024010913004-34450-058583FM-12+000399999V0200301N003612200019N010000199+02861+02041101101ADDGA1031+060001001GE19AGL   +99999+99999GF103991031999060001999999MA1999999101011MD1210041+9999REMSYN07087553 42960 30307 10286 20204 30101 40110 52004 80002 333 56006 83070=
0175875530999992024010913004-34450-058583FM-12+000399999V0200301N003612200019N010000199+02861+02041101101ADDGA1031+060001001GE19AGL   +99999+99999GF103991031999060001999999MA1999999101011MD1210041+9999REMSYN07087553 42960 30307 10286 20204 30101 40110 52004 80002 333 56006 83070=
0175875530999992024010914004-34450-058583FM-12+000399999V0203501N004612200019N010000199+03011+01991101131ADDGA1031+060001021GE19AGL   +99999+99999GF103991031999060001999999MA1999999101041MD1210051+9999REMSYN07087553 42960 33509 10301 20199 30104 40113 52005 80006 333 56006 83270=
0175875530999992024010914004-34450-058583FM-12+000399999V0203501N004612200019N010000199+03011+01991101131ADDGA1031+060001021GE19AGL   +99999+99999GF103991031999060001999999MA1999999101041MD1210051+9999REMSYN07087553 42960 33509 10301 20199 30104 40113 52005 80006 333 56006 83270=
0197875530999992024010916004-34450-058583FM-12+000399999V0200701N003112200019N010000199+03111+01841101061ADDGA1021+013501081GA2031+060001021GE19AGL   +99999+99999GF103991021999013501999999MA1999999100971MD1810041+9999REMSYN07687553 42660 30706 10311 20184 30097 40106 58004 82106 333 56106 82845 83270=
0197875530999992024010916004-34450-058583FM-12+000399999V0200701N003112200019N010000199+03111+01841101061ADDGA1021+013501081GA2031+060001021GE19AGL   +99999+99999GF103991021999013501999999MA1999999100971MD1810041+9999REMSYN07687553 42660 30706 10311 20184 30097 40106 58004 82106 333 56106 82845 83270=
0191875530999992024010917004-34450-058583FM-12+000399999V0203401N003612200019N010000199+03211+01821101051ADDGA1031+015001081GA2999+999999021GE19AGL   +99999+99999GF103991031999015001999999MA1999999100961MD1710081+9999REMSYN07087553 42760 33407 10321 20182 30096 40105 57008 83105 333 56106 83850=
0191875530999992024010917004-34450-058583FM-12+000399999V0203401N003612200019N010000199+03211+01821101051ADDGA1031+015001081GA2999+999999021GE19AGL   +99999+99999GF103991031999015001999999MA1999999100961MD1710081+9999REMSYN07087553 42760 33407 10321 20182 30096 40105 57008 83105 333 56106 83850=
0239875530999992024010918004-34450-058583FM-12+000399999V0203401N00211999999CN010000199+03281+01911100961ADDAA106000091GA1041+015001081GA2041+060001021GE19AGL   +99999+99999GF104991041999015001999999MA1999999100861MD1810151+9999REMSYN08887553 12760 43404 10328 20191 30086 40096 58015 60001 84205 333 56106 57848 84850 84270=EQDQ01 060003SCOCIG
0239875530999992024010918004-34450-058583FM-12+000399999V0203401N00211999999CN010000199+03281+01911100961ADDAA106000091GA1041+015001081GA2041+060001021GE19AGL   +99999+99999GF104991041999015001999999MA1999999100861MD1810151+9999REMSYN08887553 12760 43404 10328 20191 30086 40096 58015 60001 84205 333 56106 57848 84850 84270=EQDQ01 060003SCOCIG
0197875530999992024010919004-34450-058583FM-12+000399999V0200801N00361060001CN010000199+03061+01931100921ADDGA1021+015001081GA2061+060001021GE19AGL   +99999+99999GF106991021999015001999999MA1999999100821MD1810151+9999REMSYN07687553 42760 60807 10306 20193 30082 40092 58015 82106 333 56209 82850 86270=
0197875530999992024010919004-34450-058583FM-12+000399999V0200801N00361060001CN010000199+03061+01931100921ADDGA1021+015001081GA2061+060001021GE19AGL   +99999+99999GF106991021999015001999999MA1999999100821MD1810151+9999REMSYN07687553 42760 60807 10306 20193 30082 40092 58015 82106 333 56209 82850 86270=
0197875530999992024010920004-34450-058583FM-12+000399999V0200801N00211060001CN010000199+02981+01941100851ADDGA1011+015001081GA2071+060001021GE19AGL   +99999+99999GF107991011999015001999999MA1999999100761MD1810201+9999REMSYN07687553 42760 70804 10298 20194 30076 40085 58020 81106 333 56209 81850 87270=
0197875530999992024010920004-34450-058583FM-12+000399999V0200801N00211060001CN010000199+02981+01941100851ADDGA1011+015001081GA2071+060001021GE19AGL   +99999+99999GF107991011999015001999999MA1999999100761MD1810201+9999REMSYN07687553 42760 70804 10298 20194 30076 40085 58020 81106 333 56209 81850 87270=
0219875530999992024010922004-34450-058583FM-12+000399999V0200801N00261030001CN010000199+02971+02051100831ADDGA1011+015001081GA2061+030001031GA3061+060001021GE19AGL   +99999+99999GF106991011999015001999999MA1999999100741MD1510081+9999REMSYN08287553 42760 60805 10297 20205 30074 40083 55008 81176 333 56269 81850 86360 86270=
0219875530999992024010922004-34450-058583FM-12+000399999V0200801N00261030001CN010000199+02971+02051100831ADDGA1011+015001081GA2061+030001031GA3061+060001021GE19AGL   +99999+99999GF106991011999015001999999MA1999999100741MD1510081+9999REMSYN08287553 42760 60805 10297 20205 30074 40083 55008 81176 333 56269 81850 86360 86270=
0197875530999992024010923004-34450-058583FM-12+000399999V0200701N00311060001CN010000199+02741+02101100851ADDGA1021+030001031GA2051+060001021GE19AGL   +99999+99999GF105991021999030001999999MA1999999100761MD1990001+9999REMSYN07687553 42960 50706 10274 20210 30076 40085 50000 82076 333 56069 82360 85270=
0197875530999992024010923004-34450-058583FM-12+000399999V0200701N00311060001CN010000199+02741+02101100851ADDGA1021+030001031GA2051+060001021GE19AGL   +99999+99999GF105991021999030001999999MA1999999100761MD1990001+9999REMSYN07687553 42960 50706 10274 20210 30076 40085 50000 82076 333 56069 82360 85270=
0230875530999992024011000004-34450-058583FM-12+000399999V0201101N001512200019N010000199+02751+02081100911ADDAA106000091GA1021+030001031GE19AGL   +99999+99999GF102991021999030001999999KA1120M+03281KA2120N+02661MA1999999100821MD1210121+9999REMSYN08887553 12960 21103 10275 20208 30082 40091 52012 60001 82070 333 10328 20266 56070 82360=
0230875530999992024011000004-34450-058583FM-12+000399999V0201101N001512200019N010000199+02751+02081100911ADDAA106000091GA1021+030001031GE19AGL   +99999+99999GF102991021999030001999999KA1120M+03281KA2120N+02661MA1999999100821MD1210121+9999REMSYN08887553 12960 21103 10275 20208 30082 40091 52012 60001 82070 333 10328 20266 56070 82360=
0175875530999992024011001004-34450-058583FM-12+000399999V0200501N001012200019N010000199+02491+02051100961ADDGA1011+030001031GE19AGL   +99999+99999GF101991011999030001999999MA1999999100861MD1210121+9999REMSYN07087553 42960 10502 10249 20205 30086 40096 52012 81070 333 56060 81360=
0175875530999992024011001004-34450-058583FM-12+000399999V0200501N001012200019N010000199+02491+02051100961ADDGA1011+030001031GE19AGL   +99999+99999GF101991011999030001999999MA1999999100861MD1210121+9999REMSYN07087553 42960 10502 10249 20205 30086 40096 52012 81070 333 56060 81360=
0089875530999992024011002004-34450-058583FM-12+000399999V0200601N001519999999N010000199+02531+02191100991ADDGF100000MA1999999100901MD1210151+9999REMSYN04887553 42960 00603 10253 20219 30090 40099 52015=
0089875530999992024011004004-34450-058583FM-12+000399999V0200801N001519999999N010000199+02421+02241100991ADDGF100000MA1999999100901MD1210041+9999REMSYN04887553 42960 00803 10242 20224 30090 40099 52004=
0089875530999992024011005004-34450-058583FM-12+000399999V0209999C000019999999N010000199+02351+02191100951ADDGF100000MA1999999100861MD1710041+9999REMSYN04887553 42960 00000 10235 20219 30086 40095 57004=
0106875530999992024011006004-34450-058583FM-12+000399999V0202101N004119999999N010000199+02471+02191100901ADDGF100000AA106000091MA1999999100811MD1710091+9999REMSYN05487553 12960 02108 10247 20219 30081 40090 57009 60001=
0089875530999992024011007004-34450-058583FM-12+000399999V0202001N002619999999N010000199+02431+01991100931ADDGF100000MA1999999100841MD1710071+9999REMSYN04887553 42960 02005 10243 20199 30084 40093 57007=
0089875530999992024011008004-34450-058583FM-12+000399999V0201301N005119999999N010000199+02381+01851100911ADDGF100000MA1999999100821MD1710041+9999REMSYN04887553 42960 01310 10238 20185 30082 40091 57004=
0197875530999992024011010004-34450-058583FM-12+000399999V0201201N00411060001CN010000199+02491+02211100961ADDGA1021+004801061GA2061+060001021GE19AGL   +99999+99999GF106991021999004801999999MA1999999100861MD1210031+9999REMSYN07687553 42460 61208 10249 20221 30086 40096 52003 82507 333 56306 82616 86270=
0197875530999992024011010004-34450-058583FM-12+000399999V0201201N00411060001CN010000199+02491+02211100961ADDGA1021+004801061GA2061+060001021GE19AGL   +99999+99999GF106991021999004801999999MA1999999100861MD1210031+9999REMSYN07687553 42460 61208 10249 20221 30086 40096 52003 82507 333 56306 82616 86270=
0197875530999992024011011004-34450-058583FM-12+000399999V0201101N00571009001CN010000199+02641+02201100981ADDGA1021+005101061GA2031+009001081GE19AGL   +99999+99999GF105991021999005101999999MA1999999100891MD1210071+9999REMSYN07687553 42460 51111 10264 20220 30089 40098 52007 85808 333 56307 82617 83830=
0197875530999992024011011004-34450-058583FM-12+000399999V0201101N00571009001CN010000199+02641+02201100981ADDGA1021+005101061GA2031+009001081GE19AGL   +99999+99999GF105991021999005101999999MA1999999100891MD1210071+9999REMSYN07687553 42460 51111 10264 20220 30089 40098 52007 85808 333 56307 82617 83830=
0251875530999992024011012004-34450-058583FM-12+000399999V0201201N004612200019N010000199+02731+02221100991ADDGA1011+005701081GA2031+060001021GA3999+999999021GE19AGL   +99999+99999GF104991011999005701999999KA1240M+02751KA2240N+02321MA1999999100901MD1310041+9999REMSYN08887553 32460 41209 10273 20222 30090 40099 53004 82856 333 10275 20232 56377 81819 83270=
0251875530999992024011012004-34450-058583FM-12+000399999V0201201N004612200019N010000199+02731+02221100991ADDGA1011+005701081GA2031+060001021GA3999+999999021GE19AGL   +99999+99999GF104991011999005701999999KA1240M+02751KA2240N+02321MA1999999100901MD1310041+9999REMSYN08887553 32460 41209 10273 20222 30090 40099 53004 82856 333 10275 20232 56377 81819 83270=
0213875530999992024011013004-34450-058583FM-12+000399999V0201101N005119999999N010000199+02721+02251101011ADDGA1011+006001081GA2031+030001031GA3999+999999011GE19AGL   +99999+99999GF105991011999006001999999MA1999999100921MD1110051+9999REMSYN07687553 42560 51110 10272 20225 30092 40101 51005 82859 333 56277 81820 83360=
0213875530999992024011013004-34450-058583FM-12+000399999V0201101N005119999999N010000199+02721+02251101011ADDGA1011+006001081GA2031+030001031GA3999+999999011GE19AGL   +99999+99999GF105991011999006001999999MA1999999100921MD1110051+9999REMSYN07687553 42560 51110 10272 20225 30092 40101 51005 82859 333 56277 81820 83360=
0213875530999992024011014004-34450-058583FM-12+000399999V0201101N004612200019N010000199+02931+02151101041ADDGA1011+005701081GA2031+060001021GA3999+999999021GE19AGL   +99999+99999GF103991011999005701999999MA1999999100941MD1310051+9999REMSYN07687553 42460 31109 10293 20215 30094 40104 53005 81886 333 56277 81819 83270=
