0124875760999992021010100004-34467-058517FM-12+002099999V0203401N0015122000199010000199+02601+00621101151ADDAA101999999AZ101061AZ201061GF100991999999999999999999KA1120M+03031KA2120N+01751MA1999999100921MD1210051+9999REMSYN004BUFR
0089875760999992021010101004-34817-058533FM-12+002099999V0203401N001519999999N010000199+02501+00741101201ADDMA1999999100971MD1210081+9999REMSYN04887576 42960 03403 10250 20074 30097 40120 52008=
0089875760999992021010102004-34817-058533FM-12+002099999V0203401N003619999999N010000199+02701+00371101261ADDMA1999999101021MD1210121+9999REMSYN04887576 42960 03407 10270 20037 30102 40126 52012=
0089875760999992021010103004-34817-058533FM-12+002099999V0203401N003119999999N010000199+02261+00941101281ADDMA1999999101051MD1210131+9999REMSYN04887576 42960 03406 10226 20094 30105 40128 52013=
0089875760999992021010104004-34817-058533FM-12+002099999V0203401N003619999999N010000199+02221+00931101271ADDMA1999999101041MD1990071+9999REMSYN04887576 42960 03407 10222 20093 30104 40127 50007=
0089875760999992021010105004-34817-058533FM-12+002099999V0203401N003619999999N010000199+02181+00931101221ADDMA1999999100981MD1810041+9999REMSYN04887576 42960 03407 10218 20093 30098 40122 58004=
0089875760999992021010106004-34817-058533FM-12+002099999V0203401N004119999999N010000199+02101+00911101211ADDMA1999999100981MD1610071+9999REMSYN04887576 32960 03408 10210 20091 30098 40121 56007=
0089875760999992021010107004-34817-058533FM-12+002099999V0203201N003619999999N010000199+02001+00961101241ADDMA1999999101011MD1810031+9999REMSYN04887576 42960 03207 10200 20096 30101 40124 58003=
0175875760999992021010108004-34817-058533FM-12+002099999V0202301N002112200019N010000199+01661+01231101311ADDGA1011+060001001GE19MSL   +99999+99999GF101991011999060001999999MA1999999101081MD1310091+9999REMSYN07087576 42960 12304 10166 20123 30108 40131 53009 80001 333 56006 81070=
0175875760999992021010109004-34817-058533FM-12+002099999V0202901N001512200019N010000199+01601+01001101381ADDGA1011+060001001GE19MSL   +99999+99999GF101991011999060001999999MA1999999101141MD1210161+9999REMSYN07087576 42960 12903 10160 20100 30114 40138 52016 80001 333 56006 81070=
0175875760999992021010110004-34817-058533FM-12+002099999V0202701N001012200019N010000199+01681+01091101451ADDGA1011+060001021GE19MSL   +99999+99999GF101991011999060001999999MA1999999101221MD1210211+9999REMSYN07087576 42960 12702 10168 20109 30122 40145 52021 80005 333 56006 81270=
0175875760999992021010111004-34817-058533FM-12+002099999V0202901N003112200019N010000199+02101+00961101511ADDGA1021+060001021GE19MSL   +99999+99999GF102991021999060001999999MA1999999101281MD1210201+9999REMSYN07087576 42960 22906 10210 20096 30128 40151 52020 80005 333 56006 82270=
0213875760999992021010112004-34817-058533FM-12+002099999V0202901N003612200019N010000199+02421+00881101511ADDGA1021+060001001GE19MSL   +99999+99999GF102991021999060001999999KA1240M+02701KA2240N+01451MA1999999101281MD1110131+9999REMSYN08287576 32960 22907 10242 20088 30128 40151 51013 80001 333 10270 20145 56006 82070=
0175875760999992021010113004-34817-058533FM-12+002099999V0202901N004112200019N010000199+02681+01041101511ADDGA1031+060001001GE19MSL   +99999+99999GF103991031999060001999999MA1999999101281MD1110051+9999REMSYN07087576 42960 32908 10268 20104 30128 40151 51005 80001 333 56006 83070=
0175875760999992021010114004-34817-058533FM-12+002099999V0202901N005112200019N010000199+02911+01051101521ADDGA1021+060001001GE19MSL   +99999+99999GF102991021999060001999999MA1999999101291MD1310011+9999REMSYN07087576 42960 22910 10291 20105 30129 40152 53001 80001 333 56006 82070=
0175875760999992021010115004-34817-058533FM-12+002099999V0202501N004612200019N010000199+03061+01111101511ADDGA1021+060001001GE19MSL   +99999+99999GF102991021999060001999999MA1999999101281MD1990001+9999REMSYN07087576 42960 22509 10306 20111 30128 40151 50000 80001 333 56006 82070=
0175875760999992021010116004-34817-058533FM-12+002099999V0202501N004612200019N010000199+03261+01161101471ADDGA1041+060001001GE19MSL   +99999+99999GF104991041999060001999999MA1999999101241MD1810041+9999REMSYN07087576 42960 42509 10326 20116 30124 40147 58004 80004 333 56006 84070=
0175875760999992021010117004-34817-058533FM-12+002099999V0202301N005112200019N010000199+03341+01091101451ADDGA1041+060001001GE19MSL   +99999+99999GF104991041999060001999999MA1999999101221MD1710071+9999REMSYN07087576 42960 42310 10334 20109 30122 40145 57007 80004 333 56006 84070=
0175875760999992021010118004-34817-058533FM-12+002099999V0202301N004110600019N010000199+03311+01141101381ADDGA1051+060001001GE19MSL   +99999+99999GF105991051999060001999999MA1999999101141MD1710131+9999REMSYN07087576 32960 52308 10331 20114 30114 40138 57013 80004 333 56006 85070=
0131875760999992021010119004-34467-058517FM-12+002099999V0202901N0041122000199009000199+03361+01121101331ADDAY111011AY201011GA1041+060001001GE19MSL   +99999+99999GF104991041999060001999999MA1999999101101MD1710131+9999MW1041REMSYN004BUFR
0225875760999992021010120004-34817-058533FM-12+002099999V0209999V002612200019N009000199+03321+01101101291ADDAY111021AY201021GA1011+018001081GA2041+060001001GE19MSL   +99999+99999GF104991011999018001999999MA1999999101061MD1710161+9999MW1041REMSYN08287576 41759 49905 10332 20110 30106 40129 57016 70410 81104 333 56206 81856 84070=
0147875760999992021010121004-34467-058517FM-12+002099999V0202001N0031122000199009000199+03321+01171101291ADDAY101031AY201031GA1011+018001081GA2031+060001001GE19MSL   +99999+99999GF103991011999018001999999MA1999999101061MD1610081+9999MW1041REMSYN004BUFR
0131875760999992021010122004-34467-058517FM-12+002099999V0201801N0036122000199009000199+03201+01221101311ADDAY101011AY201011GA1011+018001081GE19MSL   +99999+99999GF103991011999018001999999MA1999999101081MD1510031+9999MW1041REMSYN004BUFR
0125875760999992021010123004-34467-058517FM-12+002099999V0201401N0036122000199010000199+02951+01481101371ADDAZ101011AZ201011GA1011+015001081GE19MSL   +99999+99999GF101991011999015001999999MA1999999101141MD1210081+9999REMSYN004BUFR
0131875760999992021010200004-34817-058533FM-12+002099999V0200701N005119999999N010000199+02661+01561101461ADDKA1120M+03481KA2120N+02341MA1999999101221MD1210161+9999REMSYN06487576 32960 00710 10266 20156 30122 40146 52016 333 10348 20234=
0089875760999992021010201004-34817-058533FM-12+002099999V0200901N003619999999N010000199+02501+01611101521ADDMA1999999101291MD1210211+9999REMSYN04887576 42960 00907 10250 20161 30129 40152 52021=
0089875760999992021010202004-34817-058533FM-12+002099999V0200901N003119999999N010000199+02381+01691101581ADDMA1999999101361MD1210211+9999REMSYN04887576 42960 00906 10238 20169 30136 40158 52021=
0089875760999992021010203004-34817-058533FM-12+002099999V0200901N004119999999N010000199+02381+01541101601ADDMA1999999101371MD1210151+9999REMSYN04887576 42960 00908 10238 20154 30137 40160 52015=
0089875760999992021010204004-34817-058533FM-12+002099999V0200701N003119999999N010000199+02281+01701101591ADDMA1999999101361MD1990071+9999REMSYN04887576 42960 00706 10228 20170 30136 40159 50007=
0089875760999992021010205004-34817-058533FM-12+002099999V0200501N005119999999N010000199+02381+01641101571ADDMA1999999101341MD1710011+9999REMSYN04887576 42960 00510 10238 20164 30134 40157 57001=
0089875760999992021010206004-34817-058533FM-12+002099999V0200501N004619999999N010000199+02311+01461101551ADDMA1999999101321MD1710051+9999REMSYN04887576 32960 00509 10231 20146 30132 40155 57005=
0089875760999992021010207004-34817-058533FM-12+002099999V0200501N004119999999N010000199+02271+01451101551ADDMA1999999101321MD1610041+9999REMSYN04887576 42960 00508 10227 20145 30132 40155 56004=
0089875760999992021010208004-34817-058533FM-12+002099999V0200501N003119999999N010000199+02241+01451101571ADDMA1999999101341MD1410001+9999REMSYN04887576 42960 00506 10224 20145 30134 40157 54000=
0087875760999992021010209004-34467-058517FM-12+002099999V0200501N0026122000199010000199+02151+01521101581ADDAZ101031AZ201031GF100991999999999999999999MA1999999101361MD1210041+9999REMSYN004BUFR
0089875760999992021010210004-34817-058533FM-12+002099999V0200501N002619999999N010000199+02281+01441101601ADDMA1999999101371MD1210051+9999REMSYN04887576 42960 00505 10228 20144 30137 40160 52005=
0089875760999992021010211004-34817-058533FM-12+002099999V0200501N003619999999N010000199+02501+01591101631ADDMA1999999101401MD1210051+9999REMSYN04887576 42960 00507 10250 20159 30140 40163 52005=
0124875760999992021010212004-34467-058517FM-12+002099999V0200501N0036122000199010000199+02701+01611101641ADDAA101999999AZ101061AZ201061GF100991999999999999999999KA1120M+02781KA2120N+02051MA1999999101411MD1110051+9999REMSYN004BUFR
0089875760999992021010213004-34817-058533FM-12+002099999V0200501N002619999999N010000199+02881+01591101611ADDMA1999999101381MD1990011+9999REMSYN04887576 42960 00505 10288 20159 30138 40161 50001=
0087875760999992021010214004-34467-058517FM-12+002099999V0203601N0015122000199010000199+03121+01431101571ADDAZ101011AZ201011GF100991999999999999999999MA1999999101341MD1810051+9999REMSYN004BUFR
0087875760999992021010215004-34467-058517FM-12+002099999V0203401N0031122000199010000199+03271+01361101521ADDAZ101031AZ201031GF100991999999999999999999MA1999999101291MD1710121+9999REMSYN004BUFR
0087875760999992021010216004-34467-058517FM-12+002099999V0203201N0015122000199010000199+03351+01211101451ADDAZ101011AZ201011GF100991999999999999999999MA1999999101221MD1710161+9999REMSYN004BUFR
0125875760999992021010217004-34467-058517FM-12+002099999V0200201N0036122000199010000199+03411+01391101421ADDAZ101011AZ201011GA1011+015001081GE19MSL   +99999+99999GF101991011999015001999999MA1999999101201MD1710151+9999REMSYN004BUFR
0136875760999992021010218004-34467-058517FM-12+002099999V0200501N0041122000199010000199+03411+01391101381ADDAA101999999AZ101061AZ201061GA1011+015001081GE19MSL   +99999+99999GF101991011999015001999999MA1999999101141MD1610151+9999REMSYN004BUFR
0125875760999992021010219004-34467-058517FM-12+002099999V0200501N0046122000199010000199+03421+01321101311ADDAZ101011AZ201011GA1011+015001081GE19MSL   +99999+99999GF101991011999015001999999MA1999999101081MD1610151+9999REMSYN004BUFR
0175875760999992021010220004-34817-058533FM-12+002099999V0200201N005112200019N010000199+03401+01421101251ADDGA1011+030001031GE19MSL   +99999+99999GF101991011999030001999999MA1999999101021MD1610171+9999REMSYN07087576 42960 10210 10340 20142 30102 40125 56017 81060 333 56030 81360=
0089875760999992021010221004-34817-058533FM-12+002099999V0200501N005119999999N010000199+03381+00971101211ADDMA1999999100981MD1710161+9999REMSYN04887576 42960 00510 10338 20097 30098 40121 57016=
0087875760999992021010222004-34467-058517FM-12+002099999V0200501N0057122000199010000199+03351+01111101201ADDAZ101011AZ201011GF100991999999999999999999MA1999999100971MD1710111+9999REMSYN004BUFR
0089875760999992021010223004-34817-058533FM-12+002099999V0200501N005719999999N010000199+03101+01601101221ADDMA1999999100981MD1510041+9999REMSYN04887576 42960 00511 10310 20160 30098 40122 55004=
0131875760999992021010300004-34817-058533FM-12+002099999V0200501N004619999999N010000199+02861+01541101261ADDKA1120M+03501KA2120N+02671MA1999999101021MD1310041+9999REMSYN06487576 32960 00509 10286 20154 30102 40126 53004 333 10350 20267=
0089875760999992021010301004-34817-058533FM-12+002099999V0200701N003619999999N010000199+02701+01631101291ADDMA1999999101061MD1210091+9999REMSYN04887576 42960 00707 10270 20163 30106 40129 52009=
0089875760999992021010302004-34817-058533FM-12+002099999V0200501N004119999999N010000199+02711+01681101301ADDMA1999999101061MD1110081+9999REMSYN04887576 42960 00508 10271 20168 30106 40130 51008=
0089875760999992021010303004-34817-058533FM-12+002099999V0200501N004119999999N010000199+02741+01661101301ADDMA1999999101061MD1110041+9999REMSYN04887576 42960 00508 10274 20166 30106 40130 51004=
0089875760999992021010304004-34817-058533FM-12+002099999V0200501N003119999999N010000199+02691+01771101261ADDMA1999999101021MD1810041+9999REMSYN04887576 42960 00506 10269 20177 30102 40126 58004=
0089875760999992021010305004-34817-058533FM-12+002099999V0200201N003119999999N010000199+02691+01561101231ADDMA1999999101001MD1810071+9999REMSYN04887576 42960 00206 10269 20156 30100 40123 58007=
0089875760999992021010306004-34817-058533FM-12+002099999V0200501N002619999999N010000199+02541+01661101231ADDMA1999999101001MD1610071+9999REMSYN04887576 32960 00505 10254 20166 30100 40123 56007=
0089875760999992021010307004-34817-058533FM-12+002099999V0200201N003619999999N010000199+02541+01511101291ADDMA1999999101061MD1310041+9999REMSYN04887576 42960 00207 10254 20151 30106 40129 53004=
0089875760999992021010308004-34817-058533FM-12+002099999V0200501N002619999999N010000199+02461+01581101361ADDMA1999999101131MD1310131+9999REMSYN04887576 42960 00505 10246 20158 30113 40136 53013=
0089875760999992021010309004-34817-058533FM-12+002099999V0203601N001519999999N010000199+02361+01561101431ADDMA1999999101201MD1210201+9999REMSYN04887576 42960 03603 10236 20156 30120 40143 52020=
0175875760999992021010310004-34817-058533FM-12+002099999V0200201N002112200019N010000199+02381+01641101441ADDGA1011+060001001GE19MSL   +99999+99999GF101991011999060001999999MA1999999101211MD1210151+9999REMSYN07087576 42960 10204 10238 20164 30121 40144 52015 80001 333 56006 81070=
0125875760999992021010311004-34467-058517FM-12+002099999V0200201N0046122000199010000199+02551+01581101501ADDAZ101011AZ201011GA1011+060001001GE19MSL   +99999+99999GF101991011999060001999999MA1999999101281MD1210151+9999REMSYN004BUFR
0162875760999992021010312004-34467-058517FM-12+002099999V0200501N0051122000199010000199+02601+01431101521ADDAA101999999AZ101061AZ201061GA1021+060001001GE19MSL   +99999+99999GF102991021999060001999999KA1120M+02881KA2120N+02281MA1999999101291MD1210091+9999REMSYN004BUFR
0125875760999992021010313004-34467-058517FM-12+002099999V0200501N0046122000199010000199+02671+01351101511ADDAZ101011AZ201011GA1021+060001001GE19MSL   +99999+99999GF102991021999060001999999MA1999999101281MD1010071+9999REMSYN004BUFR
0175875760999992021010314004-34817-058533FM-12+002099999V0200501N004612200019N010000199+02831+01461101471ADDGA1031+060001021GE19MSL   +99999+99999GF103991031999060001999999MA1999999101241MD1810041+9999REMSYN07087576 42960 30509 10283 20146 30124 40147 58004 80006 333 56006 83270=
0175875760999992021010315004-34817-058533FM-12+002099999V0200701N004612200019N010000199+02961+01341101441ADDGA1031+060001021GE19MSL   +99999+99999GF103991031999060001999999MA1999999101211MD1710081+9999REMSYN07087576 42960 30709 10296 20134 30121 40144 57008 80006 333 56006 83270=
0175875760999992021010316004-34817-058533FM-12+002099999V0200501N005112200019N010000199+03081+01311101371ADDGA1041+060001021GE19MSL   +99999+99999GF104991041999060001999999MA1999999101141MD1710131+9999REMSYN07087576 42960 40510 10308 20131 30114 40137 57013 80006 333 56006 84270=
0125875760999992021010317004-34467-058517FM-12+002099999V0200901N0046106000199010000199+03151+01281101341ADDAZ101011AZ201011GA1051+060001021GE19MSL   +99999+99999GF105991051999060001999999MA1999999101101MD1710131+9999REMSYN004BUFR
0136875760999992021010318004-34467-058517FM-12+002099999V0200901N0057106000199010000199+03171+01301101291ADDAA101999999AZ101061AZ201061GA1051+060001021GE19MSL   +99999+99999GF105991051999060001999999MA1999999101061MD1710151+9999REMSYN004BUFR
0175875760999992021010319004-34817-058533FM-12+002099999V0200701N005110600019N010000199+03141+01241101291ADDGA1061+060001021GE19MSL   +99999+99999GF106991061999060001999999MA1999999101061MD1610081+9999REMSYN07087576 42960 60710 10314 20124 30106 40129 56008 80006 333 56006 86270=
0175875760999992021010320004-34817-058533FM-12+002099999V0201101N004610600019N010000199+03111+01441101181ADDGA1071+060001021GE19MSL   +99999+99999GF107991071999060001999999MA1999999100941MD1810161+9999REMSYN07087576 42960 71109 10311 20144 30094 40118 58016 80006 333 56006 87270=
0175875760999992021010321004-34817-058533FM-12+002099999V0201101N005110600019N010000199+03091+01301101171ADDGA1071+060001021GE19MSL   +99999+99999GF107991071999060001999999MA1999999100941MD1610121+9999REMSYN07087576 42960 71110 10309 20130 30094 40117 56012 80006 333 56006 87270=
0125875760999992021010322004-34467-058517FM-12+002099999V0201101N0046106000199010000199+02971+01281101141ADDAZ101011AZ201011GA1071+060001021GE19MSL   +99999+99999GF107991071999060001999999MA1999999100901MD1810161+9999REMSYN004BUFR
0175875760999992021010323004-34817-058533FM-12+002099999V0201101N004610600019N010000199+02811+01411101151ADDGA1071+060001021GE19MSL   +99999+99999GF107991071999060001999999MA1999999100921MD1510031+9999REMSYN07087576 42960 71109 10281 20141 30092 40115 55003 80006 333 56006 87270=
0213875760999992021010400004-34817-058533FM-12+002099999V0201101N007710600019N010000199+02611+01631101161ADDGA1061+060001021GE19MSL   +99999+99999GF106991061999060001999999KA1120M+03311KA2120N+02531MA1999999100931MD1510011+9999REMSYN08287576 32960 61115 10261 20163 30093 40116 55001 80006 333 10331 20253 56006 86270=
0175875760999992021010401004-34817-058533FM-12+002099999V0201101N005710600019N010000199+02431+01751101191ADDGA1061+060001021GE19MSL   +99999+99999GF106991061999060001999999MA1999999100961MD1210051+9999REMSYN07087576 42960 61111 10243 20175 30096 40119 52005 80006 333 56006 86270=
0175875760999992021010402004-34817-058533FM-12+002099999V0201101N002610600019N010000199+02351+01641101181ADDGA1051+060001021GE19MSL   +99999+99999GF105991051999060001999999MA1999999100941MD1990031+9999REMSYN07087576 42960 51105 10235 20164 30094 40118 50003 80006 333 56006 85270=
0175875760999992021010403004-34817-058533FM-12+002099999V0201101N003110600019N010000199+02281+01841101191ADDGA1051+060001021GE19MSL   +99999+99999GF105991051999060001999999MA1999999100961MD1210031+9999REMSYN07087576 42960 51106 10228 20184 30096 40119 52003 80006 333 56006 85270=
0175875760999992021010404004-34817-058533FM-12+002099999V0200901N003610600019N010000199+02261+01801101121ADDGA1061+060001021GE19MSL   +99999+99999GF106991061999060001999999MA1999999100891MD1710071+9999REMSYN07087576 42960 60907 10226 20180 30089 40112 57007 80006 333 56006 86270=
0197875760999992021010405004-34817-058533FM-12+002099999V0200701N00311060001CN010000199+02361+01831101091ADDGA1011+018001081GA2061+060001021GE19MSL   +99999+99999GF106991011999018001999999MA1999999100861MD1810081+9999REMSYN07687576 42760 60706 10236 20183 30086 40109 58008 81106 333 56606 81856 86270=
0197875760999992021010406004-34817-058533FM-12+002099999V0200501N00411060001CN010000199+02461+01641101031ADDGA1011+018001081GA2061+060001021GE19MSL   +99999+99999GF106991011999018001999999MA1999999100801MD1710161+9999REMSYN07687576 32760 60508 10246 20164 30080 40103 57016 81106 333 56606 81856 86270=
0175875760999992021010407004-34817-058533FM-12+002099999V0200501N005110600019N010000199+02401+01701100991ADDGA1061+060001021GE19MSL   +99999+99999GF106991061999060001999999MA1999999100761MD1710131+9999REMSYN07087576 42960 60510 10240 20170 30076 40099 57013 80006 333 56006 86270=
0175875760999992021010408004-34817-058533FM-12+002099999V0200701N004110600019N010000199+02341+01771100991ADDGA1071+060001021GE19MSL   +99999+99999GF107991071999060001999999MA1999999100761MD1610111+9999REMSYN07087576 42960 70708 10234 20177 30076 40099 56011 80006 333 56006 87270=
0175875760999992021010409004-34817-058533FM-12+002099999V0200501N004110600019N010000199+02291+01821101011ADDGA1071+060001021GE19MSL   +99999+99999GF107991071999060001999999MA1999999100781MD1510011+9999REMSYN07087576 42960 70508 10229 20182 30078 40101 55001 80006 333 56007 87270=
0197875760999992021010410004-34817-058533FM-12+002099999V0200701N00411060001CN010000199+02311+01861101041ADDGA1011+030001031GA2071+060001021GE19MSL   +99999+99999GF107991011999030001999999MA1999999100811MD1310051+9999REMSYN07687576 42960 70708 10231 20186 30081 40104 53005 81036 333 56077 81360 87270=
0141875760999992021010411004-34467-058517FM-12+002099999V0200501N00411060001C9010000199+02401+01871101061ADDAZ101011AZ201011GA1011+030001031GA2071+060001021GE19MSL   +99999+99999GF107991011999030001999999MA1999999100821MD1210071+9999REMSYN004BUFR
0162875760999992021010412004-34467-058517FM-12+002099999V0200201N0036106000199010000199+02461+01871101071ADDAA101999999AZ101061AZ201061GA1071+060001021GE19MSL   +99999+99999GF107991071999060001999999KA1120M+02631KA2120N+02201MA1999999100841MD1210051+9999REMSYN004BUFR
0125875760999992021010413004-34467-058517FM-12+002099999V0200501N0031106000199010000199+02651+01901101031ADDAZ101011AZ201011GA1071+060001021GE19MSL   +99999+99999GF107991071999060001999999MA1999999100801MD1810011+9999REMSYN004BUFR
0175875760999992021010414004-34817-058533FM-12+002099999V0200901N002110600019N010000199+02801+01831100981ADDGA1061+060001021GE19MSL   +99999+99999GF106991061999060001999999MA1999999100741MD1710081+9999REMSYN07087576 42960 60904 10280 20183 30074 40098 57008 80008 333 56006 86270=
0197875760999992021010415004-34817-058533FM-12+002099999V0200501N003610600019N010000199+02921+01791100931ADDGA1031+013501081GA2061+060001021GE19MSL   +99999+99999GF106991031999013501999999MA1999999100701MD1710131+9999REMSYN07687576 42660 60507 10292 20179 30070 40093 57013 83108 333 56306 83845 86270=
0207875760999992021010416004-34817-058533FM-12+002099999V0200701N00311013501CN010000199+03031+01781100871ADDGA1051+013501081GA2061+060001021GE19MSL   +99999+99999GF106991051999013501999999MA1999999100641MD1710161+9999REMSYN08687576 42660 60706 10303 20178 30064 40087 57016 85106 333 56406 85845 86270 555 10088=
0197875760999992021010417004-34817-058533FM-12+002099999V0201101N00411015001CN010000199+03221+01661100801ADDGA1051+015001081GA2061+060001021GE19MSL   +99999+99999GF106991051999015001999999MA1999999100571MD1710171+9999REMSYN07687576 42760 61108 10322 20166 30057 40080 57017 85106 333 56406 85850 86270=
0197875760999992021010418004-34817-058533FM-12+002099999V0200901N00411015001CN010000199+03201+01631100771ADDGA1051+015001081GA2041+060001021GE19MSL   +99999+99999GF106991051999015001999999MA1999999100541MD1710161+9999REMSYN07687576 32760 60908 10320 20163 30054 40077 57016 85106 333 56406 85850 84270=
0197875760999992021010419004-34817-058533FM-12+002099999V0201101N00411015001CN010000199+03121+01681100721ADDGA1051+015001081GA2061+060001021GE19MSL   +99999+99999GF106991051999015001999999MA1999999100491MD1710151+9999REMSYN07687576 42760 61108 10312 20168 30049 40072 57015 85106 333 56406 85850 86270=
0141875760999992021010420004-34467-058517FM-12+002099999V0200501N00671030005C9010000199+03021+01551100701ADDAZ101011AZ201011GA1051+030001031GA2061+060001021GE19MSL   +99999+99999GF106991051999030001999999MA1999999100461MD1710111+9999REMSYN004BUFR
0160875760999992021010421004-34467-058517FM-12+002099999V0200701N00721999999C9010000199+02921+01771100711ADDAZ101031AZ201031GA1041+030001031GA2041+060001021GE19MSL   +99999+99999GF104991041999030001999999MA1999999100481MD1510071+9999REMSYN004BUFREQDQ01 060003SCOCIG
0216875760999992021010422004-34817-058533FM-12+002099999V0200901N00771999999CN010000199+02721+01601100731ADDGA1031+030001031GA2031+060001021GE19MSL   +99999+99999GF103991031999030001999999MA1999999100501MD1310011+9999REMSYN07687576 42960 30915 10272 20160 30050 40073 53001 83086 333 56043 83360 83270=EQDQ01 060003SCOCIG
0197875760999992021010423004-34817-058533FM-12+002099999V0200901N006712200019N010000199+02631+01791100781ADDGA1011+030001031GA2031+060001021GE19MSL   +99999+99999GF103991011999030001999999MA1999999100541MD1210081+9999REMSYN07687576 42960 30913 10263 20179 30054 40078 52008 81086 333 56043 81360 83270=
0213875760999992021010500004-34817-058533FM-12+002099999V0201101N005112200019N010000199+02481+01811100831ADDGA1011+030001031GE19MSL   +99999+99999GF101991011999030001999999KA1120M+03351KA2120N+02391MA1999999100601MD1210121+9999REMSYN08287576 32960 11110 10248 20181 30060 40083 52012 81030 333 10335 20239 56050 81360=
0089875760999992021010501004-34817-058533FM-12+002099999V0201101N003619999999N010000199+02351+01801100871ADDMA1999999100641MD1210131+9999REMSYN04887576 42960 01107 10235 20180 30064 40087 52013=
0175875760999992021010502004-34817-058533FM-12+002099999V0201101N003612200019N010000199+02281+01821100871ADDGA1011+030001031GE19MSL   +99999+99999GF101991011999030001999999MA1999999100641MD1110091+9999REMSYN07087576 42960 11107 10228 20182 30064 40087 51009 81030 333 56060 81360=
0191875760999992021010503004-34817-058533FM-12+002099999V0201401N002612200019N010000199+02181+01951100881ADDGA1011+030001031GA2999+999999001GE19MSL   +99999+99999GF102991011999030001999999MA1999999100651MD1210051+9999REMSYN07087576 42960 21405 10218 20195 30065 40088 52005 81031 333 56076 81360=
0175875760999992021010504004-34817-058533FM-12+002099999V0201601N00311001801CN010000199+02141+02001100891ADDGA1081+001801071GE19MSL   +99999+99999GF108991081999001801999999MA1999999100661MD1210031+9999REMSYN07087576 42260 81606 10214 20200 30066 40089 52003 886// 333 56399 88706=
0175875760999992021010505004-34817-058533FM-12+002099999V0201401N00311002101CN010000199+02181+02031100841ADDGA1081+002101071GE19MSL   +99999+99999GF108991081999002101999999MA1999999100611MD1810031+9999REMSYN07087576 42360 81406 10218 20203 30061 40084 58003 886// 333 56399 88707=
0175875760999992021010506004-34817-058533FM-12+002099999V0201401N00211002701CN010000199+02221+02051100801ADDGA1081+002701071GE19MSL   +99999+99999GF108991081999002701999999MA1999999100571MD1710081+9999REMSYN07087576 32360 81404 10222 20205 30057 40080 57008 886// 333 56399 88709=
0175875760999992021010507004-34817-058533FM-12+002099999V0201401N00211003001CN010000199+02241+02061100741ADDGA1081+003001071GE19MSL   +99999+99999GF108991081999003001999999MA1999999100501MD1710161+9999REMSYN07087576 42460 81404 10224 20206 30050 40074 57016 886// 333 56399 88710=
0175875760999992021010508004-34817-058533FM-12+002099999V0201601N00261002701CN010000199+02221+02071100791ADDGA1081+002701071GE19MSL   +99999+99999GF108991081999002701999999MA1999999100561MD1510051+9999REMSYN07087576 42360 81605 10222 20207 30056 40079 55005 886// 333 56399 88709=
0203875760999992021010509004-34817-058533FM-12+002099999V0201801N00211003001CN008000199+02241+02061100841ADDAY121021AY221021GA1081+003001071GE19MSL   +99999+99999GF108991081999003001999999MA1999999100611MD1210041+9999MW1101REMSYN07687576 41458 81804 10224 20206 30061 40084 52004 71022 886// 333 56499 88710=
0131875760999992021010510004-34467-058517FM-12+002099999V0201401N00361003001C9007000199+02311+02131100821ADDAY121011AY221011GA1081+003001071GE19MSL   +99999+99999GF108991081999003001999999MA1999999100581MD1010081+9999MW1101REMSYN004BUFR
0225875760999992021010511004-34817-058533FM-12+002099999V0201401N00361003301CN008000199+02451+02151100841ADDAY121021AY221021GA1051+003301071GA2061+005701071GE19MSL   +99999+99999GF107991051999003301999999MA1999999100611MD1990051+9999MW1101REMSYN08287576 41458 71407 10245 20215 30061 40084 50005 71022 87600 333 56300 85711 86719=
0213875760999992021010512004-34817-058533FM-12+002099999V0201101N00461006001CN010000199+02561+02101100841ADDGA1081+006001061GE19MSL   +99999+99999GF108991081999006001999999KA1240M+02571KA2240N+02091MA1999999100611MD1410001+9999REMSYN08287576 32560 81109 10256 20210 30061 40084 54000 885// 333 10257 20209 56399 88620=
0125875760999992021010513004-34467-058517FM-12+002099999V0201401N00261006601C9010000199+02621+02091100831ADDAZ101011AZ201011GA1081+006601061GE19MSL   +99999+99999GF108991081999006601999999MA1999999100601MD1010011+9999REMSYN004BUFR
0141875760999992021010514004-34467-058517FM-12+002099999V0201101N00211008405C9010000199+02821+02091100811ADDAZ101011AZ201011GA1051+008401061GA2031+010201081GE19MSL   +99999+99999GF106991051999008401999999MA1999999100581MD1810031+9999REMSYN004BUFR
0203875760999992021010515004-34817-058533FM-12+002099999V0201401N00211014401CN010000199+02921+02041100801ADDGA1041+010501061GA2031+014401081GE19MSL   +99999+99999GF105991041999010501999999MA1999999100571MD1710041+9999REMSYN08287576 42660 51404 10292 20204 30057 40080 57004 85209 333 56106 57897 84635 83848=
0157875760999992021010516004-34467-058517FM-12+000999999V0201101N00411015001C9010000199+03001+02001100701ADDAZ101011AZ201011GA1041+012301061GA2031+015001081GA3999+999999081GE19MSL   +99999+99999GF106991041999012301999999MA1999999100461MD1710131+9999REMSYN004BUFR
0203875760999992021010517004-34817-058533FM-12+002099999V0200701N00411018001CN010000199+03121+01911100541ADDGA1031+014401061GA2031+018001081GE19MSL   +99999+99999GF106991031999014401999999MA1999999100301MD1710281+9999REMSYN08287576 42660 60708 10312 20191 30030 40054 57028 85206 333 56706 57894 83648 83856=
0190875760999992021010518004-34467-058517FM-12+002099999V0200501N00621030001C9009000199+03151+01861100521ADDAA106999999AY181061AY221061GA1031+015001081GA2031+030001031GA3051+060001021GA4999+999999081GE19MSL   +99999+99999GF107991031999015001999999MA1999999100291MD1710281+9999MW1801REMSYN004BUFR
0231875760999992021010519004-34817-058533FM-12+002099999V0202301N00621000901CN000800199+02071+01961100791ADDAY191021AY281021GA1061+000901071GA2021+012001091GE19MSL   +99999+99999GF108991061999000901999999MA1999999100561MD1310091+9999MW1951REMSYN08887576 41108 82312 10207 20196 30056 40079 53009 79598 889// 333 56499 57900 86703 82940=
0253875760999992021010520004-34817-058533FM-12+002099999V0201601N00261030001CN010000199+02141+02081100621ADDAY191021AY261021GA1021+015001081GA2041+030001031GA3051+060001021GE19MSL   +99999+99999GF108991021999015001999999MA1999999100381MD1990081+9999MW1911REMSYN09487576 41760 81605 10214 20208 30038 40062 50008 79196 82286 333 56776 57895 82850 84360 85270=
0247875760999992021010521004-34817-058533FM-12+002099999V0201401N00211010201CN010000199+02211+02061100651ADDAY191021AY261021GA1051+010201061GA2051+024001031GA3999+999999021GE19MSL   +99999+99999GF108991051999010201999999MA1999999100421MD1990131+9999MW1211REMSYN08887576 41660 81404 10221 20206 30042 40065 50013 72196 85276 333 56356 57828 85634 85358=
0179875760999992021010522004-34467-058517FM-12+002099999V0201601N0010102100199005000199+02101+02031100741ADDAY191011AY261011GA1031+000901071GA2011+015001091GA3081+021001051GA4999+999999091GE19MSL   +99999+99999GF108991031999000901999999MA1999999100501MD1710051+9999MW1951REMSYN004BUFR
0163875760999992021010523004-34467-058517FM-12+002099999V0201601N00261010505C9005000199+02071+01991100741ADDAY191011AY261011GA1021+001501071GA2051+010501061GA3081+021001051GE19MSL   +99999+99999GF108991021999001501999999MA1999999100501MD1110121+9999MW1911REMSYN004BUFR
0200875760999992021010600004-34467-058517FM-12+002099999V0201101N00211009005C9005000199+02061+02001100771ADDAA106030031AY191061AY261061GA1021+001501071GA2051+009001061GA3081+021001051GE19MSL   +99999+99999GF108991021999001501999999KA1120M+03281KA2120N+01901MA1999999100541MD1110121+9999MW1611REMSYN004BUFR
0241875760999992021010601004-34817-058533FM-12+002099999V0201601N00151030001CN010000199+02061+02001100781ADDAY161021AY221021GA1031+012001061GA2051+030001031GA3999+999999021GE19MSL   +99999+99999GF107991031999012001999999MA1999999100541MD1110041+9999MW1211REMSYN08287576 41660 71603 10206 20200 30054 40078 51004 72162 83576 333 56366 83640 85360=
0244875760999992021010602004-34817-058533FM-12+002099999V0201101N00311999999CN010000199+02061+02031100791ADDAY161021AY221021GA1031+030001031GA2031+060001021GE19MSL   +99999+99999GF103991031999030001999999MA1999999100561MD1110051+9999MW1011REMSYN08287576 41960 31106 10206 20203 30056 40079 51005 70162 83076 333 56055 83360 83270=EQDQ01 060003SCOCIG
0203875760999992021010603004-34817-058533FM-12+002099999V0201101N001512200019N010000199+02101+02041100781ADDAY161021AY211021GA1031+030001031GE19MSL   +99999+99999GF103991031999030001999999MA1999999100541MD1410001+9999MW1021REMSYN07687576 41960 31103 10210 20204 30054 40078 54000 70261 83050 333 56050 83360=
0175875760999992021010604004-34817-058533FM-12+002099999V0202301N002112200019N010000199+02081+02021100741ADDGA1031+030001031GE19MSL   +99999+99999GF103991031999030001999999MA1999999100501MD1810041+9999REMSYN07087576 42960 32304 10208 20202 30050 40074 58004 83030 333 56050 83360=
0197875760999992021010605004-34817-058533FM-12+002099999V0202301N00211004501CN010000199+02061+02031100671ADDGA1051+004501071GA2031+030001031GE19MSL   +99999+99999GF106991051999004501999999MA1999999100441MD1710121+9999REMSYN07687576 42460 62304 10206 20203 30044 40067 57012 85630 333 56800 85715 83360=
0244875760999992021010606004-34817-058533FM-12+002099999V0202701N00101999999CN010000199+02061+02001100611ADDAY161021AY211021GA1021+000601071GA2031+006001061GE19MSL   +99999+99999GF104991021999000601999999MA1999999100381MD1710161+9999MW1011REMSYN08287576 31160 42702 10206 20200 30038 40061 57016 70161 84600 333 56700 82702 83620=EQDQ01 006003SCOCIG
0143875760999992021010607004-34817-058533FM-12+002099999V0202701N00211001201WN000500199+02041+02011100591ADDAY141021AY211021GF109991999999999999999999MA1999999100361MD1710151+9999MW1431REMSYN05487576 41/05 92704 10204 20201 30036 40059 57015 74341=
0209875760999992021010608004-34817-058533FM-12+002099999V0202901N00261001801CN003000199+02041+02011100621ADDAY141021AY221021GA1081+001801071GE19MSL   +99999+99999GF108991081999001801999999MA1999999100381MD1710051+9999MW1281REMSYN08287576 41230 82905 10204 20201 30038 40062 57005 72842 886// 333 56699 88706 96010=
0131875760999992021010609004-34467-058517FM-12+002099999V0202701N00361001801C9003000199+02021+01991100651ADDAY141031AY221031GA1081+001801071GE19MSL   +99999+99999GF108991081999001801999999MA1999999100421MD1310041+9999MW1101REMSYN004BUFR
0209875760999992021010610004-34817-058533FM-12+002099999V0202701N00411000901CN001000199+01941+01911100721ADDAY151021AY221021GA1081+000901071GE19MSL   +99999+99999GF108991081999000901999999MA1999999100491MD1210131+9999MW1511REMSYN08287576 41110 82708 10194 20191 30049 40072 52013 75152 886// 333 56799 88703 96010=
0209875760999992021010611004-34817-058533FM-12+002099999V0202701N00411001201CN003000199+01901+01851100771ADDAY151021AY251021GA1081+001201071GE19MSL   +99999+99999GF108991081999001201999999MA1999999100541MD1210161+9999MW1501REMSYN08287576 41230 82708 10190 20185 30054 40077 52016 75055 886// 333 56699 88704 96010=
0275875760999992021010612004-34817-058533FM-12+002099999V0202901N00411002101CN010000199+01881+01771100811ADDAA106000631AA224031031AY151021AY241021GA1081+002101071GE19MSL   +99999+99999GF108991081999002101999999KA1240M+02181KA2240N+01811MA1999999100581MD1210161+9999MW1201REMSYN10087576 01360 82908 10188 20177 30058 40081 52016 60314 72054 886// 333 10218 20181 56799 69961 88707=
0203875760999992021010613004-34817-058533FM-12+002099999V0202901N00411003001CN010000199+01961+01771100781ADDAY151021AY221021GA1081+003001071GE19MSL   +99999+99999GF108991081999003001999999MA1999999100541MD1990051+9999MW1021REMSYN07687576 41460 82908 10196 20177 30054 40078 50005 70252 886// 333 56699 88710=
0125875760999992021010614004-34467-058517FM-12+002099999V0202901N00511004801C9010000199+02051+01731100771ADDAZ101011AZ201011GA1081+004801061GE19MSL   +99999+99999GF108991081999004801999999MA1999999100541MD1410001+9999REMSYN004BUFR
0175875760999992021010615004-34817-058533FM-12+002099999V0202901N00461005101CN010000199+02091+01671100761ADDGA1051+005101061GE19MSL   +99999+99999GF105991051999005101999999MA1999999100531MD1810051+9999REMSYN07087576 42460 52909 10209 20167 30053 40076 58005 85500 333 56700 85617=
0125875760999992021010616004-34467-058517FM-12+002099999V0202901N00571005701C9010000199+02151+01721100711ADDAZ101011AZ201011GA1081+005701061GE19MSL   +99999+99999GF108991081999005701999999MA1999999100481MD1710071+9999REMSYN004BUFR
0141875760999992021010617004-34467-058517FM-12+002099999V0203201N0046100930199010000199+02221+01701100731ADDAZ101011AZ201011GA1031+006301061GA2081+009301061GE19MSL   +99999+99999GF108991031999006301999999MA1999999100501MD1510041+9999REMSYN004BUFR
0152875760999992021010618004-34467-058517FM-12+002099999V0203201N00621007205C9010000199+02251+01691100721ADDAA101999999AZ101061AZ201061GA1051+007201061GA2081+009301061GE19MSL   +99999+99999GF108991051999007201999999MA1999999100491MD1810041+9999REMSYN004BUFR
0125875760999992021010619004-34467-058517FM-12+002099999V0202901N00461009001C9010000199+02321+01681100711ADDAZ101011AZ201011GA1081+009001061GE19MSL   +99999+99999GF108991081999009001999999MA1999999100481MD1410001+9999REMSYN004BUFR
0175875760999992021010620004-34817-058533FM-12+002099999V0202901N00571012301CN010000199+02371+01591100651ADDGA1071+012301061GE19MSL   +99999+99999GF107991071999012301999999MA1999999100421MD1710081+9999REMSYN07087576 42660 72911 10237 20159 30042 40065 57008 87500 333 56700 87641=
0175875760999992021010621004-34817-058533FM-12+002099999V0202901N00461012901CN010000199+02421+01591100571ADDGA1061+012901061GE19MSL   +99999+99999GF106991061999012901999999MA1999999100341MD1710151+9999REMSYN07087576 42660 62909 10242 20159 30034 40057 57015 86500 333 56700 86643=
0141875760999992021010622004-34467-058517FM-12+002099999V0202901N0057101800199010000199+02451+01651100591ADDAZ101011AZ201011GA1031+011701061GA2061+018001051GE19MSL   +99999+99999GF106991031999011701999999MA1999999100361MD1510121+9999REMSYN004BUFR
0229875760999992021010700004-34817-058533FM-12+002099999V0202901N003112200019N010000199+02221+01671100631ADDGA1011+009001081GA2999+999999031GE19MSL   +99999+99999GF102991011999009001999999KA1120M+02501KA2120N+01821MA1999999100401MD1210051+9999REMSYN08287576 32560 22906 10222 20167 30040 40063 52005 81170 333 10250 20182 56660 81830=
0175875760999992021010701004-34817-058533FM-12+002099999V0202901N003612200019N010000199+02101+01751100641ADDGA1011+009001081GE19MSL   +99999+99999GF101991011999009001999999MA1999999100411MD1210051+9999REMSYN07087576 42560 12907 10210 20175 30041 40064 52005 81100 333 56600 81830=
0175875760999992021010702004-34817-058533FM-12+002099999V0202901N004112200019N010000199+02061+01721100661ADDGA1021+060001001GE19MSL   +99999+99999GF102991021999060001999999MA1999999100421MD1210051+9999REMSYN07087576 42960 22908 10206 20172 30042 40066 52005 80001 333 56007 82070=
0197875760999992021010703004-34817-058533FM-12+002099999V0202901N00311060001CN010000199+01961+01721100661ADDGA1031+004501061GA2031+060001001GE19MSL   +99999+99999GF105991031999004501999999MA1999999100421MD1110031+9999REMSYN07687576 42460 52906 10196 20172 30042 40066 51003 83501 333 56607 83615 83070=
0191875760999992021010704004-34817-058533FM-12+002099999V0202901N002619999999N010000199+01881+01751100661ADDGA1041+006001061GA2999+999999001GE19MSL   +99999+99999GF105991041999006001999999MA1999999100421MD1110011+9999REMSYN07087576 42560 52905 10188 20175 30042 40066 51001 84501 333 56506 84620=
0207875760999992021010705004-34817-058533FM-12+002099999V0202901N002119999999N010000199+01891+01761100641ADDGA1041+005401061GA2999+999999031GA3999+999999021GE19MSL   +99999+99999GF106991041999005401999999MA1999999100411MD1810011+9999REMSYN07087576 42460 62904 10189 20176 30041 40064 58001 84575 333 56566 84618=
0198875760999992021010706004-34817-058533FM-12+002099999V0202701N00261000601CN010000199+01861+01761100621ADDGA1021+002401071GA2041+000601061GE19MSL   +99999+99999GF106991021999002401999999MA1999999100381MD1810041+9999REMSYN07787576 32360 62705 10186 20176 30038 40062 58004 85670 333 56660 82708 846024=
0191875760999992021010707004-34817-058533FM-12+002099999V0202901N002112200019N010000199+01811+01731100651ADDGA1011+006001071GA2999+999999031GE19MSL   +99999+99999GF102991011999006001999999MA1999999100421MD1510001+9999REMSYN07087576 42560 22904 10181 20173 30042 40065 55000 81630 333 56660 81720=
0089875760999992021010708004-34817-058533FM-12+002099999V0202901N002119999999N010000199+01691+01621100691ADDMA1999999100461MD1310051+9999REMSYN04887576 42960 02904 10169 20162 30046 40069 53005=
0203875760999992021010709004-34817-058533FM-12+002099999V0202901N00361001201CN003000199+01761+01711100731ADDAY111021AY211021GA1081+001201071GE19MSL   +99999+99999GF108991081999001201999999MA1999999100501MD1210121+9999MW1101REMSYN07687576 41230 82907 10176 20171 30050 40073 52012 71011 886// 333 56699 88704=
0197875760999992021010710004-34817-058533FM-12+002099999V0202901N00361008101CN010000199+01771+01691100801ADDGA1041+001801071GA2041+008101061GE19MSL   +99999+99999GF107991041999001801999999MA1999999100571MD1210151+9999REMSYN07687576 42260 72907 10177 20169 30057 40080 52015 86630 333 56660 84706 84627=
0197875760999992021010711004-34817-058533FM-12+002099999V0202701N00461006601CN010000199+01861+01681100851ADDGA1031+002401071GA2041+006601061GE19MSL   +99999+99999GF107991031999002401999999MA1999999100621MD1210161+9999REMSYN07687576 42360 72709 10186 20168 30062 40085 52016 86630 333 56660 83708 84622=
0213875760999992021010712004-34817-058533FM-12+002099999V0202901N00621003601CN010000199+01991+01631100901ADDGA1061+003601071GE19MSL   +99999+99999GF106991061999003601999999KA1240M+02241KA2240N+01621MA1999999100661MD1210161+9999REMSYN08287576 32460 62912 10199 20163 30066 40090 52016 86600 333 10224 20162 56600 86712=
0125875760999992021010713004-34467-058517FM-12+002099999V0202901N0062122000199010000199+02121+01591100881ADDAZ101011AZ201011GA1031+005401071GE19MSL   +99999+99999GF104991031999005401999999MA1999999100651MD1010081+9999REMSYN004BUFR
0125875760999992021010714004-34467-058517FM-12+002099999V0202901N0062122000199010000199+02461+01561100851ADDAZ101011AZ201011GA1011+009001081GE19MSL   +99999+99999GF101991011999009001999999MA1999999100621MD1010001+9999REMSYN004BUFR
0125875760999992021010715004-34467-058517FM-12+002099999V0202901N0062122000199010000199+02771+01631100801ADDAZ101031AZ201031GA1011+060001001GE19MSL   +99999+99999GF101991011999060001999999MA1999999100571MD1710091+9999REMSYN004BUFR
0087875760999992021010716004-34467-058517FM-12+002099999V0202701N0062122000199010000199+02961+01341100731ADDAZ101011AZ201011GF100991999999999999999999MA1999999100501MD1710151+9999REMSYN004BUFR
0089875760999992021010717004-34817-058533FM-12+002099999V0202501N005719999999N010000199+03141+01351100661ADDMA1999999100421MD1710201+9999REMSYN04887576 42960 02511 10314 20135 30042 40066 57020=
0089875760999992021010718004-34817-058533FM-12+002099999V0202501N005119999999N010000199+03191+01291100611ADDMA1999999100381MD1710191+9999REMSYN04887576 32960 02510 10319 20129 30038 40061 57019=
0087875760999992021010719004-34467-058517FM-12+002099999V0202701N0067122000199010000199+03261+01081100551ADDAZ101011AZ201011GF100991999999999999999999MA1999999100321MD1710191+9999REMSYN004BUFR
0089875760999992021010720004-34817-058533FM-12+002099999V0202501N006219999999N010000199+03291+00951100511ADDMA1999999100281MD1710151+9999REMSYN04887576 42960 02512 10329 20095 30028 40051 57015=
0087875760999992021010721004-34467-058517FM-12+002099999V0202501N0057122000199010000199+03301+00991100491ADDAZ101031AZ201031GF100991999999999999999999MA1999999100261MD1710121+9999REMSYN004BUFR
0087875760999992021010722004-34467-058517FM-12+002099999V0202501N0051122000199010000199+03221+01021100531ADDAZ101011AZ201011GF100991999999999999999999MA1999999100301MD1510011+9999REMSYN004BUFR
0089875760999992021010723004-34817-058533FM-12+002099999V0202501N003619999999N010000199+03001+01071100571ADDMA1999999100341MD1310071+9999REMSYN04887576 42960 02507 10300 20107 30034 40057 53007=
0213875760999992021010800004-34817-058533FM-12+002099999V0202901N002612200019N010000199+02841+01161100591ADDGA1011+030001031GE19MSL   +99999+99999GF101991011999030001999999KA1120M+03381KA2120N+01901MA1999999100361MD1210091+9999REMSYN08287576 32960 12905 10284 20116 30036 40059 52009 81030 333 10338 20190 56060 81360=
0089875760999992021010801004-34817-058533FM-12+002099999V0203201N002119999999N010000199+02691+01151100651ADDMA1999999100421MD1210121+9999REMSYN04887576 42960 03204 10269 20115 30042 40065 52012=
0175875760999992021010802004-34817-058533FM-12+002099999V0203201N002612200019N010000199+02721+01031100681ADDGA1011+009001061GE19MSL   +99999+99999GF101991011999009001999999MA1999999100451MD1210111+9999REMSYN07087576 42560 13205 10272 20103 30045 40068 52011 81500 333 56600 81630=
0175875760999992021010803004-34817-058533FM-12+002099999V0203201N003612200019N010000199+02661+01091100681ADDGA1021+009001061GE19MSL   +99999+99999GF102991021999009001999999MA1999999100451MD1110091+9999REMSYN07087576 42560 23207 10266 20109 30045 40068 51009 82500 333 56600 82630=
0175875760999992021010804004-34817-058533FM-12+002099999V0203201N002612200019N010000199+02301+01221100711ADDGA1011+030001031GE19MSL   +99999+99999GF101991011999030001999999MA1999999100481MD1310051+9999REMSYN07087576 42960 13205 10230 20122 30048 40071 53005 81030 333 56060 81360=
0175875760999992021010805004-34817-058533FM-12+002099999V0202701N003112200019N010000199+02201+01261100771ADDGA1011+030001031GE19MSL   +99999+99999GF101991011999030001999999MA1999999100541MD1210091+9999REMSYN07087576 42960 12706 10220 20126 30054 40077 52009 81030 333 56060 81360=
0175875760999992021010806004-34817-058533FM-12+002099999V0201601N003612200019N010000199+02261+01341100771ADDGA1011+030001031GE19MSL   +99999+99999GF101991011999030001999999MA1999999100541MD1110091+9999REMSYN07087576 32960 11607 10226 20134 30054 40077 51009 81030 333 56060 81360=
0191875760999992021010809004-34817-058533FM-12+002099999V0201801N001512200019N010000199+01901+01701101001ADDGA1021+015001061GA2999+999999031GE19MSL   +99999+99999GF103991021999015001999999MA1999999100771MD1210231+9999REMSYN07087576 42760 31803 10190 20170 30077 40100 52023 82530 333 56560 82650=
0229875760999992021010812004-34817-058533FM-12+002099999V0201401N003112200019N010000199+01921+01621101261ADDGA1041+002701071GA2999+999999001GE19MSL   +99999+99999GF104991041999002701999999KA1240M+02901KA2240N+01761MA1999999101021MD1210251+9999REMSYN08287576 32360 41406 10192 20162 30102 40126 52025 84601 333 10290 20176 56306 84709=
0175875760999992021010815004-34817-058533FM-12+002099999V0201801N003112200019N010000199+02641+01531101231ADDGA1021+060001001GE19MSL   +99999+99999GF102991021999060001999999MA1999999101001MD1810031+9999REMSYN07087576 42960 21806 10264 20153 30100 40123 58003 80001 333 56006 82070=
0197875760999992021010818004-34817-058533FM-12+002099999V0202301N00361060001CN010000199+03071+00891101141ADDGA1021+030001031GA2041+060001021GE19MSL   +99999+99999GF105991021999030001999999MA1999999100901MD1610091+9999REMSYN07687576 32960 52307 10307 20089 30090 40114 56009 82086 333 56066 82360 84270=
0175875760999992021010821004-34817-058533FM-12+002099999V0201801N003610600019N010000199+02861+00951101131ADDGA1051+060001021GE19MSL   +99999+99999GF105991051999060001999999MA1999999100901MD1510001+9999REMSYN07087576 42960 51807 10286 20095 30090 40113 55000 80006 333 56006 85270=
0175875760999992021010822004-34817-058533FM-12+002099999V0201401N003110600019N010000199+02771+00961101121ADDGA1051+060001021GE19MSL   +99999+99999GF105991051999060001999999MA1999999100891MD1410001+9999REMSYN07087576 42960 51406 10277 20096 30089 40112 54000 80006 333 56006 85270=
0175875760999992021010823004-34817-058533FM-12+002099999V0201401N003610600019N010000199+02571+01071101091ADDGA1061+060001021GE19MSL   +99999+99999GF106991061999060001999999MA1999999100861MD1990001+9999REMSYN07087576 42960 61407 10257 20107 30086 40109 50000 80006 333 56006 86270=
0213875760999992021010900004-34817-058533FM-12+002099999V0201401N003110600019N010000199+02401+01021101131ADDGA1071+060001021GE19MSL   +99999+99999GF107991071999060001999999KA1120M+03181KA2120N+01851MA1999999100901MD1410001+9999REMSYN08287576 32960 71406 10240 20102 30090 40113 54000 80008 333 10318 20185 56006 87270=
0197875760999992021010901004-34817-058533FM-12+002099999V0201101N003112200019N010000199+02301+01331101171ADDGA1011+030001031GA2031+060001021GE19MSL   +99999+99999GF103991011999030001999999MA1999999100941MD1210051+9999REMSYN07687576 42960 31106 10230 20133 30094 40117 52005 81036 333 56076 81360 83270=
0191875760999992021010902004-34817-058533FM-12+002099999V0200901N005712200019N010000199+02221+01621101231ADDGA1011+030001031GA2999+999999021GE19MSL   +99999+99999GF102991011999030001999999MA1999999101001MD1210131+9999REMSYN07087576 42960 20911 10222 20162 30100 40123 52013 81085 333 56066 81360=
0197875760999992021010903004-34817-058533FM-12+002099999V0201101N00461060001CN010000199+02111+01671101211ADDGA1021+030001031GA2041+060001021GE19MSL   +99999+99999GF105991021999030001999999MA1999999100981MD1990081+9999REMSYN07687576 42960 51109 10211 20167 30098 40121 50008 82086 333 56076 82360 84270=
0197875760999992021010904004-34817-058533FM-12+002099999V0201101N003610600019N010000199+02081+01691101211ADDGA1041+030001031GA2051+060001021GE19MSL   +99999+99999GF105991041999030001999999MA1999999100981MD1990041+9999REMSYN07687576 42960 51107 10208 20169 30098 40121 50004 84086 333 56076 84360 85270=
0197875760999992021010905004-34817-058533FM-12+002099999V0200901N00311018001CN010000199+02081+01691101261ADDGA1051+018001051GA2081+060001021GE19MSL   +99999+99999GF108991051999018001999999MA1999999101021MD1310031+9999REMSYN07687576 42760 80906 10208 20169 30102 40126 53003 85077 333 56076 85556 88270=
0219875760999992021010906004-34817-058533FM-12+002099999V0202301N00151010501CN010000199+02041+01721101361ADDGA1031+007801061GA2051+010501081GA3081+030001031GE19MSL   +99999+99999GF108991031999007801999999MA1999999101131MD1210151+9999REMSYN08287576 32560 82303 10204 20172 30113 40136 52015 8687/ 333 56579 83626 85835 88360=
0219875760999992021010907004-34817-058533FM-12+002099999V0200901N00411009901CN010000199+01991+01701101191ADDGA1021+006601061GA2031+009901081GA3051+018001031GE19MSL   +99999+99999GF108991021999006601999999MA1999999100961MD1810031+9999REMSYN08287576 42560 80908 10199 20170 30096 40119 58003 84877 333 56276 82622 83833 85356=
0197875760999992021010908004-34817-058533FM-12+002099999V0200201N00151005401CN010000199+02171+01791101251ADDGA1051+005401061GA2081+030001031GE19MSL   +99999+99999GF108991051999005401999999MA1999999101021MD1510001+9999REMSYN07687576 42460 80203 10217 20179 30102 40125 55000 8557/ 333 56179 85618 88360=
0197875760999992021010909004-34817-058533FM-12+002099999V0200201N003110300019N010000199+02161+01691101231ADDGA1041+006001061GA2081+030001031GE19MSL   +99999+99999GF108991041999006001999999MA1999999101001MD1810131+9999REMSYN07687576 42560 80206 10216 20169 30100 40123 58013 8457/ 333 56179 84620 88360=
0197875760999992021010910004-34817-058533FM-12+002099999V0200501N002110600019N010000199+02121+01481101201ADDGA1031+030001031GA2061+060001021GE19MSL   +99999+99999GF106991031999030001999999MA1999999100971MD1990011+9999REMSYN07687576 42960 60504 10212 20148 30097 40120 50001 83076 333 56066 83360 86270=
0141875760999992021010911004-34467-058517FM-12+002099999V0200701N0026106000199010000199+02171+01501101261ADDAZ101011AZ201011GA1041+030001031GA2061+060001021GE19MSL   +99999+99999GF107991041999030001999999MA1999999101021MD1510001+9999REMSYN004BUFR
0235875760999992021010912004-34817-058533FM-12+002099999V0200501N00311030001CN010000199+02231+01421101291ADDGA1051+030001031GA2061+060001021GE19MSL   +99999+99999GF107991051999030001999999KA1240M+02441KA2240N+01921MA1999999101061MD1310071+9999REMSYN08887576 32960 70506 10223 20142 30106 40129 53007 85076 333 10244 20192 56066 85360 86270=
0197875760999992021010913004-34817-058533FM-12+002099999V0203601N00101027001CN010000199+02271+01511101311ADDGA1051+027001031GA2061+060001021GE19MSL   +99999+99999GF107991051999027001999999MA1999999101081MD1210111+9999REMSYN07687576 42960 73602 10227 20151 30108 40131 52011 85076 333 56076 85359 86270=
0163875760999992021010914004-34467-058517FM-12+002099999V0201401N0021106000199009000199+02221+01741101331ADDAY161011AY221011GA1011+012001081GA2041+027001031GA3061+060001021GE19MSL   +99999+99999GF107991011999012001999999MA1999999101101MD1210081+9999MW1601REMSYN004BUFR
0163875760999992021010915004-34467-058517FM-12+002099999V0203601N0010106000199010000199+02421+01671101291ADDAY161031AY221031GA1011+015001081GA2031+030001031GA3071+060001021GE19MSL   +99999+99999GF107991011999015001999999MA1999999101061MD1010001+9999MW1211REMSYN004BUFR
0241875760999992021010916004-34817-058533FM-12+002099999V0209999V00211060001CN010000199+02551+01501101211ADDAY161021AY221021GA1011+015001081GA2061+060001021GA3999+999999021GE19MSL   +99999+99999GF106991011999015001999999MA1999999100981MD1810091+9999MW1011REMSYN08287576 41760 69904 10255 20150 30098 40121 58009 70162 81176 333 56776 81850 86270=
0213875760999992021010917004-34817-058533FM-12+002099999V0209999V00211060001CN010000199+02701+01471101161ADDGA1011+015001081GA2051+060001021GA3999+999999021GE19MSL   +99999+99999GF105991011999015001999999MA1999999100931MD1710171+9999REMSYN07687576 42760 59904 10270 20147 30093 40116 57017 81176 333 56776 81850 85270=
0158875760999992021010918004-34467-058517FM-12+002099999V0203601N0010122000199010000199+02821+01551101061ADDAA106999999AY161061AY211061GA1011+015001081GA2031+060001021GE19MSL   +99999+99999GF103991011999015001999999MA1999999100821MD1710241+9999MW1011REMSYN004BUFR
0191875760999992021010919004-34817-058533FM-12+002099999V0209999C000012200019N010000199+02921+01521100981ADDGA1021+015001081GA2999+999999021GE19MSL   +99999+99999GF103991021999015001999999MA1999999100741MD1710241+9999REMSYN07087576 42760 30000 10292 20152 30074 40098 57024 82105 333 56706 82850=
0125875760999992021010920004-34467-058517FM-12+002099999V0200501N0062122000199010000199+02751+01631100941ADDAZ101011AZ201011GA1031+018001081GE19MSL   +99999+99999GF104991031999018001999999MA1999999100701MD1710231+9999REMSYN004BUFR
0207875760999992021010921004-34817-058533FM-12+002099999V0200501N006212200019N010000199+02741+01601100921ADDGA1011+015001081GA2999+999999031GA3999+999999021GE19MSL   +99999+99999GF102991011999015001999999MA1999999100691MD1710131+9999REMSYN07087576 42760 20512 10274 20160 30069 40092 57013 81155 333 56776 81850=
0175875760999992021010922004-34817-058533FM-12+002099999V0200501N005112200019N010000199+02591+01661100941ADDGA1011+030001031GE19MSL   +99999+99999GF101991011999030001999999MA1999999100701MD1510041+9999REMSYN07087576 42960 10510 10259 20166 30070 40094 55004 81050 333 56070 81360=
0175875760999992021010923004-34817-058533FM-12+002099999V0200701N005112200019N010000199+02471+01591100981ADDGA1011+030001031GE19MSL   +99999+99999GF101991011999030001999999MA1999999100741MD1310041+9999REMSYN07087576 42960 10710 10247 20159 30074 40098 53004 81030 333 56060 81360=
0229875760999992021011000004-34817-058533FM-12+002099999V0200701N003112200019N010000199+02361+01591101031ADDGA1011+012001061GA2999+999999031GE19MSL   +99999+99999GF102991011999012001999999KA1120M+03001KA2120N+02121MA1999999100801MD1210111+9999REMSYN08287576 32660 20706 10236 20159 30080 40103 52011 81530 333 10300 20212 56670 81640=
0175875760999992021011001004-34817-058533FM-12+002099999V0200701N003112200019N010000199+02271+01671101101ADDGA1011+030001031GE19MSL   +99999+99999GF101991011999030001999999MA1999999100861MD1210161+9999REMSYN07087576 42960 10706 10227 20167 30086 40110 52016 81030 333 56070 81360=
0089875760999992021011002004-34817-058533FM-12+002099999V0200701N003619999999N010000199+02251+01791101141ADDMA1999999100901MD1210161+9999REMSYN04887576 42960 00707 10225 20179 30090 40114 52016=
0089875760999992021011003004-34817-058533FM-12+002099999V0200701N003119999999N010000199+02341+01911101171ADDMA1999999100941MD1210151+9999REMSYN04887576 42960 00706 10234 20191 30094 40117 52015=
0089875760999992021011004004-34817-058533FM-12+002099999V0200701N002119999999N010000199+02221+01941101141ADDMA1999999100901MD1990041+9999REMSYN04887576 42960 00704 10222 20194 30090 40114 50004=
0089875760999992021011005004-34817-058533FM-12+002099999V0200501N002619999999N010000199+02371+01661101101ADDMA1999999100861MD1810041+9999REMSYN04887576 42960 00505 10237 20166 30086 40110 58004=
0089875760999992021011006004-34817-058533FM-12+002099999V0200501N003619999999N010000199+02351+01621101031ADDMA1999999100801MD1710151+9999REMSYN04887576 32960 00507 10235 20162 30080 40103 57015=
0089875760999992021011007004-34817-058533FM-12+002099999V0200701N004119999999N010000199+02251+01671101021ADDMA1999999100781MD1710121+9999REMSYN04887576 42960 00708 10225 20167 30078 40102 57012=
0089875760999992021011008004-34817-058533FM-12+002099999V0200501N004119999999N010000199+02261+01641101031ADDMA1999999100801MD1710071+9999REMSYN04887576 42960 00508 10226 20164 30080 40103 57007=
0089875760999992021011009004-34817-058533FM-12+002099999V0200701N003619999999N010000199+02211+01621101051ADDMA1999999100821MD1310031+9999REMSYN04887576 42960 00707 10221 20162 30082 40105 53003=
0089875760999992021011010004-34817-058533FM-12+002099999V0200701N002619999999N010000199+02211+01621101071ADDMA1999999100841MD1210051+9999REMSYN04887576 42960 00705 10221 20162 30084 40107 52005=
0087875760999992021011011004-34467-058517FM-12+002099999V0200201N0031122000199010000199+02471+01761101121ADDAZ101011AZ201011GF100991999999999999999999MA1999999100891MD1210091+9999REMSYN004BUFR
0148875760999992021011012004-34817-058533FM-12+002099999V0200201N003119999999N010000199+02641+01871101111ADDAA124000021KA1240M+02681KA2240N+02101MA1999999100881MD1990051+9999REMSYN07087576 12960 00206 10264 20187 30088 40111 50005 69904 333 10268 20210=
0087875760999992021011013004-34467-058517FM-12+002099999V0200501N0031122000199010000199+02811+01911101061ADDAZ101011AZ201011GF100991999999999999999999MA1999999100821MD1810011+9999REMSYN004BUFR
0089875760999992021011014004-34817-058533FM-12+002099999V0200501N005119999999N010000199+02971+01851101031ADDMA1999999100801MD1710091+9999REMSYN04887576 42960 00510 10297 20185 30080 40103 57009=
0175875760999992021011015004-34817-058533FM-12+002099999V0200501N005112200019N010000199+03141+01751100971ADDGA1011+015001081GE19MSL   +99999+99999GF101991011999015001999999MA1999999100741MD1710131+9999REMSYN07087576 42760 10510 10314 20175 30074 40097 57013 81100 333 56500 81850=
0125875760999992021011016004-34467-058517FM-12+002099999V0200501N0057122000199010000199+03171+01561100881ADDAZ101011AZ201011GA1011+015001081GE19MSL   +99999+99999GF101991011999015001999999MA1999999100651MD1710171+9999REMSYN004BUFR
0125875760999992021011017004-34467-058517FM-12+002099999V0200501N0051122000199010000199+03301+01481100811ADDAZ101011AZ201011GA1011+015001081GE19MSL   +99999+99999GF101991011999015001999999MA1999999100581MD1710211+9999REMSYN004BUFR
0175875760999992021011018004-34817-058533FM-12+002099999V0200201N005712200019N010000199+03341+01581100741ADDGA1011+015001081GE19MSL   +99999+99999GF101991011999015001999999MA1999999100501MD1710241+9999REMSYN07087576 32760 10211 10334 20158 30050 40074 57024 81100 333 56500 81850=
0125875760999992021011019004-34467-058517FM-12+002099999V0200501N0062122000199010000199+03401+01611100621ADDAZ101011AZ201011GA1011+015001081GE19MSL   +99999+99999GF101991011999015001999999MA1999999100381MD1710271+9999REMSYN004BUFR
0125875760999992021011020004-34467-058517FM-12+002099999V0200501N0057122000199010000199+03301+01641100491ADDAZ101011AZ201011GA1011+060001021GE19MSL   +99999+99999GF101991011999060001999999MA1999999100261MD1710321+9999REMSYN004BUFR
0125875760999992021011021004-34467-058517FM-12+002099999V0200701N0077122000199010000199+03301+01611100381ADDAZ101031AZ201031GA1021+060001021GE19MSL   +99999+99999GF102991021999060001999999MA1999999100141MD1710361+9999REMSYN004BUFR
0125875760999992021011022004-34467-058517FM-12+002099999V0200501N0057122000199010000199+03121+01721100381ADDAZ101011AZ201011GA1021+060001021GE19MSL   +99999+99999GF102991021999060001999999MA1999999100141MD1610241+9999REMSYN004BUFR
0197875760999992021011023004-34817-058533FM-12+002099999V0200901N00721030001CN010000199+02901+01761100381ADDGA1051+030001031GA2071+060001021GE19MSL   +99999+99999GF107991051999030001999999MA1999999100141MD1610121+9999REMSYN07687576 42960 70914 10290 20176 30014 40038 56012 85076 333 56056 85360 87270=
0235875760999992021011100004-34817-058533FM-12+002099999V0200901N006710600019N010000199+02781+01931100361ADDGA1041+030001031GA2051+060001021GE19MSL   +99999+99999GF106991041999030001999999KA1120M+03441KA2120N+02641MA1999999100131MD1810011+9999REMSYN08887576 32960 60913 10278 20193 30013 40036 58001 84076 333 10344 20264 56056 84360 85270=
0253875760999992021011101004-34817-058533FM-12+002099999V0200901N003110600019N010000199+02671+02041100351ADDAY121021AY211021GA1011+015001091GA2041+027001031GA3061+060001021GE19MSL   +99999+99999GF106991011999015001999999MA1999999100121MD1810031+9999MW1131REMSYN09487576 41760 60906 10267 20204 30012 40035 58003 71321 81976 333 56556 57959 81950 84359 86270=
0253875760999992021011102004-34817-058533FM-12+002099999V0200501N003610600019N010000199+02741+02151100251ADDAY121021AY221021GA1011+015001091GA2041+030001031GA3061+060001021GE19MSL   +99999+99999GF106991011999015001999999MA1999999100021MD1710121+9999MW1131REMSYN09487576 41760 60507 10274 20215 30002 40025 57012 71322 81976 333 56556 57954 81950 84360 86270=
0253875760999992021011103004-34817-058533FM-12+002099999V0202701N00621024001CN010000199+02521+02041100501ADDAY121021AY221021GA1011+013501091GA2051+024001031GA3071+060001021GE19MSL   +99999+99999GF108991011999013501999999MA1999999100261MD1310131+9999MW1131REMSYN09487576 41660 82712 10252 20204 30026 40050 53013 71322 81976 333 56556 57952 81945 85358 87270=
0259875760999992021011104004-34817-058533FM-12+002099999V0201601N003110300019N009000199+02281+02021100351ADDAY161021AY221021GA1031+012001061GA2011+013501091GA3081+030001031GE19MSL   +99999+99999GF108991031999012001999999MA1999999100121MD1510001+9999MW1601REMSYN10087576 41659 81606 10228 20202 30012 40035 55000 76062 8397/ 333 56569 57952 83640 81945 88360 96013=
0231875760999992021011105004-34817-058533FM-12+002099999V0202301N00821000901CN001500199+01841+01811100701ADDAY191021AY261021GA1051+000901071GA2011+013501091GE19MSL   +99999+99999GF108991051999000901999999MA1999999100461MD1310441+9999MW1951REMSYN08887576 41115 82316 10184 20181 30046 40070 53044 79596 889// 333 56699 57900 85703 81945=
0270875760999992021011106004-34817-058533FM-12+002099999V0201801N005110180019N009000199+01841+01711100511ADDAA106014031AY191021AY261021GA1011+003001071GA2011+013501091GA3081+018001051GE19MSL   +99999+99999GF108991011999003001999999MA1999999100281MD1990011+9999MW1951REMSYN10087576 11459 81810 10184 20171 30028 40051 50001 60141 79596 8397/ 333 56769 57900 81710 81945 88556=
0253875760999992021011107004-34817-058533FM-12+002099999V0202001N005110210019N003000199+01801+01721100641ADDAY191021AY291021GA1021+000901071GA2011+013501091GA3081+021001051GE19MSL   +99999+99999GF108991021999000901999999MA1999999100411MD1310291+9999MW1951REMSYN09487576 41130 82010 10180 20172 30041 40064 53029 79599 8592/ 333 56769 57900 82703 81945 88557=
0247875760999992021011108004-34817-058533FM-12+002099999V0202301N00311009601CN003000199+01801+01751100711ADDAY191021AY261021GA1031+000901071GA2051+009601081GA3081+021001051GE19MSL   +99999+99999GF108991031999000901999999MA1999999100481MD1310011+9999MW1911REMSYN08887576 41130 82306 10180 20175 30048 40071 53001 79196 8872/ 333 56799 83703 85832 88557=
0253875760999992021011109004-34817-058533FM-12+002099999V0200701N00361010201CN005000199+01801+01771100591ADDAY191021AY261021GA1051+010201061GA2011+013501091GA3081+021001051GE19MSL   +99999+99999GF108991051999010201999999MA1999999100361MD1990081+9999MW1951REMSYN09487576 41650 80707 10180 20177 30036 40059 50008 79596 8592/ 333 56799 57910 85634 81945 88557=
0253875760999992021011110004-34817-058533FM-12+002099999V0200201N00511012901CN005000199+01901+01771100571ADDAY191021AY261021GA1051+012901061GA2011+013501091GA3081+024001051GE19MSL   +99999+99999GF108991051999012901999999MA1999999100341MD1810071+9999MW1951REMSYN09487576 41650 80210 10190 20177 30034 40057 58007 79596 8592/ 333 56699 57900 85643 81945 88558=
0163875760999992021011111004-34467-058517FM-12+002099999V0201601N0026101320599005000199+01861+01831100421ADDAY191011AY261011GA1041+009601061GA2051+013201061GA3081+024001031GE19MSL   +99999+99999GF108991041999009601999999MA1999999100181MD1710291+9999MW1911REMSYN004BUFR
0325875760999992021011112004-34817-058533FM-12+002099999V0200201N004610114019N003000199+01921+01871100561ADDAA106020031AA224034031AY191021AY261021GA1031+000901071GA2071+011401061GA3011+015001091GE19MSL   +99999+99999GF108991031999000901999999KA1240M+02831KA2240N+01781MA1999999100331MD1510031+9999MW1951REMSYN11887576 01130 80209 10192 20187 30033 40056 55003 60344 79596 889// 333 10283 20178 56199 57900 60201 83703 87638 81950=
0275875760999992021011113004-34817-058533FM-12+002099999V0202701N00621001801CN003000199+01921+01871100871ADDAY191021AY261021GA1051+001801071GA2051+010201061GA3011+015001091GA4081+021001051GE19MSL   +99999+99999GF108991051999001801999999MA1999999100641MD1310291+9999MW1951REMSYN10087576 41230 82712 10192 20187 30064 40087 53029 79596 8697/ 333 56579 57900 85706 85634 81950 88557=
0247875760999992021011114004-34817-058533FM-12+002099999V0202901N00311011701CN005000199+01921+01861100931ADDAY191021AY261021GA1031+002701071GA2041+011701061GA3081+030001031GE19MSL   +99999+99999GF108991031999002701999999MA1999999100701MD1210521+9999MW1911REMSYN08887576 41350 82906 10192 20186 30070 40093 52052 79196 8577/ 333 56670 83709 84639 88360=
0225875760999992021011115004-34817-058533FM-12+002099999V0200201N002110300019N008000199+01961+01871100811ADDAY191021AY261021GA1031+003001071GA2081+030001031GE19MSL   +99999+99999GF108991031999003001999999MA1999999100581MD1990251+9999MW1611REMSYN08287576 41458 80204 10196 20187 30058 40081 50025 76196 8377/ 333 56779 83710 88360=
0147875760999992021011116004-34467-058517FM-12+002099999V0203601N0026103000199010000199+02021+01891100711ADDAY161011AY221011GA1021+001801071GA2081+030001031GE19MSL   +99999+99999GF108991021999001801999999MA1999999100481MD1810161+9999MW1211REMSYN004BUFR
0225875760999992021011117004-34817-058533FM-12+002099999V0200501N004610600019N010000199+02121+01901100451ADDAY161021AY221021GA1041+030001031GA2051+060001021GE19MSL   +99999+99999GF108991041999030001999999MA1999999100221MD1710481+9999MW1021REMSYN08287576 41960 80509 10212 20190 30022 40045 57048 70262 84086 333 56076 84360 85270=
0242875760999992021011118004-34817-058533FM-12+002099999V0203401N004610600019N010000199+02221+01961100541ADDAA106006031AY191021AY261021GA1041+030001031GA2061+060001021GE19MSL   +99999+99999GF108991041999030001999999MA1999999100301MD1510281+9999MW1021REMSYN08887576 11960 83409 10222 20196 30030 40054 55028 60061 70296 84086 333 56076 84360 86270=
0213875760999992021011119004-34817-058533FM-12+002099999V0202501N005710600019N010000199+02321+02001100641ADDGA1041+005401061GA2051+060001021GA3999+999999021GE19MSL   +99999+99999GF106991041999005401999999MA1999999100411MD1510071+9999REMSYN07687576 42460 62511 10232 20200 30041 40064 55007 84586 333 56566 84618 85270=
0157875760999992021011120004-34467-058517FM-12+002099999V0202301N00411030001C9010000199+02301+01901100671ADDAZ101011AZ201011GA1031+006601061GA2031+030001031GA3051+060001021GE19MSL   +99999+99999GF107991031999006601999999MA1999999100441MD1310211+9999REMSYN004BUFR
0213875760999992021011121004-34817-058533FM-12+002099999V0202301N004112200019N010000199+02411+01861100661ADDGA1021+007801061GA2031+060001021GA3999+999999021GE19MSL   +99999+99999GF104991021999007801999999MA1999999100421MD1990121+9999REMSYN07687576 42560 42308 10241 20186 30042 40066 50012 82586 333 56566 82626 83270=
0141875760999992021011122004-34467-058517FM-12+002099999V0202501N0031122000199010000199+02501+01761100751ADDAZ101011AZ201011GA1011+030001031GA2031+060001021GE19MSL   +99999+99999GF103991011999030001999999MA1999999100521MD1210111+9999REMSYN004BUFR
0125875760999992021011123004-34467-058517FM-12+002099999V0202701N0021122000199010000199+02371+01831100891ADDAZ101011AZ201011GA1011+030001031GE19MSL   +99999+99999GF102991011999030001999999MA1999999100661MD1210231+9999REMSYN004BUFR
0213875760999992021011200004-34817-058533FM-12+002099999V0202901N003112200019N010000199+02231+01871101031ADDGA1041+015001061GE19MSL   +99999+99999GF104991041999015001999999KA1120M+02511KA2120N+01841MA1999999100801MD1210371+9999REMSYN08287576 32760 42906 10223 20187 30080 40103 52037 84500 333 10251 20184 56500 84650=
0175875760999992021011201004-34817-058533FM-12+002099999V0202301N002112200019N010000199+02091+01841101181ADDGA1031+015001061GE19MSL   +99999+99999GF103991031999015001999999MA1999999100941MD1210431+9999REMSYN07087576 42760 32304 10209 20184 30094 40118 52043 83500 333 56500 83650=
0175875760999992021011202004-34817-058533FM-12+002099999V0201801N005112200019N010000199+02181+01341101301ADDGA1031+018001051GE19MSL   +99999+99999GF103991031999018001999999MA1999999101061MD1210401+9999REMSYN07087576 42760 31810 10218 20134 30106 40130 52040 83070 333 56050 83556=
0175875760999992021011203004-34817-058533FM-12+002099999V0201801N004612200019N010000199+02021+01371101441ADDGA1021+018001051GE19MSL   +99999+99999GF102991021999018001999999MA1999999101201MD1210401+9999REMSYN07087576 42760 21809 10202 20137 30120 40144 52040 82070 333 56050 82556=
0175875760999992021011204004-34817-058533FM-12+002099999V0201601N004612200019N010000199+01991+01231101481ADDGA1041+018001051GE19MSL   +99999+99999GF104991041999018001999999MA1999999101241MD1210291+9999REMSYN07087576 42760 41609 10199 20123 30124 40148 52029 84070 333 56060 84556=
0175875760999992021011205004-34817-058533FM-12+002099999V0201801N004612200019N010000199+01831+01241101511ADDGA1021+018001051GE19MSL   +99999+99999GF102991021999018001999999MA1999999101281MD1210211+9999REMSYN07087576 42760 21809 10183 20124 30128 40151 52021 82070 333 56060 82556=
0175875760999992021011206004-34817-058533FM-12+002099999V0201601N004612200019N010000199+01731+01191101531ADDGA1041+006901061GE19MSL   +99999+99999GF104991041999006901999999MA1999999101291MD1210091+9999REMSYN07087576 32560 41609 10173 20119 30129 40153 52009 84500 333 56060 84623=
0175875760999992021011207004-34817-058533FM-12+002099999V0201601N002612200019N010000199+01601+01061101611ADDGA1021+018001051GE19MSL   +99999+99999GF102991021999018001999999MA1999999101371MD1210131+9999REMSYN07087576 42760 21605 10160 20106 30137 40161 52013 82070 333 56060 82556=
0175875760999992021011208004-34817-058533FM-12+002099999V0201801N002112200019N010000199+01451+01141101671ADDGA1011+060001001GE19MSL   +99999+99999GF101991011999060001999999MA1999999101441MD1210161+9999REMSYN07087576 42960 11804 10145 20114 30144 40167 52016 80001 333 56006 81070=
0191875760999992021011209004-34817-058533FM-12+002099999V0201801N001512200019N010000199+01341+00971101771ADDGA1011+030001031GA2999+999999001GE19MSL   +99999+99999GF102991011999030001999999MA1999999101531MD1210241+9999REMSYN07087576 42960 21803 10134 20097 30153 40177 52024 81071 333 56066 81360=
0125875760999992021011210004-34467-058517FM-12+002099999V0202001N0010122000199010000199+01401+01011101841ADDAZ101011AZ201011GA1031+060001021GE19MSL   +99999+99999GF103991031999060001999999MA1999999101601MD1210231+9999REMSYN004BUFR
0125875760999992021011211004-34467-058517FM-12+002099999V0201401N0031106000199010000199+01661+00941101931ADDAZ101011AZ201011GA1051+060001021GE19MSL   +99999+99999GF105991051999060001999999MA1999999101691MD1210251+9999REMSYN004BUFR
0230875760999992021011212004-34817-058533FM-12+002099999V0201401N004112200019N010000199+01831+00681101951ADDAA124006031GA1041+060001021GE19MSL   +99999+99999GF104991041999060001999999KA1240M+02251KA2240N+01321MA1999999101721MD1210191+9999REMSYN08887576 12960 41408 10183 20068 30172 40195 52019 60064 80006 333 10225 20132 56006 84270=
0175875760999992021011213004-34817-058533FM-12+002099999V0201401N003610600019N010000199+01941+00521101991ADDGA1051+060001021GE19MSL   +99999+99999GF105991051999060001999999MA1999999101761MD1210161+9999REMSYN07087576 42960 51407 10194 20052 30176 40199 52016 80006 333 56006 85270=
0125875760999992021011214004-34467-058517FM-12+002099999V0201401N0036106000199010000199+02101+00491101951ADDAZ101011AZ201011GA1051+060001021GE19MSL   +99999+99999GF105991051999060001999999MA1999999101721MD1010031+9999REMSYN004BUFR
0175875760999992021011215004-34817-058533FM-12+002099999V0201401N004112200019N010000199+02211+00371102011ADDGA1041+060001021GE19MSL   +99999+99999GF104991041999060001999999MA1999999101771MD1310051+9999REMSYN07087576 42960 41408 10221 20037 30177 40201 53005 80006 333 56006 84270=
0125875760999992021011216004-34467-058517FM-12+002099999V0201101N0031122000199010000199+02301+00271101981ADDAZ101011AZ201011GA1011+060001021GE19MSL   +99999+99999GF101991011999060001999999MA1999999101741MD1810011+9999REMSYN004BUFR
0125875760999992021011217004-34467-058517FM-12+002099999V0200901N0026122000199010000199+02401+00241101921ADDAZ101011AZ201011GA1011+060001021GE19MSL   +99999+99999GF101991011999060001999999MA1999999101681MD1810041+9999REMSYN004BUFR
0136875760999992021011218004-34467-058517FM-12+002099999V0202701N0021122000199010000199+02451+00221101841ADDAA101999999AZ101061AZ201061GA1011+060001021GE19MSL   +99999+99999GF101991011999060001999999MA1999999101601MD1710171+9999REMSYN004BUFR
0087875760999992021011219004-34467-058517FM-12+002099999V0203601N0015122000199010000199+02471-00111101781ADDAZ101011AZ201011GF100991999999999999999999MA1999999101541MD1710201+9999REMSYN004BUFR
0089875760999992021011220004-34817-058533FM-12+002099999V0202301N001519999999N010000199+02501+00101101751ADDMA1999999101521MD1710161+9999REMSYN04887576 42960 02303 10250 20010 30152 40175 57016=
0125875760999992021011221004-34467-058517FM-12+002099999V0201801N0021122000199010000199+02501-00131101711ADDAZ101031AZ201031GA1011+030001031GE19MSL   +99999+99999GF101991011999030001999999MA1999999101461MD1710131+9999REMSYN004BUFR
0175875760999992021011222004-34817-058533FM-12+002099999V0201401N002112200019N010000199+02411+00171101691ADDGA1011+030001031GE19MSL   +99999+99999GF101991011999030001999999MA1999999101451MD1710091+9999REMSYN07087576 42960 11404 10241 20017 30145 40169 57009 81070 333 56060 81360=
0125875760999992021011223004-34467-058517FM-12+002099999V0200901N0057122000199010000199+02161+01042101741ADDAZ101011AZ201011GA1011+030001031GE19MSL   +99999+99999GF101991011999030001999999MA1999999101501MD1510011+9999REMSYN004BUFR
0124875760999992021011300004-34467-058517FM-12+002099999V0200901N0046122000199010000199+02021+01121101801ADDAA101999999AZ101061AZ201061GF100991999999999999999999KA1120M+02631KA2120N+01801MA1999999101561MD1310091+9999REMSYN004BUFR
0089875760999992021011301004-34817-058533FM-12+002099999V0200901N004119999999N010000199+01941+01111101911ADDMA1999999101681MD1210231+9999REMSYN04887576 42960 00908 10194 20111 30168 40191 52023=
0089875760999992021011302004-34817-058533FM-12+002099999V0201101N002119999999N010000199+01861+01161101961ADDMA1999999101721MD1210211+9999REMSYN04887576 42960 01104 10186 20116 30172 40196 52021=
0089875760999992021011303004-34817-058533FM-12+002099999V0201401N001519999999N010000199+01661+01151102001ADDMA1999999101761MD1210201+9999REMSYN04887576 42960 01403 10166 20115 30176 40200 52020=
0089875760999992021011304004-34817-058533FM-12+002099999V0200901N002119999999N010000199+01721+01181102001ADDMA1999999101761MD1110081+9999REMSYN04887576 42960 00904 10172 20118 30176 40200 51008=
0197875760999992021011305004-34817-058533FM-12+002099999V0201401N001512200019N010000199+01501+01171101991ADDGA1021+030001031GA2031+060001021GE19MSL   +99999+99999GF103991021999030001999999MA1999999101761MD1310041+9999REMSYN07687576 42960 31403 10150 20117 30176 40199 53004 82075 333 56076 82360 83270=
0175875760999992021011306004-34817-058533FM-12+002099999V0201401N00151030001CN010000199+01641+01301101991ADDGA1071+030001031GE19MSL   +99999+99999GF107991071999030001999999MA1999999101761MD1410001+9999REMSYN07087576 32960 71403 10164 20130 30176 40199 54000 87070 333 56070 87360=
0175875760999992021011307004-34817-058533FM-12+002099999V0200501N00411030001CN010000199+01861+01301102031ADDGA1071+030001031GE19MSL   +99999+99999GF107991071999030001999999MA1999999101801MD1110041+9999REMSYN07087576 42960 70508 10186 20130 30180 40203 51004 87070 333 56070 87360=
0197875760999992021011308004-34817-058533FM-12+002099999V0200701N00411030001CN010000199+01881+01081102081ADDGA1061+030001031GA2051+060001021GE19MSL   +99999+99999GF107991061999030001999999MA1999999101841MD1210081+9999REMSYN07687576 42960 70708 10188 20108 30184 40208 52008 86076 333 56067 86360 85270=
0197875760999992021011309004-34817-058533FM-12+002099999V0200501N00261030001CN010000199+01861+01221102131ADDGA1051+030001031GA2051+060001021GE19MSL   +99999+99999GF105991051999030001999999MA1999999101891MD1210131+9999REMSYN07687576 42960 50505 10186 20122 30189 40213 52013 85076 333 56076 85360 85270=
0141875760999992021011310004-34467-058517FM-12+002099999V0200501N00261060001C9010000199+01851+01111102171ADDAZ101011AZ201011GA1041+030001031GA2031+060001021GE19MSL   +99999+99999GF105991041999030001999999MA1999999101931MD1210131+9999REMSYN004BUFR
0197875760999992021011311004-34817-058533FM-12+002099999V0200501N004612200019N010000199+02041+01271102231ADDGA1011+030001031GA2031+060001021GE19MSL   +99999+99999GF104991011999030001999999MA1999999102001MD1210161+9999REMSYN07687576 42960 40509 10204 20127 30200 40223 52016 81036 333 56076 81360 83270=
0213875760999992021011312004-34817-058533FM-12+002099999V0200501N005112200019N010000199+02211+01041102241ADDGA1011+060001021GE19MSL   +99999+99999GF101991011999060001999999KA1240M+02241KA2240N+01401MA1999999102001MD1110111+9999REMSYN08287576 32960 10510 10221 20104 30200 40224 51011 80005 333 10224 20140 56006 81270=
0089875760999992021011313004-34817-058533FM-12+002099999V0200501N004119999999N010000199+02291+00861102221ADDMA1999999101981MD1990051+9999REMSYN04887576 42960 00508 10229 20086 30198 40222 50005=
0089875760999992021011314004-34817-058533FM-12+002099999V0200701N003619999999N010000199+02381+00601102201ADDMA1999999101961MD1810041+9999REMSYN04887576 42960 00707 10238 20060 30196 40220 58004=
0089875760999992021011315004-34817-058533FM-12+002099999V0200701N003119999999N010000199+02481+00441102191ADDMA1999999101961MD1610041+9999REMSYN04887576 42960 00706 10248 20044 30196 40219 56004=
0089875760999992021011316004-34817-058533FM-12+002099999V0200701N004119999999N010000199+02621+00441102141ADDMA1999999101901MD1810081+9999REMSYN04887576 42960 00708 10262 20044 30190 40214 58008=
0089875760999992021011317004-34817-058533FM-12+002099999V0201101N005119999999N010000199+02671+00201102131ADDMA1999999101891MD1810071+9999REMSYN04887576 42960 01110 10267 20020 30189 40213 58007=
0089875760999992021011318004-34817-058533FM-12+002099999V0200701N005119999999N020000199+02711+00321102081ADDMA1999999101841MD1710121+9999REMSYN04887576 32970 00710 10271 20032 30184 40208 57012=
0089875760999992021011319004-34817-058533FM-12+002099999V0200901N005119999999N010000199+02741+00411102021ADDMA1999999101801MD1710111+9999REMSYN04887576 42960 00910 10274 20041 30180 40202 57011=
0089875760999992021011320004-34817-058533FM-12+002099999V0200901N006219999999N010000199+02691+00451101961ADDMA1999999101731MD1710161+9999REMSYN04887576 42960 00912 10269 20045 30173 40196 57016=
0087875760999992021011321004-34467-058517FM-12+002099999V0201101N0062122000199010000199+02661-00151101951ADDAZ101031AZ201031GF100991999999999999999999MA1999999101721MD1710121+9999REMSYN004BUFR
0087875760999992021011322004-34467-058517FM-12+002099999V0200901N0062122000199010000199+02571+00041101951ADDAZ101011AZ201011GF100991999999999999999999MA1999999101721MD1610081+9999REMSYN004BUFR
0087875760999992021011323004-34467-058517FM-12+002099999V0201101N0062122000199010000199+02361+00621101991ADDAZ101011AZ201011GF100991999999999999999999MA1999999101761MD1310031+9999REMSYN004BUFR
0131875760999992021011400004-34817-058533FM-12+002099999V0201101N005719999999N010000199+02181+00831102031ADDKA1120M+02851KA2120N+02151MA1999999101801MD1210081+9999REMSYN06487576 32960 01111 10218 20083 30180 40203 52008 333 10285 20215=
0089875760999992021011401004-34817-058533FM-12+002099999V0201101N004119999999N010000199+02061+01211102061ADDMA1999999101821MD1210111+9999REMSYN04887576 42960 01108 10206 20121 30182 40206 52011=
0089875760999992021011402004-34817-058533FM-12+002099999V0201101N004619999999N010000199+02041+01311102051ADDMA1999999101811MD1990051+9999REMSYN04887576 42960 01109 10204 20131 30181 40205 50005=
0089875760999992021011403004-34817-058533FM-12+002099999V0200901N006219999999N010000199+02101+01341102031ADDMA1999999101801MD1990001+9999REMSYN04887576 42960 00912 10210 20134 30180 40203 50000=
0099875760999992021011404004-34817-058533FM-12+002099999V0200901N007719999999N010000199+02141+01311102021ADDMA1999999101801MD1610031+9999REMSYN05887576 42960 00915 10214 20131 30180 40202 56003 555 10204=
0089875760999992021011405004-34817-058533FM-12+002099999V0200701N008219999999N010000199+02141+01141102061ADDMA1999999101841MD1310031+9999REMSYN04887576 42960 00716 10214 20114 30184 40206 53003=
0089875760999992021011406004-34817-058533FM-12+002099999V0200701N007719999999N010000199+02061+01091102071ADDMA1999999101841MD1110041+9999REMSYN04887576 32960 00715 10206 20109 30184 40207 51004=
0089875760999992021011407004-34817-058533FM-12+002099999V0200701N007219999999N010000199+02001+01221102051ADDMA1999999101821MD1990031+9999REMSYN04887576 42960 00714 10200 20122 30182 40205 50003=
0089875760999992021011408004-34817-058533FM-12+002099999V0200701N007219999999N010000199+01921+01211102031ADDMA1999999101801MD1710041+9999REMSYN04887576 42960 00714 10192 20121 30180 40203 57004=
0191875760999992021011409004-34817-058533FM-12+002099999V0200701N004612200019N010000199+01921+01251102161ADDGA1011+030001031GA2999+999999021GE19MSL   +99999+99999GF101991011999030001999999MA1999999101921MD1310081+9999REMSYN07087576 42960 10709 10192 20125 30192 40216 53008 81035 333 56066 81360=
0175875760999992021011410004-34817-058533FM-12+002099999V0200701N005712200019N010000199+01941+01231102131ADDGA1011+030001031GE19MSL   +99999+99999GF101991011999030001999999MA1999999101891MD1990071+9999REMSYN07087576 42960 10711 10194 20123 30189 40213 50007 81030 333 56060 81360=
0175875760999992021011411004-34817-058533FM-12+002099999V0200501N006712200019N010000199+02061+01261102141ADDGA1011+030001031GE19MSL   +99999+99999GF101991011999030001999999MA1999999101901MD1210111+9999REMSYN07087576 42960 10513 10206 20126 30190 40214 52011 81030 333 56060 81360=
0162875760999992021011412004-34467-058517FM-12+002099999V0200501N0093122000199010000199+02161+01171102031ADDAA101999999AZ101061AZ201061GA1021+060001001GE19MSL   +99999+99999GF102991021999060001999999KA1120M+02231KA2120N+01801MA1999999101801MD1810121+9999REMSYN004BUFR
0087875760999992021011413004-34467-058517FM-12+002099999V0200501N0072122000199010000199+02361+01211102041ADDAZ101011AZ201011GF100991999999999999999999MA1999999101801MD1510091+9999REMSYN004BUFR
0087875760999992021011414004-34467-058517FM-12+002099999V0200501N0067122000199010000199+02401+01181101991ADDAZ101011AZ201011GF100991999999999999999999MA1999999101761MD1810151+9999REMSYN004BUFR
0089875760999992021011415004-34817-058533FM-12+002099999V0200501N006219999999N010000199+02621+00931101891ADDMA1999999101661MD1710131+9999REMSYN04887576 42960 00512 10262 20093 30166 40189 57013=
0089875760999992021011416004-34817-058533FM-12+002099999V0200701N006719999999N010000199+02681+00871101801ADDMA1999999101571MD1710231+9999REMSYN04887576 42960 00713 10268 20087 30157 40180 57023=
0087875760999992021011417004-34467-058517FM-12+002099999V0200901N0072122000199010000199+02821+00831101721ADDAZ101011AZ201011GF100991999999999999999999MA1999999101491MD1710271+9999REMSYN004BUFR
0098875760999992021011418004-34467-058517FM-12+002099999V0200501N0072122000199010000199+02901+00751101631ADDAA101999999AZ101061AZ201061GF100991999999999999999999MA1999999101401MD1710271+9999REMSYN004BUFR
0087875760999992021011419004-34467-058517FM-12+002099999V0200701N0067122000199010000199+02921+00721101561ADDAZ101011AZ201011GF100991999999999999999999MA1999999101331MD1710241+9999REMSYN004BUFR
0089875760999992021011420004-34817-058533FM-12+002099999V0200901N007719999999N010000199+02921+00991101471ADDMA1999999101241MD1710251+9999REMSYN04887576 42960 00915 10292 20099 30124 40147 57025=
0087875760999992021011421004-34467-058517FM-12+002099999V0200901N0077122000199010000199+02901+01111101411ADDAZ101031AZ201031GF100991999999999999999999MA1999999101181MD1710211+9999REMSYN004BUFR
0125875760999992021011422004-34467-058517FM-12+002099999V0201101N0077122000199010000199+02701+01411101381ADDAZ101011AZ201011GA1011+030001031GE19MSL   +99999+99999GF101991011999030001999999MA1999999101141MD1710191+9999REMSYN004BUFR
0125875760999992021011423004-34467-058517FM-12+002099999V0201101N0072122000199010000199+02521+01481101361ADDAZ101011AZ201011GA1011+030001031GE19MSL   +99999+99999GF101991011999030001999999MA1999999101131MD1710111+9999REMSYN004BUFR
0131875760999992021011500004-34817-058533FM-12+002099999V0201101N005719999999N010000199+02371+01661101331ADDKA1120M+03151KA2120N+02161MA1999999101101MD1710081+9999REMSYN06487576 32960 01111 10237 20166 30110 40133 57008 333 10315 20216=
0089875760999992021011501004-34817-058533FM-12+002099999V0200901N006219999999N010000199+02331+01761101311ADDMA1999999101081MD1710071+9999REMSYN04887576 42960 00912 10233 20176 30108 40131 57007=
0175875760999992021011502004-34817-058533FM-12+002099999V0200701N007212200019N010000199+02541+01411101291ADDGA1021+060001001GE19MSL   +99999+99999GF102991021999060001999999MA1999999101061MD1710071+9999REMSYN07087576 42960 20714 10254 20141 30106 40129 57007 80001 333 56007 82070=
0197875760999992021011503004-34817-058533FM-12+002099999V0200701N009319999999N010000199+02531+01311101281ADDGA1021+030001031GA2031+060001021GE19MSL   +99999+99999GF105991021999030001999999MA1999999101051MD1710051+9999REMSYN07687576 42960 50718 10253 20131 30105 40128 57005 82036 333 56067 82360 83270=
0191875760999992021011504004-34817-058533FM-12+002099999V0200701N008819999999N010000199+02421+01231101251ADDGA1041+030001031GA2999+999999021GE19MSL   +99999+99999GF105991041999030001999999MA1999999101021MD1710051+9999REMSYN07087576 42960 50717 10242 20123 30102 40125 57005 84036 333 56077 84360=
0213875760999992021011505004-34817-058533FM-12+002099999V0200701N007219999999N010000199+02331+01361101221ADDGA1011+009601081GA2041+030001031GA3999+999999021GE19MSL   +99999+99999GF105991011999009601999999MA1999999100981MD1710081+9999REMSYN07687576 42560 50714 10233 20136 30098 40122 57008 81186 333 56788 81832 84360=
0197875760999992021011506004-34817-058533FM-12+002099999V0200501N007712200019N010000199+02261+01481101151ADDGA1011+009601081GA2031+030001031GE19MSL   +99999+99999GF104991011999009601999999MA1999999100921MD1710131+9999REMSYN07687576 32560 40515 10226 20148 30092 40115 57013 81180 333 56780 81832 83360=
0175875760999992021011507004-34817-058533FM-12+002099999V0200501N00721030001CN010000199+02231+01521101121ADDGA1051+030001031GE19MSL   +99999+99999GF105991051999030001999999MA1999999100891MD1710131+9999REMSYN07087576 42960 50514 10223 20152 30089 40112 57013 85080 333 56080 85360=
0197875760999992021011508004-34817-058533FM-12+002099999V0200501N00721060001CN010000199+02191+01551101071ADDGA1041+030001031GA2031+060001021GE19MSL   +99999+99999GF106991041999030001999999MA1999999100841MD1710151+9999REMSYN07687576 42960 60514 10219 20155 30084 40107 57015 84086 333 56087 84360 83270=
0225875760999992021011509004-34817-058533FM-12+002099999V0200501N00621030001CN009000199+02181+01571101111ADDAY121021AY221021GA1051+030001031GA2041+060001021GE19MSL   +99999+99999GF107991051999030001999999MA1999999100881MD1510041+9999MW1131REMSYN08287576 41959 70512 10218 20157 30088 40111 55004 71322 85076 333 56077 85360 84270=
0231875760999992021011510004-34817-058533FM-12+002099999V0200201N002110300019N009000199+02191+01621101381ADDAY181021AY221021GA1011+015001091GA2081+030001031GE19MSL   +99999+99999GF108991011999015001999999MA1999999101141MD1310251+9999MW1801REMSYN08887576 41759 80204 10219 20162 30114 40138 53025 78082 8197/ 333 56889 57960 81950 88360=
0225875760999992021011511004-34817-058533FM-12+002099999V0200701N003110600019N010000199+02221+01711101291ADDAY181021AY281021GA1061+060001021GA2051+030001031GE19MSL   +99999+99999GF108991061999060001999999MA1999999101061MD1990231+9999MW1251REMSYN08287576 41960 80706 10222 20171 30106 40129 50023 72588 87670 333 56079 86270 85360=
0297875760999992021011512004-34817-058533FM-12+002099999V0200501N00571060001CN010000199+02461+01691101191ADDAA106000021AA224000021AY181021AY221021GA1031+030001031GA2051+060001021GE19MSL   +99999+99999GF105991031999030001999999KA1240M+02631KA2240N+02001MA1999999100961MD1990081+9999MW1011REMSYN10687576 01960 50511 10246 20169 30096 40119 50008 69904 70182 83076 333 10263 20200 56076 69901 83360 85270=
0197875760999992021011513004-34817-058533FM-12+002099999V0200201N003110600019N010000199+02341+01681101151ADDGA1021+030001031GA2071+060001021GE19MSL   +99999+99999GF107991021999030001999999MA1999999100921MD1710231+9999REMSYN07687576 42960 70206 10234 20168 30092 40115 57023 82078 333 56076 82360 87270=
0141875760999992021011514004-34467-058517FM-12+002099999V0200201N0036106000199010000199+02351+01701101071ADDAZ101011AZ201011GA1021+030001031GA2081+060001021GE19MSL   +99999+99999GF108991021999030001999999MA1999999100841MD1710231+9999REMSYN004BUFR
0147875760999992021011515004-34467-058517FM-12+002099999V0203401N0021102100199009000199+02251+01781100931ADDAY161031AY221031GA1011+013801081GA2081+021001051GE19MSL   +99999+99999GF108991011999013801999999MA1999999100701MD1710251+9999MW1601REMSYN004BUFR
0225875760999992021011516004-34817-058533FM-12+002099999V0200201N004610180019N009000199+02241+01781100781ADDAY161021AY261021GA1011+015001061GA2081+018001051GE19MSL   +99999+99999GF108991011999015001999999MA1999999100541MD1710371+9999MW1601REMSYN08287576 41759 80209 10224 20178 30054 40078 57037 76066 8152/ 333 56669 81650 88556=
0225875760999992021011517004-34817-058533FM-12+002099999V0200501N007210300019N010000199+02351+01731100601ADDAY161021AY221021GA1021+009001081GA2081+030001031GE19MSL   +99999+99999GF108991021999009001999999MA1999999100371MD1710471+9999MW1211REMSYN08287576 41560 80514 10235 20173 30037 40060 57047 72162 8227/ 333 56369 82830 88360=
0264875760999992021011518004-34817-058533FM-12+002099999V0203601N00101008401CN010000199+02291+01781100821ADDAA106000021AY161021AY221021GA1021+006301061GA2031+008401081GA3081+018001051GE19MSL   +99999+99999GF108991021999006301999999MA1999999100581MD1510121+9999MW1021REMSYN09487576 11560 83602 10229 20178 30058 40082 55012 69901 70262 8387/ 333 56360 82621 83828 88556=
0157875760999992021011519004-34467-058517FM-12+004599999V0203601N0015103000199010000199+02271+01821100741ADDAZ101011AZ201011GA1021+015001081GA2081+030001031GA3999+999999081GE19MSL   +99999+99999GF108991021999015001999999MA1999999100501MD1810041+9999REMSYN004BUFR
0141875760999992021011520004-34467-058517FM-12+002099999V0201401N00211030005C9010000199+02321+01801100641ADDAZ101011AZ201011GA1051+030001031GA2081+060001021GE19MSL   +99999+99999GF108991051999030001999999MA1999999100411MD1010041+9999REMSYN004BUFR
0197875760999992021011521004-34817-058533FM-12+002099999V0201101N00211030001CN010000199+02351+01781100501ADDGA1051+030001031GA2081+060001021GE19MSL   +99999+99999GF108991051999030001999999MA1999999100261MD1710321+9999REMSYN07687576 42960 81104 10235 20178 30026 40050 57032 85077 333 56066 85360 88270=
0141875760999992021011522004-34467-058517FM-12+002099999V0200501N0051106000199010000199+02311+01811100541ADDAZ101011AZ201011GA1031+030001031GA2071+060001021GE19MSL   +99999+99999GF107991031999030001999999MA1999999100301MD1510201+9999REMSYN004BUFR
0141875760999992021011523004-34467-058517FM-12+002099999V0200901N0021106000199010000199+02321+01821100511ADDAZ101011AZ201011GA1031+030001031GA2061+060001021GE19MSL   +99999+99999GF106991031999030001999999MA1999999100281MD1810131+9999REMSYN004BUFR
0178875760999992021011600004-34467-058517FM-12+002099999V0202301N0015106000199010000199+02161+01841100531ADDAA101999999AZ101061AZ201061GA1041+030001031GA2061+060001021GE19MSL   +99999+99999GF106991041999030001999999KA1120M+02731KA2120N+02101MA1999999100301MD1310041+9999REMSYN004BUFR
0197875760999992021011601004-34817-058533FM-12+002099999V0201401N00051060001CN010000199+02101+01851100581ADDGA1031+030001031GA2051+060001021GE19MSL   +99999+99999GF106991031999030001999999MA1999999100341MD1210041+9999REMSYN07687576 42960 61401 10210 20185 30034 40058 52004 83078 333 56066 83360 85270=
0191875760999992021011602004-34817-058533FM-12+002099999V0201701N001512200019N010000199+01961+01801100511ADDGA1031+030001031GA2999+999999021GE19MSL   +99999+99999GF103991031999030001999999MA1999999100281MD1990001+9999REMSYN07087576 42960 31703 10196 20180 30028 40051 50000 83036 333 56066 83360=
0175875760999992021011603004-34817-058533FM-12+002099999V0201601N002112200019N010000199+02021+01831100481ADDGA1011+060001021GE19MSL   +99999+99999GF101991011999060001999999MA1999999100251MD1810051+9999REMSYN07087576 42960 11604 10202 20183 30025 40048 58005 80006 333 56006 81270=
0125875760999992021011604004-34467-058517FM-12+002099999V0201101N0015122000199010000199+02021+01831100441ADDAZ101011AZ201011GA1011+030001031GE19MSL   +99999+99999GF101991011999030001999999MA1999999100211MD1710141+9999REMSYN004BUFR
0191875760999992021011605004-34817-058533FM-12+002099999V0201101N001512200019N010000199+02001+01841100411ADDGA1021+030001031GA2999+999999021GE19MSL   +99999+99999GF102991021999030001999999MA1999999100181MD1710101+9999REMSYN07087576 42960 21103 10200 20184 30018 40041 57010 82036 333 56066 82360=
0191875760999992021011606004-34817-058533FM-12+002099999V0202101N001012200019N010000199+01861+01761100361ADDGA1021+030001031GA2999+999999021GE19MSL   +99999+99999GF102991021999030001999999MA1999999100131MD1710121+9999REMSYN07087576 32960 22102 10186 20176 30013 40036 57012 82036 333 56066 82360=
0203875760999992021011607004-34817-058533FM-12+002099999V0202501N00151003001CN007000199+01921+01791100381ADDAY111021AY211021GA1081+003001071GE19MSL   +99999+99999GF108991081999003001999999MA1999999100141MD1510071+9999MW1101REMSYN07687576 41457 82503 10192 20179 30014 40038 55007 71011 886// 333 56199 88710=
0203875760999992021011608004-34817-058533FM-12+002099999V0202201N00151002401CN007000199+01961+01831100381ADDAY101021AY201021GA1081+002401071GE19MSL   +99999+99999GF108991081999002401999999MA1999999100141MD1710041+9999MW1101REMSYN07687576 41357 82203 10196 20183 30014 40038 57004 71000 886// 333 56199 88708=
0203875760999992021011609004-34817-058533FM-12+002099999V0202001N00101002401CN007000199+01981+01851100411ADDAY121021AY221021GA1081+002401071GE19MSL   +99999+99999GF108991081999002401999999MA1999999100181MD1310051+9999MW1101REMSYN07687576 41357 82002 10198 20185 30018 40041 53005 71022 886// 333 56099 88708=
0203875760999992021011610004-34817-058533FM-12+002099999V0202001N00101002401CN004000199+02021+01891100451ADDAY101021AY201021GA1081+002401071GE19MSL   +99999+99999GF108991081999002401999999MA1999999100221MD1210081+9999MW1101REMSYN07687576 41340 82002 10202 20189 30022 40045 52008 71000 886// 333 56699 88708=
0157875760999992021011611004-34467-058517FM-12+002099999V0201801N00261001805C9005000199+02061+01941100451ADDAZ101011AZ201011GA1051+001801071GA2071+005101061GA3081+030001031GE19MSL   +99999+99999GF108991051999001801999999MA1999999100221MD1110081+9999REMSYN004BUFR
0263875760999992021011612004-34817-058533FM-12+002099999V0201801N00261001801CN008000199+02211+02011100481ADDAY121021AY221021GA1071+001801071GA2081+030001031GE19MSL   +99999+99999GF108991071999001801999999KA1240M+02281KA2240N+01801MA1999999100251MD1110071+9999MW1101REMSYN09487576 31258 81805 10221 20201 30025 40048 51007 71022 8767/ 333 10228 20180 56459 87706 88360=
0216875760999992021011613004-34817-058533FM-12+002099999V0201801N00261999999CN010000199+02481+02021100481ADDGA1031+005101081GA2041+060001021GE19MSL   +99999+99999GF104991031999005101999999MA1999999100251MD1990031+9999REMSYN07687576 42460 41805 10248 20202 30025 40048 50003 83106 333 56406 83817 84270=EQDQ01 060003SCOCIG
0216875760999992021011614004-34817-058533FM-12+002099999V0201801N00151999999CN010000199+02721+01931100471ADDGA1031+008101081GA2041+060001021GE19MSL   +99999+99999GF104991031999008101999999MA1999999100241MD1990011+9999REMSYN07687576 42560 41803 10272 20193 30024 40047 50001 83106 333 56406 83827 84270=EQDQ01 060003SCOCIG
0197875760999992021011615004-34817-058533FM-12+002099999V0202001N00361010801CN010000199+02821+01871100411ADDGA1051+010801081GA2041+060001021GE19MSL   +99999+99999GF105991051999010801999999MA1999999100181MD1810071+9999REMSYN07687576 42660 52007 10282 20187 30018 40041 58007 85106 333 56506 85836 84270=
0141875760999992021011616004-34467-058517FM-12+002099999V0202001N0031106000199010000199+03001+01851100311ADDAZ101011AZ201011GA1041+012901081GA2051+060001021GE19MSL   +99999+99999GF105991041999012901999999MA1999999100081MD1710171+9999REMSYN004BUFR
0197875760999992021011617004-34817-058533FM-12+002099999V0202301N003610600019N010000199+03061+01561100241ADDGA1041+015001081GA2051+060001021GE19MSL   +99999+99999GF105991041999015001999999MA1999999100011MD1710231+9999REMSYN07687576 42760 52307 10306 20156 30001 40024 57023 84106 333 56406 84850 85270=
0225875760999992021011618004-34817-058533FM-12+002099999V0202301N00311030001CN010000199+03041+01701100241ADDGA1041+015001081GA2041+030001031GA3071+060001021GE19MSL   +99999+99999GF107991041999015001999999MA1999999100011MD1610171+9999REMSYN08887576 32760 72306 10304 20170 30001 40024 56017 84286 333 56546 57859 84850 84360 87270=
0225875760999992021011619004-34817-058533FM-12+002099999V0202701N004610300019N010000199+03081+01821100231ADDGA1041+015001081GA2051+030001031GA3071+060001021GE19MSL   +99999+99999GF107991041999015001999999MA1999999100001MD1610081+9999REMSYN08887576 42760 72709 10308 20182 30000 40023 56008 84286 333 56456 57849 84850 85360 87270=
0219875760999992021011620004-34817-058533FM-12+002099999V0202701N00361015001CN010000199+02981+01701099931ADDGA1061+015001061GA2071+030001031GA3081+060001021GE19MSL   +99999+99999GF108991061999015001999999MA1999999099701MD1710311+9999REMSYN08287576 42760 82707 10298 20170 39970 49993 57031 86576 333 56456 86650 87360 88270=
0197875760999992021011621004-34817-058533FM-12+002099999V0202001N00361014101CN010000199+02182+01831100351ADDGA1051+014101071GA2081+030001031GE19MSL   +99999+99999GF108991051999014101999999MA1999999100121MD1310111+9999REMSYN07687576 42660 82007 10218 20183 30012 40035 53011 8577/ 333 56549 85747 88360=
0141875760999992021011622004-34467-058517FM-12+002099999V0202301N00211030005C9010000199+02261+01781100361ADDAZ101011AZ201011GA1071+030001031GA2081+060001021GE19MSL   +99999+99999GF108991071999030001999999MA1999999100131MD1210131+9999REMSYN004BUFR
0219875760999992021011623004-34817-058533FM-12+002099999V0202001N00311006901CN010000199+02201+01841100461ADDGA1031+005401081GA2041+006901061GA3051+030001031GE19MSL   +99999+99999GF108991031999005401999999MA1999999100221MD1210521+9999REMSYN08287576 42460 82006 10220 20184 30022 40046 52052 84876 333 56456 83818 84623 85360=
0251875760999992021011700004-34817-058533FM-12+002099999V0202001N003619999999N010000199+02081+01811100521ADDGA1011+004801081GA2041+009001061GA3999+999999021GE19MSL   +99999+99999GF107991011999004801999999KA1120M+03231KA2120N+02001MA1999999100291MD1210171+9999REMSYN08887576 32460 72007 10208 20181 30029 40052 52017 84876 333 10323 20200 56455 81816 84630=
0197875760999992021011701004-34817-058533FM-12+002099999V0202001N00461003601CN010000199+02011+01751100571ADDGA1051+003601071GA2051+006001061GE19MSL   +99999+99999GF108991051999003601999999MA1999999100341MD1210211+9999REMSYN07687576 42460 82009 10201 20175 30034 40057 52021 8777/ 333 56559 85712 85620=
