0230875530999992024010100004-34450-058583FM-12+000399999V0201101N00511030001CN010000199+02461+01621101361ADDAA106000091GA1061+030001031GE19AGL   +99999+99999GF106991061999030001999999KA1120M+02811KA2120N+02191MA1999999101281MD1410001+9999REMSYN08887553 12960 61110 10246 20162 30128 40136 54000 60001 86070 333 10281 20219 56060 86360=
0086875530999992024010100004-34453-058590FM-15+000399999V0201101N005119999999Y009900599+02501+01601999999ADDMA1101301999999REMMET059METAR COR SADF 010000Z 11010KT CAVOK 25/16 Q1013 RMK PP000=
0197875530999992024010101004-34450-058583FM-12+000399999V0200801N00511030001CN010000199+02421+01611101441ADDGA1051+030001031GA2041+060001021GE19AGL   +99999+99999GF105991051999030001999999MA1999999101361MD1310111+9999REMSYN07687553 42960 50810 10242 20161 30136 40144 53011 85076 333 56066 85360 84270=
0086875530999992024010101004-34453-058590FM-15+000399999V0200801N005119999999Y009900599+02401+01601999999ADDMA1101401999999REMMET059METAR COR SADF 010100Z 08010KT CAVOK 24/16 Q1014 RMK PP000=
0175875530999992024010102004-34450-058583FM-12+000399999V0200201N00211030001CN010000199+02261+01591101501ADDGA1051+030001031GE19AGL   +99999+99999GF105991051999030001999999MA1999999101411MD1210171+9999REMSYN07087553 42960 50204 10226 20159 30141 40150 52017 85070 333 56060 85360=
0086875530999992024010102004-34453-058590FM-15+000399999V0200201N002119999999Y009900599+02301+01601999999ADDMA1101501999999REMMET059METAR COR SADF 010200Z 02004KT CAVOK 23/16 Q1015 RMK PP000=
0086875530999992024010103004-34453-058590FM-15+000399999V0200301N001019999999Y009900599+02301+01501999999ADDMA1101501999999REMMET059METAR COR SADF 010300Z 03002KT CAVOK 23/15 Q1015 RMK PP000=
0175875530999992024010104004-34450-058583FM-12+000399999V0200501N00211030001CN010000199+02141+01371101431ADDGA1051+030001031GE19AGL   +99999+99999GF105991051999030001999999MA1999999101341MD1810011+9999REMSYN07087553 42960 50504 10214 20137 30134 40143 58001 85070 333 56060 85360=
0086875530999992024010104004-34453-058590FM-15+000399999V0200501N002119999999Y009900599+02101+01401999999ADDMA1101401999999REMMET059METAR COR SADF 010400Z 05004KT CAVOK 21/14 Q1014 RMK PP000=
0197875530999992024010105004-34450-058583FM-12+000399999V0200501N00261030001CN010000199+02141+01371101361ADDGA1051+030001031GA2061+060001021GE19AGL   +99999+99999GF107991051999030001999999MA1999999101281MD1810131+9999REMSYN07687553 42960 70505 10214 20137 30128 40136 58013 85076 333 56066 85360 86270=
0086875530999992024010105004-34453-058590FM-15+000399999V0200501N002619999999Y009900599+02101+01401999999ADDMA1101301999999REMMET059METAR COR SADF 010500Z 05005KT CAVOK 21/14 Q1013 RMK PP000=
0192875530999992024010106004-34450-058583FM-12+000399999V0200601N00411030001CN010000199+02181+01531101271ADDAA106000091GA1071+030001031GE19AGL   +99999+99999GF107991071999030001999999MA1999999101181MD1810251+9999REMSYN07687553 12960 70608 10218 20153 30118 40127 58025 60001 87070 333 56060 87360=
0086875530999992024010106004-34453-058590FM-15+000399999V0200601N004119999999Y009900599+02201+01501999999ADDMA1101201999999REMMET059METAR COR SADF 010600Z 06008KT CAVOK 22/15 Q1012 RMK PP000=
0175875530999992024010107004-34450-058583FM-12+000399999V0200501N00361030001CN010000199+02061+01561101321ADDGA1071+030001031GE19AGL   +99999+99999GF107991071999030001999999MA1999999101221MD1510121+9999REMSYN07087553 42960 70507 10206 20156 30122 40132 55012 87070 333 56060 87360=
0175875530999992024010108004-34450-058583FM-12+000399999V0200501N00361030001CN010000199+02061+01561101331ADDGA1081+030001031GE19AGL   +99999+99999GF108991081999030001999999MA1999999101241MD1510041+9999REMSYN07087553 42960 80507 10206 20156 30124 40133 55004 8807/ 333 56069 88360=
0086875530999992024010108004-34453-058590FM-15+000399999V0200501N003619999999Y009900599+02101+01601999999ADDMA1101301999999REMMET059METAR COR SADF 010800Z 05007KT CAVOK 21/16 Q1013 RMK PP000=
0086875530999992024010109004-34453-058590FM-15+000399999V0200601N003119999999Y009900599+02001+01601999999ADDMA1101301999999REMMET059METAR COR SADF 010900Z 06006KT CAVOK 20/16 Q1013 RMK PP000=
0197875530999992024010110004-34450-058583FM-12+000399999V0200601N002610600019N010000199+02041+01581101421ADDGA1041+030001031GA2051+060001021GE19AGL   +99999+99999GF106991041999030001999999MA1999999101331MD1310111+9999REMSYN07687553 42960 60605 10204 20158 30133 40142 53011 84076 333 56076 84360 85270=
0082875530999992024010110004-34453-058590FM-15+000399999V0200601N002619999999Y009900599+02001+01601999999ADDMA1101401999999REMMET055METAR SADF 011000Z 06005KT CAVOK 20/16 Q1014 RMK PP000=
0175875530999992024010111004-34450-058583FM-12+000399999V0200301N004112200019N010000199+02181+01521101451ADDGA1041+030001031GE19AGL   +99999+99999GF104991041999030001999999MA1999999101361MD1210121+9999REMSYN07087553 42960 40308 10218 20152 30136 40145 52012 84070 333 56060 84360=
0094875530999992024010111004-34453-058590FM-15+000399999V0200301V004119999999Y009900599+02201+01501999999ADDMA1101401999999REMMET067METAR COR SADF 011100Z 03008KT 360V060 CAVOK 22/15 Q1014 RMK PP000=
0213875530999992024010112004-34450-058583FM-12+000399999V0200401N00461030001CN010000199+02311+01651101421ADDGA1061+030001031GE19AGL   +99999+99999GF106991061999030001999999KA1240M+02471KA2240N+01961MA1999999101331MD1990051+9999REMSYN08287553 32960 60409 10231 20165 30133 40142 50005 86070 333 10247 20196 56060 86360=
0086875530999992024010112004-34453-058590FM-15+000399999V0200401N004619999999Y009900599+02301+01601999999ADDMA1101401999999REMMET059METAR COR SADF 011200Z 04009KT CAVOK 23/16 Q1014 RMK PP000=
0175875530999992024010113004-34450-058583FM-12+000399999V0200101N00211030001CN010000199+02371+01681101441ADDGA1061+030001031GE19AGL   +99999+99999GF106991061999030001999999MA1999999101361MD1310031+9999REMSYN07087553 42960 60104 10237 20168 30136 40144 53003 86070 333 56060 86360=
0094875530999992024010113004-34453-058590FM-15+000399999V0200101V002119999999Y009900599+02401+01701999999ADDMA1101401999999REMMET067METAR COR SADF 011300Z 01004KT 310V080 CAVOK 24/17 Q1014 RMK PP000=
0175875530999992024010114004-34450-058583FM-12+000399999V0200701N00211030001CN010000199+02551+01631101441ADDGA1051+030001031GE19AGL   +99999+99999GF105991051999030001999999MA1999999101361MD1410001+9999REMSYN07087553 42960 50704 10255 20163 30136 40144 54000 85070 333 56060 85360=
0090875530999992024010114004-34453-058590FM-15+000399999V0200701V002119999999Y009900599+02501+01601999999ADDMA1101401999999REMMET063METAR SADF 011400Z 07004KT 330V110 CAVOK 25/16 Q1014 RMK PP000=
0164875530999992024010115004-34453-058590FM-15+000399999V0201501V003119999999N009999199+02601+01601999999ADDGA1021+013111999GE19AGL   +99999+99999GF199999021999013111999999MA1101301999999REMMET073METAR COR SADF 011500Z 15006KT 100V200 9999 FEW043 26/16 Q1013 RMK PP000=
0197875530999992024010116004-34450-058583FM-12+000399999V0201001N00361030001CN010000199+02761+01591101321ADDGA1021+024001061GA2051+030001031GE19AGL   +99999+99999GF105991021999024001999999MA1999999101221MD1810131+9999REMSYN07687553 42860 51007 10276 20159 30122 40132 58013 83870 333 56760 82658 85360=
0090875530999992024010116004-34453-058590FM-15+000399999V0201001V003619999999Y009900599+02701+01501999999ADDMA1101301999999REMMET063METAR SADF 011600Z 10007KT 060V170 CAVOK 27/15 Q1013 RMK PP000=
0175875530999992024010117004-34450-058583FM-12+000399999V0200901N004112200019N010000199+02861+01441101231ADDGA1021+030001031GE19AGL   +99999+99999GF102991021999030001999999MA1999999101141MD1710211+9999REMSYN07087553 42960 20908 10286 20144 30114 40123 57021 82070 333 56060 82360=
0094875530999992024010117004-34453-058590FM-15+000399999V0200901V004119999999Y009900599+02801+01501999999ADDMA1101201999999REMMET067METAR COR SADF 011700Z 09008KT 060V140 CAVOK 28/15 Q1012 RMK PP000=
0192875530999992024010118004-34450-058583FM-12+000399999V0200701N005112200019N010000199+02771+01501101181ADDAA106000091GA1021+030001031GE19AGL   +99999+99999GF102991021999030001999999MA1999999101091MD1710191+9999REMSYN07687553 12960 20710 10277 20150 30109 40118 57019 60001 82070 333 56060 82360=
0094875530999992024010118004-34453-058590FM-15+000399999V0200701V005119999999Y009900599+02801+01601999999ADDMA1101101999999REMMET067METAR COR SADF 011800Z 07010KT 040V100 CAVOK 28/16 Q1011 RMK PP000=
0175875530999992024010119004-34450-058583FM-12+000399999V0200801N004612200019N010000199+02781+01651101151ADDGA1021+030001031GE19AGL   +99999+99999GF102991021999030001999999MA1999999101061MD1710161+9999REMSYN07087553 42960 20809 10278 20165 30106 40115 57016 82070 333 56060 82360=
0094875530999992024010119004-34453-058590FM-15+000399999V0200801V004619999999Y009900599+02801+01601999999ADDMA1101101999999REMMET067METAR COR SADF 011900Z 08009KT 040V120 CAVOK 28/16 Q1011 RMK PP000=
0175875530999992024010120004-34450-058583FM-12+000399999V0200801N005112200019N010000199+02761+01591101081ADDGA1011+030001031GE19AGL   +99999+99999GF101991011999030001999999MA1999999100981MD1710161+9999REMSYN07087553 42960 10810 10276 20159 30098 40108 57016 81070 333 56060 81360=
0094875530999992024010120004-34453-058590FM-15+000399999V0200801V005119999999Y009900599+02701+01601999999ADDMA1101001999999REMMET067METAR COR SADF 012000Z 08010KT 050V120 CAVOK 27/16 Q1010 RMK PP000=
0086875530999992024010121004-34453-058590FM-15+000399999V0201001N005119999999Y009900599+02601+01701999999ADDMA1101001999999REMMET059METAR COR SADF 012100Z 10010KT CAVOK 26/17 Q1010 RMK PP000=
0175875530999992024010122004-34450-058583FM-12+000399999V0201101N00621030001CN010000199+02551+01711101061ADDGA1061+030001031GE19AGL   +99999+99999GF106991061999030001999999MA1999999100971MD1510091+9999REMSYN07087553 42960 61112 10255 20171 30097 40106 55009 86070 333 56060 86360=
0086875530999992024010122004-34453-058590FM-15+000399999V0201101N006219999999Y009900599+02501+01701999999ADDMA1101001999999REMMET059METAR COR SADF 012200Z 11012KT CAVOK 25/17 Q1010 RMK PP000=
0175875530999992024010123004-34450-058583FM-12+000399999V0201101N00621030001CN010000199+02481+01741101111ADDGA1071+030001031GE19AGL   +99999+99999GF107991071999030001999999MA1999999101021MD1310041+9999REMSYN07087553 42960 71112 10248 20174 30102 40111 53004 87070 333 56060 87360=
0086875530999992024010123004-34453-058590FM-15+000399999V0201101N006219999999Y009900599+02501+01701999999ADDMA1101101999999REMMET059METAR COR SADF 012300Z 11012KT CAVOK 25/17 Q1011 RMK PP000=
0230875530999992024010200004-34450-058583FM-12+000399999V0201401N00361030001CN010000199+02421+01791101261ADDAA106000091GA1071+030001031GE19AGL   +99999+99999GF107991071999030001999999KA1120M+02901KA2120N+02281MA1999999101171MD1210231+9999REMSYN08887553 12960 71407 10242 20179 30117 40126 52023 60001 87070 333 10290 20228 56060 87360=
0094875530999992024010200004-34453-058590FM-15+000399999V0201401V003619999999Y009900599+02401+01801999999ADDMA1101201999999REMMET067METAR COR SADF 020000Z 14007KT 120V180 CAVOK 24/18 Q1012 RMK PP000=
0175875530999992024010201004-34450-058583FM-12+000399999V0201201N00461030001CN010000199+02351+01751101311ADDGA1071+030001031GE19AGL   +99999+99999GF107991071999030001999999MA1999999101221MD1210251+9999REMSYN07087553 42960 71209 10235 20175 30122 40131 52025 87070 333 56060 87360=
0086875530999992024010201004-34453-058590FM-15+000399999V0201201N004619999999Y009900599+02401+01701999999ADDMA1101201999999REMMET059METAR COR SADF 020100Z 12009KT CAVOK 24/17 Q1012 RMK PP000=
0175875530999992024010202004-34450-058583FM-12+000399999V0201301N00621030001CN010000199+02201+01801101311ADDGA1071+030001031GE19AGL   +99999+99999GF107991071999030001999999MA1999999101221MD1210201+9999REMSYN07087553 42960 71312 10220 20180 30122 40131 52020 87070 333 56060 87360=
0086875530999992024010202004-34453-058590FM-15+000399999V0201301N006219999999Y009900599+02301+01801999999ADDMA1101201999999REMMET059METAR COR SADF 020200Z 13012KT CAVOK 23/18 Q1012 RMK PP000=
0086875530999992024010203004-34453-058590FM-15+000399999V0201201N004619999999Y009900599+02301+01801999999ADDMA1101201999999REMMET059METAR COR SADF 020300Z 12009KT CAVOK 23/18 Q1012 RMK PP000=
0175875530999992024010204004-34450-058583FM-12+000399999V0201201N00311030001CN010000199+02301+01851101281ADDGA1061+030001031GE19AGL   +99999+99999GF106991061999030001999999MA1999999101201MD1710031+9999REMSYN07087553 42960 61206 10230 20185 30120 40128 57003 86070 333 56060 86360=
0086875530999992024010204004-34453-058590FM-15+000399999V0201201N003119999999Y009900599+02301+01801999999ADDMA1101201999999REMMET059METAR COR SADF 020400Z 12006KT CAVOK 23/18 Q1012 RMK PP000=
0175875530999992024010205004-34450-058583FM-12+000399999V0201001N00261030001CN010000199+02221+01881101251ADDGA1051+030001031GE19AGL   +99999+99999GF105991051999030001999999MA1999999101161MD1710071+9999REMSYN07087553 42960 51005 10222 20188 30116 40125 57007 85070 333 56060 85360=
0086875530999992024010205004-34453-058590FM-15+000399999V0201001N002619999999Y009900599+02201+01901999999ADDMA1101101999999REMMET059METAR COR SADF 020500Z 10005KT CAVOK 22/19 Q1011 RMK PP000=
0192875530999992024010206004-34450-058583FM-12+000399999V0200701N00151030001CN010000199+02071+01841101211ADDAA106000091GA1061+030001031GE19AGL   +99999+99999GF106991061999030001999999MA1999999101121MD1710081+9999REMSYN07687553 12960 60703 10207 20184 30112 40121 57008 60001 86070 333 56060 86360=
0086875530999992024010206004-34453-058590FM-15+000399999V0200701N001519999999Y009900599+02101+01801999999ADDMA1101101999999REMMET059METAR COR SADF 020600Z 07003KT CAVOK 21/18 Q1011 RMK PP000=
0129875530999992024010207004-34450-058583FM-12+000399999V0200601N002619999999N010000199+02071+99999999999ADDGE19AGL   +99999+99999GF106991999999999999999999REMSYN06987553 42960 60605 10207 2170 30114 40123 57005 86070 333 56060 86360=
0086875530999992024010207004-34453-058590FM-15+000399999V0200601N002619999999Y009900599+02101+01701999999ADDMA1101101999999REMMET059METAR COR SADF 020700Z 06005KT CAVOK 21/17 Q1011 RMK PP000=
0175875530999992024010208004-34450-058583FM-12+000399999V0200801N00311030001CN010000199+02081+01671101271ADDGA1061+030001031GE19AGL   +99999+99999GF106991061999030001999999MA1999999101181MD1310031+9999REMSYN07087553 42960 60806 10208 20167 30118 40127 53003 86070 333 56060 86360=
0086875530999992024010208004-34453-058590FM-15+000399999V0200801N003119999999Y009900599+02101+01701999999ADDMA1101201999999REMMET059METAR COR SADF 020800Z 08006KT CAVOK 21/17 Q1012 RMK PP000=
0086875530999992024010209004-34453-058590FM-15+000399999V0200701N002619999999Y009900599+02101+01701999999ADDMA1101201999999REMMET059METAR COR SADF 020900Z 07005KT CAVOK 21/17 Q1012 RMK PP000=
0175875530999992024010210004-34450-058583FM-12+000399999V0200801N00361030001CN010000199+02161+01831101361ADDGA1061+030001031GE19AGL   +99999+99999GF106991061999030001999999MA1999999101281MD1210131+9999REMSYN07087553 42960 60807 10216 20183 30128 40136 52013 86070 333 56060 86360=
0086875530999992024010210004-34453-058590FM-15+000399999V0200801N003619999999Y009900599+02201+01801999999ADDMA1101301999999REMMET059METAR COR SADF 021000Z 08007KT CAVOK 22/18 Q1013 RMK PP000=
0175875530999992024010211004-34450-058583FM-12+000399999V0200601N003612200019N010000199+02301+01881101321ADDGA1041+030001031GE19AGL   +99999+99999GF104991041999030001999999MA1999999101221MD1990041+9999REMSYN07087553 42960 40607 10230 20188 30122 40132 50004 84050 333 56060 84360=
0094875530999992024010211004-34453-058590FM-15+000399999V0200601V003619999999Y009900599+02301+01901999999ADDMA1101301999999REMMET067METAR COR SADF 021100Z 06007KT 030V090 CAVOK 23/19 Q1013 RMK PP000=
0229875530999992024010212004-34450-058583FM-12+000399999V0200801N002612200019N010000199+02421+01941101341ADDGA1021+007501061GA2999+999999031GE19AGL   +99999+99999GF104991021999007501999999KA1240M+02451KA2240N+02051MA1999999101251MD1310031+9999REMSYN08287553 32560 40805 10242 20194 30125 40134 53003 82450 333 10245 20205 56220 82625=
0164875530999992024010212004-34453-058590FM-15+000399999V0200801V002619999999N009999199+02401+01901999999ADDGA1021+007621999GE19AGL   +99999+99999GF199999021999007621999999MA1101301999999REMMET073METAR COR SADF 021200Z 08005KT 040V160 9999 FEW025 24/19 Q1013 RMK PP000=
0191875530999992024010213004-34450-058583FM-12+000399999V0200901N003612200019N010000199+02491+01971101351ADDGA1031+006601061GA2999+999999031GE19AGL   +99999+99999GF104991031999006601999999MA1999999101261MD1510011+9999REMSYN07087553 42560 40907 10249 20197 30126 40135 55001 83450 333 56220 83622=
0164875530999992024010213004-34453-058590FM-15+000399999V0200901V003619999999N009999199+02501+02001999999ADDGA1041+006711999GE19AGL   +99999+99999GF199999041999006711999999MA1101301999999REMMET073METAR COR SADF 021300Z 09007KT 050V120 9999 SCT022 25/20 Q1013 RMK PP000=
0191875530999992024010214004-34450-058583FM-12+000399999V0201201N004112200019N010000199+02541+01861101351ADDGA1031+006901061GA2999+999999031GE19AGL   +99999+99999GF104991031999006901999999MA1999999101261MD1110041+9999REMSYN07087553 42560 41208 10254 20186 30126 40135 51004 83450 333 56220 83623=
0164875530999992024010214004-34453-058590FM-15+000399999V0201201V004119999999N009999199+02501+01901999999ADDGA1041+007011999GE19AGL   +99999+99999GF199999041999007011999999MA1101301999999REMMET073METAR COR SADF 021400Z 12008KT 060V160 9999 SCT023 25/19 Q1013 RMK PP000=
0164875530999992024010215004-34453-058590FM-15+000399999V0201201V005719999999N009999199+02601+01901999999ADDGA1041+009751999GE19AGL   +99999+99999GF199999041999009751999999MA1101301999999REMMET073METAR COR SADF 021500Z 12011KT 090V150 9999 SCT032 26/19 Q1013 RMK PP000=
0191875530999992024010216004-34450-058583FM-12+000399999V0201201N005712200019N010000199+02591+01901101351ADDGA1031+009001061GA2999+999999021GE19AGL   +99999+99999GF104991031999009001999999MA1999999101261MD1410001+9999REMSYN07087553 42560 41211 10259 20190 30126 40135 54000 83505 333 56205 83630=
0164875530999992024010216004-34453-058590FM-15+000399999V0201201V005719999999N009999199+02601+01901999999ADDGA1041+009141999GE19AGL   +99999+99999GF199999041999009141999999MA1101301999999REMMET073METAR COR SADF 021600Z 12011KT 090V150 9999 SCT030 26/19 Q1013 RMK PP000=
0207875530999992024010217004-34450-058583FM-12+000399999V0201101N006712200019N010000199+02651+01841101331ADDGA1021+009001061GA2999+999999031GA3999+999999001GE19AGL   +99999+99999GF102991021999009001999999MA1999999101241MD1810031+9999REMSYN07087553 42560 21113 10265 20184 30124 40133 58003 82574 333 56225 82630=
0164875530999992024010217004-34453-058590FM-15+000399999V0201101V006719999999N009999199+02701+01801999999ADDGA1021+009141999GE19AGL   +99999+99999GF199999021999009141999999MA1101301999999REMMET073METAR COR SADF 021700Z 11013KT 080V150 9999 FEW030 27/18 Q1013 RMK PP000=
0214875530999992024010218004-34450-058583FM-12+000399999V0201101N007212200019N010000199+02711+01811101271ADDAA106000091GA1011+012001081GA2999+999999001GE19AGL   +99999+99999GF102991011999012001999999MA1999999101181MD1810081+9999REMSYN08287553 12660 21114 10271 20181 30118 40127 58008 60001 81204 333 56205 57815 81840=
0163875530999992024010218004-34453-058590FM-15+000399999V0201101V007219999999N009999199+02701+01801999999ADDGA1021+012191081GE19AGL   +99999+99999GF199999021999012191999999MA1101201999999REMMET072METAR SADF 021800Z 11014KT 080V140 9999 FEW040TCU 27/18 Q1012 RMK PP000=
0191875530999992024010219004-34450-058583FM-12+000399999V0201101N006212200019N010000199+02711+01741101261ADDGA1021+030001031GA2999+999999001GE19AGL   +99999+99999GF102991021999030001999999MA1999999101171MD1710091+9999REMSYN07087553 42960 21112 10271 20174 30117 40126 57009 82054 333 56055 82360=
0094875530999992024010219004-34453-058590FM-15+000399999V0201101V006219999999Y009900599+02701+01701999999ADDMA1101201999999REMMET067METAR COR SADF 021900Z 11012KT 080V160 CAVOK 27/17 Q1012 RMK PP000=
0207875530999992024010220004-34450-058583FM-12+000399999V0201201N005712200019N010000199+02641+01801101231ADDGA1011+006001071GA2999+999999031GA3999+999999001GE19AGL   +99999+99999GF102991011999006001999999MA1999999101141MD1710091+9999REMSYN07087553 42560 21211 10264 20180 30114 40123 57009 81754 333 56255 81720=
0164875530999992024010220004-34453-058590FM-15+000399999V0201201V005719999999N009999199+02601+01801999999ADDGA1021+006101999GE19AGL   +99999+99999GF199999021999006101999999MA1101201999999REMMET073METAR COR SADF 022000Z 12011KT 090V150 9999 FEW020 26/18 Q1012 RMK PP000=
0156875530999992024010221004-34453-058590FM-15+000399999V0201101N006719999999N009999199+02601+01801999999ADDGA1021+007621999GE19AGL   +99999+99999GF199999021999007621999999MA1101201999999REMMET065METAR COR SADF 022100Z 11013KT 9999 FEW025 26/18 Q1012 RMK PP000=
0191875530999992024010222004-34450-058583FM-12+000399999V0201201N008212200019N010000199+02451+01941101271ADDGA1021+006601071GA2999+999999031GE19AGL   +99999+99999GF103991021999006601999999MA1999999101181MD1310011+9999REMSYN07087553 42560 31216 10245 20194 30118 40127 53001 82770 333 56250 82722=
0167875530999992024010222004-34453-058590FM-15+000399999V0201201N008219999999N009999199+02501+01901999999ADDGA1021+006711999GE19AGL   +99999+99999GF199999021999006711999999MA1101201999999OC101341REMMET068METAR COR SADF 022200Z 12016G26KT 9999 FEW022 25/19 Q1012 RMK PP000=
0191875530999992024010223004-34450-058583FM-12+000399999V0201201N008212200019N010000199+02371+01971101281ADDGA1011+006001071GA2999+999999031GE19AGL   +99999+99999GF101991011999006001999999MA1999999101201MD1310051+9999REMSYN07087553 42560 11216 10237 20197 30120 40128 53005 81770 333 56250 81720=
0156875530999992024010223004-34453-058590FM-15+000399999V0201201N008219999999N009999199+02401+02001999999ADDGA1021+006101999GE19AGL   +99999+99999GF199999021999006101999999MA1101201999999REMMET065METAR COR SADF 022300Z 12016KT 9999 FEW020 24/20 Q1012 RMK PP000=
0171875530999992024010223364-34453-058590FM-16+000399999V0201201V006219999999N009999199+02401+02001999999ADDGA1041+006101999GE19AGL   +99999+99999GF199999041999006101999999MA1101301999999OC101131REMMET072SPECI SADF 022336Z 12012G22KT 090V160 9999 SCT020 24/20 Q1013 RMK PP000=
0246875530999992024010300004-34450-058583FM-12+000399999V0201201N00671006001CN010000199+02371+02001101321ADDAA106000091GA1051+006001081GA2999+999999031GE19AGL   +99999+99999GF105991051999006001999999KA1120M+02731KA2120N+02361MA1999999101221MD1210081+9999REMSYN08887553 12560 51213 10237 20200 30122 40132 52008 60001 85170 333 10273 20236 56360 85820=
0164875530999992024010300004-34453-058590FM-15+000399999V0201201V00671005791CN009999199+02401+02001999999ADDGA1071+005791999GE19AGL   +99999+99999GF199999071999005791999999MA1101301999999REMMET073METAR COR SADF 030000Z 12013KT 090V150 9999 BKN019 24/20 Q1013 RMK PP000=
0191875530999992024010301004-34450-058583FM-12+000399999V0201001N006712200019N010000199+02411+01851101351ADDGA1031+005101061GA2999+999999031GE19AGL   +99999+99999GF103991031999005101999999MA1999999101261MD1210081+9999REMSYN07087553 42460 31013 10241 20185 30126 40135 52008 83570 333 56360 83617=
0179875530999992024010301004-34453-058590FM-15+000399999V0201001N00671007921CN009999199+02401+01901999999ADDGA1021+005181999GA2041+007921999GE19AGL   +99999+99999GF199999021999005181999999MA1101301999999REMMET072METAR COR SADF 030100Z 10013KT 9999 FEW017 SCT026 24/19 Q1013 RMK PP000=
0175875530999992024010302004-34450-058583FM-12+000399999V0201001N006712200019N010000199+02341+01861101381ADDGA1021+015001061GE19AGL   +99999+99999GF102991021999015001999999MA1999999101291MD1210091+9999REMSYN07087553 42760 21013 10234 20186 30129 40138 52009 82500 333 56300 82650=
0086875530999992024010302004-34453-058590FM-15+000399999V0201001N006719999999Y009900599+02401+01901999999ADDMA1101301999999REMMET059METAR COR SADF 030200Z 10013KT CAVOK 24/19 Q1013 RMK PP000=
0156875530999992024010303004-34453-058590FM-15+000399999V0201001N006719999999N009999199+02301+01801999999ADDGA1021+006711999GE19AGL   +99999+99999GF199999021999006711999999MA1101401999999REMMET065METAR COR SADF 030300Z 10013KT 9999 FEW022 23/18 Q1014 RMK PP000=
0175875530999992024010304004-34450-058583FM-12+000399999V0200901N006212200019N010000199+02271+01831101421ADDGA1011+006901061GE19AGL   +99999+99999GF101991011999006901999999MA1999999101331MD1210071+9999REMSYN07087553 42560 10912 10227 20183 30133 40142 52007 81500 333 56200 81623=
0156875530999992024010304004-34453-058590FM-15+000399999V0200901N006219999999N009999199+02301+01801999999ADDGA1021+007011999GE19AGL   +99999+99999GF199999021999007011999999MA1101401999999REMMET065METAR COR SADF 030400Z 09012KT 9999 FEW023 23/18 Q1014 RMK PP000=
0175875530999992024010305004-34450-058583FM-12+000399999V0200901N006712200019N010000199+02211+01831101421ADDGA1041+006301061GE19AGL   +99999+99999GF104991041999006301999999MA1999999101331MD1110041+9999REMSYN07087553 42560 40913 10221 20183 30133 40142 51004 84500 333 56200 84621=
0156875530999992024010305004-34453-058590FM-15+000399999V0200901N006719999999N009999199+02201+01801999999ADDGA1041+006401999GE19AGL   +99999+99999GF199999041999006401999999MA1101401999999REMMET065METAR COR SADF 030500Z 09013KT 9999 SCT021 22/18 Q1014 RMK PP000=
0192875530999992024010306004-34450-058583FM-12+000399999V0200901N005712200019N010000199+02221+01791101421ADDAA106000091GA1041+006001061GE19AGL   +99999+99999GF104991041999006001999999MA1999999101331MD1110011+9999REMSYN07687553 12560 40911 10222 20179 30133 40142 51001 60001 84500 333 56200 84620=
0156875530999992024010306004-34453-058590FM-15+000399999V0200901N00571006101CN009999199+02201+01801999999ADDGA1071+006101999GE19AGL   +99999+99999GF199999071999006101999999MA1101401999999REMMET065METAR COR SADF 030600Z 09011KT 9999 BKN020 22/18 Q1014 RMK PP000=
0175875530999992024010307004-34450-058583FM-12+000399999V0200901N005712200019N010000199+02221+01861101421ADDGA1041+006001061GE19AGL   +99999+99999GF104991041999006001999999MA1999999101331MD1990001+9999REMSYN07087553 42560 40911 10222 20186 30133 40142 50000 84500 333 56200 84620=
0164875530999992024010307004-34453-058590FM-15+000399999V0200901V00571005791CN009999199+02201+01901999999ADDGA1071+005791999GE19AGL   +99999+99999GF199999071999005791999999MA1101401999999REMMET073METAR COR SADF 030700Z 09011KT 060V120 9999 BKN019 22/19 Q1014 RMK PP000=
0175875530999992024010308004-34450-058583FM-12+000399999V0200901N006212200019N010000199+02221+01861101501ADDGA1041+006001061GE19AGL   +99999+99999GF104991041999006001999999MA1999999101411MD1310081+9999REMSYN07087553 42560 40912 10222 20186 30141 40150 53008 84500 333 56200 84620=
0175875530999992024010308004-34453-058590FM-15+000399999V0200901N00621005791CN009999199+02201+01801999999ADDGA1071+005791999GA2081+007621999GE19AGL   +99999+99999GF199999071999005791999999MA1101501999999REMMET068METAR SADF 030800Z 09012KT 9999 BKN019 OVC025 22/18 Q1015 RMK PP000=
0152875530999992024010309004-34453-058590FM-15+000399999V0200801N00571005491CN009999199+02201+01901999999ADDGA1081+005491999GE19AGL   +99999+99999GF199999081999005491999999MA1101501999999REMMET061METAR SADF 030900Z 08011KT 9999 OVC018 22/19 Q1015 RMK PP000=
0175875530999992024010310004-34450-058583FM-12+000399999V0200801N00571004801CN010000199+02171+01861101571ADDGA1071+004801061GE19AGL   +99999+99999GF107991071999004801999999MA1999999101481MD1310151+9999REMSYN07087553 42460 70811 10217 20186 30148 40157 53015 87500 333 56200 87616=
0156875530999992024010310004-34453-058590FM-15+000399999V0200801N00571004881CN009999199+02201+01901999999ADDGA1071+004881999GE19AGL   +99999+99999GF199999071999004881999999MA1101501999999REMMET065METAR COR SADF 031000Z 08011KT 9999 BKN016 22/19 Q1015 RMK PP000=
0219875530999992024010311004-34450-058583FM-12+000399999V0200901N005710060019N010000199+02211+01871101621ADDGA1041+004801061GA2061+006001081GA3061+012601081GE19AGL   +99999+99999GF107991041999004801999999MA1999999101531MD1310121+9999REMSYN08287553 42460 70911 10221 20187 30153 40162 53012 87500 333 56200 84616 86820 86842=
0202875530999992024010311004-34453-058590FM-15+000399999V0200901N005710061019N009999199+02201+01901999999ADDGA1041+004881999GA2071+006101999GA3071+012801999GE19AGL   +99999+99999GF199999041999004881999999MA1101601999999REMMET079METAR COR SADF 031100Z 09011KT 9999 SCT016 BKN020 BKN042 22/19 Q1016 RMK PP000=
0213875530999992024010312004-34450-058583FM-12+000399999V0201001N00461004501CN010000199+02341+01871101661ADDGA1071+004501061GE19AGL   +99999+99999GF107991071999004501999999KA1240M+02431KA2240N+02171MA1999999101571MD1210171+9999REMSYN08287553 32460 71009 10234 20187 30157 40166 52017 87500 333 10243 20217 56300 87615=
0160875530999992024010312004-34453-058590FM-15+000399999V0201001V00461004571CN009999199+02301+01901999999ADDGA1071+004571999GE19AGL   +99999+99999GF199999071999004571999999MA1101601999999REMMET069METAR SADF 031200Z 10009KT 060V120 9999 BKN015 23/19 Q1016 RMK PP000=
0175875530999992024010313004-34450-058583FM-12+000399999V0200901N00461005101CN010000199+02351+01801101631ADDGA1071+005101061GE19AGL   +99999+99999GF107991071999005101999999MA1999999101541MD1210071+9999REMSYN07087553 42460 70909 10235 20180 30154 40163 52007 87500 333 56300 87617=
0152875530999992024010313004-34453-058590FM-15+000399999V0200901N00461005181CN009999199+02401+02001999999ADDGA1071+005181999GE19AGL   +99999+99999GF199999071999005181999999MA1101601999999REMMET061METAR SADF 031300Z 09009KT 9999 BKN017 24/20 Q1016 RMK PP000=
0175875530999992024010314004-34450-058583FM-12+000399999V0201101N00511006001CN010000199+02441+01921101631ADDGA1071+006001061GE19AGL   +99999+99999GF107991071999006001999999MA1999999101541MD1210011+9999REMSYN07087553 42560 71110 10244 20192 30154 40163 52001 87500 333 56300 87620=
0160875530999992024010314004-34453-058590FM-15+000399999V0201101V00511006101CN009999199+02401+01901999999ADDGA1071+006101999GE19AGL   +99999+99999GF199999071999006101999999MA1101601999999REMMET069METAR SADF 031400Z 11010KT 070V150 9999 BKN020 24/19 Q1016 RMK PP000=
0156875530999992024010315004-34453-058590FM-15+000399999V0201001N00571007011CN009999199+02601+02001999999ADDGA1071+007011999GE19AGL   +99999+99999GF199999071999007011999999MA1101601999999REMMET065METAR COR SADF 031500Z 10011KT 9999 BKN023 26/20 Q1016 RMK PP000=
0175875530999992024010316004-34450-058583FM-12+000399999V0201301N005712200019N010000199+02641+01971101591ADDGA1041+006901061GE19AGL   +99999+99999GF104991041999006901999999MA1999999101501MD1710041+9999REMSYN07087553 42560 41311 10264 20197 30150 40159 57004 84500 333 56300 84623=
0152875530999992024010316004-34453-058590FM-15+000399999V0201301N005719999999N009999199+02601+02001999999ADDGA1041+007011999GE19AGL   +99999+99999GF199999041999007011999999MA1101601999999REMMET061METAR SADF 031600Z 13011KT 9999 SCT023 26/20 Q1016 RMK PP000=
0203875530999992024010317004-34450-058583FM-12+000399999V0201201N006212200019N010000199+02691+01941101571ADDGA1021+008101061GA2011+013501081GE19AGL   +99999+99999GF103991021999008101999999MA1999999101481MD1710071+9999REMSYN08287553 42560 31212 10269 20194 30148 40157 57007 83200 333 56300 57873 82627 81845=
0182875530999992024010317004-34453-058590FM-15+000399999V0201201N006219999999N009999199+02701+01901999999ADDGA1021+008231999GA2021+013721081GE19AGL   +99999+99999GF199999021999008231999999MA1101501999999REMMET075METAR COR SADF 031700Z 12012KT 9999 FEW027 FEW045TCU 27/19 Q1015 RMK PP000=
0198875530999992024010318004-34450-058583FM-12+000399999V0201301N006212200019N010000199+02711+01931101511ADDAA106000091GA1021+009001081GE19AGL   +99999+99999GF102991021999009001999999MA1999999101421MD1710091+9999REMSYN08287553 12560 21312 10271 20193 30142 40151 57009 60001 82200 333 56300 57872 82830=
0182875530999992024010318004-34453-058590FM-15+000399999V0201301N006219999999N009999199+02701+01901999999ADDGA1021+009141999GA2021+013721081GE19AGL   +99999+99999GF199999021999009141999999MA1101501999999REMMET075METAR COR SADF 031800Z 13012KT 9999 FEW030 FEW045TCU 27/19 Q1015 RMK PP000=
0203875530999992024010319004-34450-058583FM-12+000399999V0201201N006212200019N010000199+02841+02031101471ADDGA1011+009001081GA2011+015001091GE19AGL   +99999+99999GF102991011999009001999999MA1999999101381MD1710121+9999REMSYN08287553 42560 21212 10284 20203 30138 40147 57012 82300 333 56300 57971 81830 81950=
0189875530999992024010319004-34453-058590FM-15+000399999V0201201V006219999999N009999199+02801+02001999999ADDGA1021+009141999GA2021+015241091GE19AGL   +99999+99999GF199999021999009141999999MA1101401999999REMMET082METAR COR SADF 031900Z 12012KT 090V150 9999 FEW030 FEW050CB 28/20 Q1014 RMK PP000=
0191875530999992024010320004-34450-058583FM-12+000399999V0201201N007212200019N010000199+02671+01951101431ADDGA1011+009001081GA2999+999999001GE19AGL   +99999+99999GF103991011999009001999999MA1999999101341MD1710131+9999REMSYN07087553 42560 31214 10267 20195 30134 40143 57013 81103 333 56307 81830=
0152875530999992024010320004-34453-058590FM-15+000399999V0201201N007219999999N009999199+02701+02001999999ADDGA1021+009141999GE19AGL   +99999+99999GF199999021999009141999999MA1101401999999REMMET061METAR SADF 032000Z 12014KT 9999 FEW030 27/20 Q1014 RMK PP000=
0156875530999992024010321004-34453-058590FM-15+000399999V0201301N007719999999N009999199+02601+02001999999ADDGA1021+009141999GE19AGL   +99999+99999GF199999021999009141999999MA1101401999999REMMET065METAR COR SADF 032100Z 13015KT 9999 FEW030 26/20 Q1014 RMK PP000=
0191875530999992024010322004-34450-058583FM-12+000399999V0201201N007712200019N010000199+02531+02031101441ADDGA1011+010501061GA2999+999999001GE19AGL   +99999+99999GF103991011999010501999999MA1999999101361MD1710031+9999REMSYN07087553 42660 31215 10253 20203 30136 40144 57003 81403 333 56307 81635=
0156875530999992024010322004-34453-058590FM-15+000399999V0201201N007719999999N009999199+02601+02001999999ADDGA1021+010671999GE19AGL   +99999+99999GF199999021999010671999999MA1101401999999REMMET065METAR COR SADF 032200Z 12015KT 9999 FEW035 26/20 Q1014 RMK PP000=
0175875530999992024010323004-34450-058583FM-12+000399999V0201301N006712200019N010000199+02481+02061101411ADDGA1031+060001021GE19AGL   +99999+99999GF103991031999060001999999MA1999999101321MD1710031+9999REMSYN07087553 42960 31313 10248 20206 30132 40141 57003 80008 333 56007 83270=
0086875530999992024010323004-34453-058590FM-15+000399999V0201301N006719999999Y009900599+02501+02101999999ADDMA1101401999999REMMET059METAR COR SADF 032300Z 13013KT CAVOK 25/21 Q1014 RMK PP000=
0230875530999992024010400004-34450-058583FM-12+000399999V0201201N007212200019N010000199+02471+02061101421ADDAA106000091GA1021+060001001GE19AGL   +99999+99999GF102991021999060001999999KA1120M+02851KA2120N+02321MA1999999101331MD1110031+9999REMSYN08887553 12960 21214 10247 20206 30133 40142 51003 60001 80003 333 10285 20232 56006 82070=
0086875530999992024010400004-34453-058590FM-15+000399999V0201201N007219999999Y009900599+02501+02101999999ADDMA1101401999999REMMET059METAR COR SADF 040000Z 12014KT CAVOK 25/21 Q1014 RMK PP000=
0089875530999992024010401004-34450-058583FM-12+000399999V0201101N006219999999N010000199+02451+02101101421ADDMA1999999101331MD1610031+9999REMSYN04887553 42960 01112 10245 20210 30133 40142 56003=
0086875530999992024010401004-34453-058590FM-15+000399999V0201101N006219999999Y009900599+02501+02101999999ADDMA1101401999999REMMET059METAR COR SADF 040100Z 11012KT CAVOK 25/21 Q1014 RMK PP000=
0089875530999992024010402004-34450-058583FM-12+000399999V0200901N005119999999N010000199+02531+02051101501ADDMA1999999101411MD1310091+9999REMSYN04887553 42960 00910 10253 20205 30141 40150 53009=
0086875530999992024010402004-34453-058590FM-15+000399999V0200901N005119999999Y009900599+02501+02101999999ADDMA1101401999999REMMET059METAR COR SADF 040200Z 09010KT CAVOK 25/21 Q1014 RMK PP000=
0086875530999992024010403004-34453-058590FM-15+000399999V0200701N006719999999Y009900599+02501+01701999999ADDMA1101501999999REMMET059METAR COR SADF 040300Z 07013KT CAVOK 25/17 Q1015 RMK PP000=
0089875530999992024010404004-34450-058583FM-12+000399999V0200701N006719999999N010000199+02371+01661101551ADDMA1999999101461MD1310131+9999REMSYN04887553 42960 00713 10237 20166 30146 40155 53013=
0086875530999992024010404004-34453-058590FM-15+000399999V0200701N006719999999Y009900599+02401+01701999999ADDMA1101501999999REMMET059METAR COR SADF 040400Z 07013KT CAVOK 24/17 Q1015 RMK PP000=
0089875530999992024010405004-34450-058583FM-12+000399999V0200801N004619999999N010000199+02231+01801101551ADDMA1999999101461MD1110051+9999REMSYN04887553 42960 00809 10223 20180 30146 40155 51005=
0082875530999992024010405004-34453-058590FM-15+000399999V0200801N004619999999Y009900599+02201+01801999999ADDMA1101501999999REMMET055METAR SADF 040500Z 08009KT CAVOK 22/18 Q1015 RMK PP000=
0106875530999992024010406004-34450-058583FM-12+000399999V0200801N005719999999N010000199+02241+01831101501ADDAA106000091MA1999999101411MD1990001+9999REMSYN05487553 12960 00811 10224 20183 30141 40150 50000 60001=
0086875530999992024010406004-34453-058590FM-15+000399999V0200801N005719999999Y009900599+02201+01801999999ADDMA1101501999999REMMET059METAR COR SADF 040600Z 08011KT CAVOK 22/18 Q1015 RMK PP000=
0083875530999992024010407004-34450-058583FM-12+000399999V0200801N005119999999N010000199+02181+99999101501ADDMA1999999101411MD1610051+9999REMSYN04287553 42960 00810 10218 30141 40150 56005=
0086875530999992024010407004-34453-058590FM-15+000399999V0200801N005119999999Y009900599+02201+01901999999ADDMA1101501999999REMMET059METAR COR SADF 040700Z 08010KT CAVOK 22/19 Q1015 RMK PP000=
0191875530999992024010408004-34450-058583FM-12+000399999V0200801N004612200019N010000199+02141+01861101591ADDGA1011+005401071GA2999+999999001GE19AGL   +99999+99999GF102991011999005401999999MA1999999101501MD1310041+9999REMSYN07087553 42460 20809 10214 20186 30150 40159 53004 81601 333 56206 81718=
0152875530999992024010408004-34453-058590FM-15+000399999V0200801N004619999999N009999199+02101+01801999999ADDGA1021+005491999GE19AGL   +99999+99999GF199999021999005491999999MA1101601999999REMMET061METAR SADF 040800Z 08009KT 9999 FEW018 21/18 Q1016 RMK PP000=
0142875530999992024010409004-34453-058590FM-15+000399999V0200801N004619999999N009999199+02101+01901999999ADDGA1041+005491999GE19AGL   +99999+99999GF199999041999005491999999MA1101601999999REMMET051METAR SADF 040900Z 08009KT 9999 SCT018 21/19 Q1016=
0191875530999992024010410004-34450-058583FM-12+000399999V0200701N00511005401CN010000199+02171+01891101701ADDGA1051+005401071GA2999+999999001GE19AGL   +99999+99999GF105991051999005401999999MA1999999101611MD1210201+9999REMSYN07087553 42460 50710 10217 20189 30161 40170 52020 85601 333 56206 85718=
0156875530999992024010410004-34453-058590FM-15+000399999V0200701N00511005491CN009999199+02201+01901999999ADDGA1071+005491999GE19AGL   +99999+99999GF199999071999005491999999MA1101701999999REMMET065METAR COR SADF 041000Z 07010KT 9999 BKN018 22/19 Q1017 RMK PP000=
0175875530999992024010411004-34450-058583FM-12+000399999V0200601N00571005101CN010000199+02231+01851101741ADDGA1061+005101071GE19AGL   +99999+99999GF106991061999005101999999MA1999999101651MD1210151+9999REMSYN07087553 42460 60611 10223 20185 30165 40174 52015 86600 333 56200 86717=
0156875530999992024010411004-34453-058590FM-15+000399999V0200601N00571005181CN009999199+02201+01901999999ADDGA1071+005181999GE19AGL   +99999+99999GF199999071999005181999999MA1101701999999REMMET065METAR COR SADF 041100Z 06011KT 9999 BKN017 22/19 Q1017 RMK PP000=
0213875530999992024010412004-34450-058583FM-12+000399999V0200401N00511005701CN010000199+02281+01841101741ADDGA1061+005701061GE19AGL   +99999+99999GF106991061999005701999999KA1240M+02541KA2240N+02111MA1999999101651MD1110091+9999REMSYN08287553 32460 60410 10228 20184 30165 40174 51009 86500 333 10254 20211 56200 86619=
0164875530999992024010412004-34453-058590FM-15+000399999V0200401V00511005791CN009999199+02301+01801999999ADDGA1071+005791999GE19AGL   +99999+99999GF199999071999005791999999MA1101701999999REMMET073METAR COR SADF 041200Z 04010KT 020V080 9999 BKN019 23/18 Q1017 RMK PP000=
0175875530999992024010413004-34450-058583FM-12+000399999V0200701N00621006601CN010000199+02541+01931101731ADDGA1061+006601061GE19AGL   +99999+99999GF106991061999006601999999MA1999999101641MD1110031+9999REMSYN07087553 42560 60712 10254 20193 30164 40173 51003 86500 333 56200 86622=
0164875530999992024010413004-34453-058590FM-15+000399999V0200701V00621006711CN009999199+02501+01901999999ADDGA1071+006711999GE19AGL   +99999+99999GF199999071999006711999999MA1101701999999REMMET073METAR COR SADF 041300Z 07012KT 030V100 9999 BKN022 25/19 Q1017 RMK PP000=
0197875530999992024010414004-34450-058583FM-12+000399999V0200701N00411008701CN010000199+02581+01921101731ADDGA1051+008701061GA2071+013501061GE19AGL   +99999+99999GF107991051999008701999999MA1999999101641MD1610011+9999REMSYN07687553 42560 70708 10258 20192 30164 40173 56001 87500 333 56200 85629 87645=
0183875530999992024010414004-34453-058590FM-15+000399999V0200701V00411008841CN009999199+02601+01901999999ADDGA1071+008841999GA2071+013721999GE19AGL   +99999+99999GF199999071999008841999999MA1101701999999REMMET076METAR SADF 041400Z 07008KT 030V110 9999 BKN029 BKN045 26/19 Q1017 RMK PP000=
0164875530999992024010415004-34453-058590FM-15+000399999V0200801V00461009451CN009999199+02701+01901999999ADDGA1071+009451999GE19AGL   +99999+99999GF199999071999009451999999MA1101601999999REMMET073METAR COR SADF 041500Z 08009KT 040V100 9999 BKN031 27/19 Q1016 RMK PP000=
0175875530999992024010416004-34450-058583FM-12+000399999V0200901N00571009301CN010000199+02781+01911101591ADDGA1051+009301061GE19AGL   +99999+99999GF105991051999009301999999MA1999999101501MD1810131+9999REMSYN07087553 42560 50911 10278 20191 30150 40159 58013 85500 333 56200 85631=
0164875530999992024010416004-34453-058590FM-15+000399999V0200901V00571009451CN009999199+02801+01901999999ADDGA1071+009451999GE19AGL   +99999+99999GF199999071999009451999999MA1101601999999REMMET073METAR COR SADF 041600Z 09011KT 050V130 9999 BKN031 28/19 Q1016 RMK PP000=
0191875530999992024010417004-34450-058583FM-12+000399999V0200901N004612200019N010000199+02781+01911101551ADDGA1021+010501061GA2999+999999001GE19AGL   +99999+99999GF104991021999010501999999MA1999999101461MD1710171+9999REMSYN07087553 42660 40909 10278 20191 30146 40155 57017 82501 333 56207 82635=
0164875530999992024010417004-34453-058590FM-15+000399999V0200901V004619999999N009999199+02701+01801999999ADDGA1021+010671999GE19AGL   +99999+99999GF199999021999010671999999MA1101501999999REMMET073METAR COR SADF 041700Z 09009KT 050V130 9999 FEW035 27/18 Q1015 RMK PP000=
0208875530999992024010418004-34450-058583FM-12+000399999V0201101N005712200019N010000199+02751+01961101471ADDAA106000091GA1021+010501081GA2999+999999001GE19AGL   +99999+99999GF103991021999010501999999MA1999999101381MD1710201+9999REMSYN07687553 12660 31111 10275 20196 30138 40147 57020 60001 82101 333 56207 82835=
0164875530999992024010418004-34453-058590FM-15+000399999V0201101V005719999999N009999199+02801+01901999999ADDGA1021+010671999GE19AGL   +99999+99999GF199999021999010671999999MA1101401999999REMMET073METAR COR SADF 041800Z 11011KT 080V150 9999 FEW035 28/19 Q1014 RMK PP000=
0191875530999992024010419004-34450-058583FM-12+000399999V0201101N006212200019N010000199+02851+01921101421ADDGA1011+008701081GA2999+999999001GE19AGL   +99999+99999GF102991011999008701999999MA1999999101331MD1710171+9999REMSYN07087553 42560 21112 10285 20192 30133 40142 57017 81101 333 56207 81829=
0160875530999992024010419004-34453-058590FM-15+000399999V0201101V006219999999N009999199+02901+02001999999ADDGA1021+008841999GE19AGL   +99999+99999GF199999021999008841999999MA1101401999999REMMET069METAR SADF 041900Z 11012KT 080V140 9999 FEW029 29/20 Q1014 RMK PP000=
0191875530999992024010420004-34450-058583FM-12+000399999V0201101N005112200019N010000199+02781+01871101391ADDGA1011+009601081GA2999+999999001GE19AGL   +99999+99999GF102991011999009601999999MA1999999101301MD1710161+9999REMSYN07087553 42560 21110 10278 20187 30130 40139 57016 81101 333 56207 81832=
0154875530999992024010420004-34453-058590FM-15+000399999V0201101V005119999999N009999199+02801+01801999999ADDGA1021+009751999GE19AGL   +99999+99999GF199999021999009751999999MA1101401999999REMMET063METAR COR SADF 042000Z 11010KT 080V140 9999 FEW032 28/18 Q1014=
0154875530999992024010421004-34453-058590FM-15+000399999V0201101V005719999999N009999199+02801+02001999999ADDGA1021+009751999GE19AGL   +99999+99999GF199999021999009751999999MA1101301999999REMMET063METAR COR SADF 042100Z 11011KT 080V140 9999 FEW032 28/20 Q1013=
0175875530999992024010422004-34450-058583FM-12+000399999V0201201N005712200019N010000199+02571+02031101331ADDGA1041+060001021GE19AGL   +99999+99999GF104991041999060001999999MA1999999101241MD1710091+9999REMSYN07087553 42960 41211 10257 20203 30124 40133 57009 80006 333 56007 84270=
0072875530999992024010422004-34453-058590FM-15+000399999V0201201N005719999999Y009900599+02601+02001999999ADDMA1101301999999REMMET045METAR SADF 042200Z 12011KT CAVOK 26/20 Q1013=
0175875530999992024010423004-34450-058583FM-12+000399999V0201201N004612200019N010000199+02531+02051101361ADDGA1031+060001021GE19AGL   +99999+99999GF103991031999060001999999MA1999999101281MD1510031+9999REMSYN07087553 42960 31209 10253 20205 30128 40136 55003 80006 333 56007 83270=
0072875530999992024010423004-34453-058590FM-15+000399999V0201201N004619999999Y009900599+02501+02001999999ADDMA1101301999999REMMET045METAR SADF 042300Z 12009KT CAVOK 25/20 Q1013=
0252875530999992024010500004-34450-058583FM-12+000399999V0201201N005112200019N010000199+02541+02031101401ADDAA106000091GA1011+030001031GA2031+060001001GE19AGL   +99999+99999GF104991011999030001999999KA1120M+02901KA2120N+02281MA1999999101301MD1210041+9999REMSYN09487553 12960 41210 10254 20203 30130 40140 52004 60001 81073 333 10290 20228 56077 81360 83070=
0084875530999992024010500004-34453-058590FM-15+000399999V0201201V005119999999Y009900599+02501+02001999999ADDMA1101301999999REMMET057METAR COR SADF 050000Z 12010KT 090V150 CAVOK 25/20 Q1013=
0175875530999992024010501004-34450-058583FM-12+000399999V0201101N004112200019N010000199+02541+02091101441ADDGA1041+060001021GE19AGL   +99999+99999GF104991041999060001999999MA1999999101361MD1210121+9999REMSYN07087553 42960 41108 10254 20209 30136 40144 52012 80008 333 56007 84270=
0072875530999992024010501004-34453-058590FM-15+000399999V0201101N004119999999Y009900599+02501+02101999999ADDMA1101401999999REMMET045METAR SADF 050100Z 11008KT CAVOK 25/21 Q1014=
0175875530999992024010502004-34450-058583FM-12+000399999V0200801N003612200019N010000199+02481+02061101461ADDGA1031+060001021GE19AGL   +99999+99999GF103991031999060001999999MA1999999101371MD1210091+9999REMSYN07087553 42960 30807 10248 20206 30137 40146 52009 80008 333 56007 83270=
0072875530999992024010502004-34453-058590FM-15+000399999V0200801N003619999999Y009900599+02501+02101999999ADDMA1101401999999REMMET045METAR SADF 050200Z 08007KT CAVOK 25/21 Q1014=
0072875530999992024010503004-34453-058590FM-15+000399999V0200701N004119999999Y009900599+02401+01901999999ADDMA1101401999999REMMET045METAR SADF 050300Z 07008KT CAVOK 24/19 Q1014=
0175875530999992024010504004-34450-058583FM-12+000399999V0200701N005712200019N010000199+02381+01781101431ADDGA1031+060001021GE19AGL   +99999+99999GF103991031999060001999999MA1999999101341MD1710011+9999REMSYN07087553 42960 30711 10238 20178 30134 40143 57001 80008 333 56007 83270=
0072875530999992024010504004-34453-058590FM-15+000399999V0200701N005719999999Y009900599+02401+01801999999ADDMA1101401999999REMMET045METAR SADF 050400Z 07011KT CAVOK 24/18 Q1014=
0175875530999992024010505004-34450-058583FM-12+000399999V0200601N005112200019N010000199+02281+01841101391ADDGA1041+060001021GE19AGL   +99999+99999GF104991041999060001999999MA1999999101301MD1710071+9999REMSYN07087553 42960 40610 10228 20184 30130 40139 57007 80008 333 56007 84270=
0072875530999992024010505004-34453-058590FM-15+000399999V0200601N005119999999Y009900599+02301+01801999999ADDMA1101401999999REMMET045METAR SADF 050500Z 06010KT CAVOK 23/18 Q1014=
0192875530999992024010506004-34450-058583FM-12+000399999V0200601N005112200019N010000199+02251+01791101361ADDAA106000091GA1031+060001021GE19AGL   +99999+99999GF103991031999060001999999MA1999999101281MD1710111+9999REMSYN07687553 12960 30610 10225 20179 30128 40136 57011 60001 80008 333 56007 83270=
0072875530999992024010506004-34453-058590FM-15+000399999V0200601N005119999999Y009900599+02301+01801999999ADDMA1101301999999REMMET045METAR SADF 050600Z 06010KT CAVOK 23/18 Q1013=
0175875530999992024010507004-34450-058583FM-12+000399999V0200501N004112200019N010000199+02131+01831101361ADDGA1021+060001021GE19AGL   +99999+99999GF102991021999060001999999MA1999999101281MD1710071+9999REMSYN07087553 42960 20508 10213 20183 30128 40136 57007 80008 333 56007 82270=
0072875530999992024010507004-34453-058590FM-15+000399999V0200501N004119999999Y009900599+02101+01801999999ADDMA1101301999999REMMET045METAR SADF 050700Z 05008KT CAVOK 21/18 Q1013=
0072875530999992024010508004-34453-058590FM-15+000399999V0200601N004619999999Y009900599+02101+01801999999ADDMA1101301999999REMMET045METAR SADF 050800Z 06009KT CAVOK 21/18 Q1013=
0072875530999992024010509004-34453-058590FM-15+000399999V0200401N003119999999Y009900599+02001+01801999999ADDMA1101401999999REMMET045METAR SADF 050900Z 04006KT CAVOK 20/18 Q1014=
0175875530999992024010510004-34450-058583FM-12+000399999V0200401N003612200019N010000199+02131+01761101511ADDGA1041+060001021GE19AGL   +99999+99999GF104991041999060001999999MA1999999101421MD1210151+9999REMSYN07087553 42960 40407 10213 20176 30142 40151 52015 80008 333 56007 84270=
0072875530999992024010510004-34453-058590FM-15+000399999V0200401N003619999999Y009900599+02101+01801999999ADDMA1101501999999REMMET045METAR SADF 051000Z 04007KT CAVOK 21/18 Q1015=
0175875530999992024010511004-34450-058583FM-12+000399999V0200301N003610600019N010000199+02171+01841101501ADDGA1051+060001021GE19AGL   +99999+99999GF105991051999060001999999MA1999999101411MD1210191+9999REMSYN07087553 42960 50307 10217 20184 30141 40150 52019 80008 333 56007 85270=
0072875530999992024010511004-34453-058590FM-15+000399999V0200301N003619999999Y009900599+02201+01801999999ADDMA1101501999999REMMET045METAR SADF 051100Z 03007KT CAVOK 22/18 Q1015=
0213875530999992024010512004-34450-058583FM-12+000399999V0200201N004112200019N010000199+02371+01851101471ADDGA1041+060001021GE19AGL   +99999+99999GF104991041999060001999999KA1240M+02561KA2240N+02011MA1999999101381MD1990051+9999REMSYN08287553 32960 40208 10237 20185 30138 40147 50005 80005 333 10256 20201 56006 84270=
0072875530999992024010512004-34453-058590FM-15+000399999V0200201N004119999999Y009900599+02401+01901999999ADDMA1101401999999REMMET045METAR SADF 051200Z 02008KT CAVOK 24/19 Q1014=
0175875530999992024010513004-34450-058583FM-12+000399999V0200201N004112200019N010000199+02581+01921101481ADDGA1041+060001021GE19AGL   +99999+99999GF104991041999060001999999MA1999999101381MD1510041+9999REMSYN07087553 42960 40208 10258 20192 30138 40148 55004 80005 333 56006 84270=
0084875530999992024010513004-34453-058590FM-15+000399999V0200201V004119999999Y009900599+02601+01901999999ADDMA1101401999999REMMET057METAR COR SADF 051300Z 02008KT 330V060 CAVOK 26/19 Q1014=
0197875530999992024010514004-34450-058583FM-12+000399999V0200401N003612200019N010000199+02781+02031101421ADDGA1021+004501081GA2031+060001021GE19AGL   +99999+99999GF103991021999004501999999MA1999999101331MD1810081+9999REMSYN07687553 42460 30407 10278 20203 30133 40142 58008 82105 333 56106 82815 83270=
0154875530999992024010514004-34453-058590FM-15+000399999V0200401V003619999999N009999199+02801+02001999999ADDGA1021+004571999GE19AGL   +99999+99999GF199999021999004571999999MA1101401999999REMMET063METAR COR SADF 051400Z 04007KT 010V070 9999 FEW015 28/20 Q1014=
0154875530999992024010515004-34453-058590FM-15+000399999V0200401V004619999999N009999199+02901+02001999999ADDGA1041+009751999GE19AGL   +99999+99999GF199999041999009751999999MA1101301999999REMMET063METAR COR SADF 051500Z 04009KT 360V080 9999 SCT032 29/20 Q1013=
0175875530999992024010516004-34450-058583FM-12+000399999V0200301N004612200019N010000199+02981+01991101261ADDGA1041+011701081GE19AGL   +99999+99999GF104991041999011701999999MA1999999101171MD1710211+9999REMSYN07087553 42660 40309 10298 20199 30117 40126 57021 84100 333 56100 84839=
0154875530999992024010516004-34453-058590FM-15+000399999V0200301V004619999999N009999199+03001+02001999999ADDGA1041+011891999GE19AGL   +99999+99999GF199999041999011891999999MA1101201999999REMMET063METAR COR SADF 051600Z 03009KT 340V090 9999 SCT039 30/20 Q1012=
0175875530999992024010517004-34450-058583FM-12+000399999V0200401N00361013801CN010000199+02981+01921101201ADDGA1051+013801081GE19AGL   +99999+99999GF105991051999013801999999MA1999999101101MD1710231+9999REMSYN07087553 42660 50407 10298 20192 30110 40120 57023 85100 333 56100 85846=
0154875530999992024010517004-34453-058590FM-15+000399999V0200401V00361014021CN009999199+03001+01901999999ADDGA1071+014021999GE19AGL   +99999+99999GF199999071999014021999999MA1101201999999REMMET063METAR COR SADF 051700Z 04007KT 330V090 9999 BKN046 30/19 Q1012=
0192875530999992024010518004-34450-058583FM-12+000399999V0200701N00411012901CN010000199+02931+01951101161ADDAA106000091GA1051+012901081GE19AGL   +99999+99999GF105991051999012901999999MA1999999101061MD1710201+9999REMSYN07687553 12660 50708 10293 20195 30106 40116 57020 60001 85100 333 56100 85843=
0154875530999992024010518004-34453-058590FM-15+000399999V0200701V00411013111CN009999199+02901+02001999999ADDGA1071+013111999GE19AGL   +99999+99999GF199999071999013111999999MA1101101999999REMMET063METAR COR SADF 051800Z 07008KT 040V100 9999 BKN043 29/20 Q1011=
0175875530999992024010519004-34450-058583FM-12+000399999V0200801N004112200019N010000199+03091+02001101051ADDGA1041+014101081GE19AGL   +99999+99999GF104991041999014101999999MA1999999100961MD1710211+9999REMSYN07087553 42660 40808 10309 20200 30096 40105 57021 84100 333 56100 84847=
0154875530999992024010519004-34453-058590FM-15+000399999V0200801V004119999999N009999199+03101+02001999999ADDGA1041+014331999GE19AGL   +99999+99999GF199999041999014331999999MA1101001999999REMMET063METAR COR SADF 051900Z 08008KT 040V100 9999 SCT047 31/20 Q1010=
0175875530999992024010520004-34450-058583FM-12+000399999V0200801N004612200019N010000199+03081+02041100991ADDGA1021+014101081GE19AGL   +99999+99999GF102991021999014101999999MA1999999100901MD1710201+9999REMSYN07087553 42660 20809 10308 20204 30090 40099 57020 82100 333 56100 82847=
0154875530999992024010520004-34453-058590FM-15+000399999V0200801V004619999999N009999199+03101+02001999999ADDGA1021+014331999GE19AGL   +99999+99999GF199999021999014331999999MA1100901999999REMMET063METAR COR SADF 052000Z 08009KT 040V110 9999 FEW047 31/20 Q1009=
0142875530999992024010521004-34453-058590FM-15+000399999V0200801N005719999999N009999199+02901+02101999999ADDGA1021+014331999GE19AGL   +99999+99999GF199999021999014331999999MA1100901999999REMMET051METAR SADF 052100Z 08011KT 9999 FEW047 29/21 Q1009=
0089875530999992024010522004-34450-058583FM-12+000399999V0200901N006219999999N010000199+02821+02071101001ADDMA1999999100901MD1510051+9999REMSYN04887553 42960 00912 10282 20207 30090 40100 55005=
0072875530999992024010522004-34453-058590FM-15+000399999V0200901N006219999999Y009900599+02801+02101999999ADDMA1101001999999REMMET045METAR SADF 052200Z 09012KT CAVOK 28/21 Q1010=
0191875530999992024010523004-34450-058583FM-12+000399999V0201001N005112200019N010000199+02721+02131101051ADDGA1011+030001031GA2999+999999001GE19AGL   +99999+99999GF101991011999030001999999MA1999999100961MD1310051+9999REMSYN07087553 42960 11010 10272 20213 30096 40105 53005 81072 333 56066 81360=
0072875530999992024010523004-34453-058590FM-15+000399999V0201001N005119999999Y009900599+02701+02101999999ADDMA1101001999999REMMET045METAR SADF 052300Z 10010KT CAVOK 27/21 Q1010=
0230875530999992024010600004-34450-058583FM-12+000399999V0201001N005112200019N010000199+02651+02161101061ADDAA106000091GA1011+030001031GE19AGL   +99999+99999GF101991011999030001999999KA1120M+03091KA2120N+02371MA1999999100971MD1210091+9999REMSYN08887553 12960 11010 10265 20216 30097 40106 52009 60001 81070 333 10309 20237 56060 81360=
0072875530999992024010600004-34453-058590FM-15+000399999V0201001N005119999999Y009900599+02601+02201999999ADDMA1101001999999REMMET045METAR SADF 060000Z 10010KT CAVOK 26/22 Q1010=
0089875530999992024010601004-34450-058583FM-12+000399999V0201001N004619999999N010000199+02621+02241101101ADDMA1999999101011MD1210111+9999REMSYN04887553 42960 01009 10262 20224 30101 40110 52011=
0072875530999992024010601004-34453-058590FM-15+000399999V0201001N004619999999Y009900599+02601+02201999999ADDMA1101101999999REMMET045METAR SADF 060100Z 10009KT CAVOK 26/22 Q1011=
0089875530999992024010602004-34450-058583FM-12+000399999V0201001N004619999999N010000199+02601+02311101041ADDMA1999999100941MD1710011+9999REMSYN04887553 42960 01009 10260 20231 30094 40104 57001=
0072875530999992024010602004-34453-058590FM-15+000399999V0201001N004619999999Y009900599+02601+02301999999ADDMA1101001999999REMMET045METAR SADF 060200Z 10009KT CAVOK 26/23 Q1010=
0072875530999992024010603004-34453-058590FM-15+000399999V0200701N003619999999Y009900599+02501+02301999999ADDMA1101001999999REMMET045METAR SADF 060300Z 07007KT CAVOK 25/23 Q1010=
0089875530999992024010604004-34450-058583FM-12+000399999V0200301N003619999999N010000199+02491+01991101001ADDMA1999999100901MD1710111+9999REMSYN04887553 42960 00307 10249 20199 30090 40100 57011=
0072875530999992024010604004-34453-058590FM-15+000399999V0200301N003619999999Y009900599+02501+02001999999ADDMA1101001999999REMMET045METAR SADF 060400Z 03007KT CAVOK 25/20 Q1010=
0089875530999992024010605004-34450-058583FM-12+000399999V0200201N004119999999N010000199+02451+01911100941ADDMA1999999100851MD1710091+9999REMSYN04887553 42960 00208 10245 20191 30085 40094 57009=
0072875530999992024010605004-34453-058590FM-15+000399999V0200201N004119999999Y009900599+02501+01901999999ADDMA1100901999999REMMET045METAR SADF 060500Z 02008KT CAVOK 25/19 Q1009=
0106875530999992024010606004-34450-058583FM-12+000399999V0203601N003119999999N010000199+02391+01941100921ADDAA106000091MA1999999100821MD1710121+9999REMSYN05487553 12960 03606 10239 20194 30082 40092 57012 60001=
0072875530999992024010606004-34453-058590FM-15+000399999V0203601N003119999999Y009900599+02401+01901999999ADDMA1100901999999REMMET045METAR SADF 060600Z 36006KT CAVOK 24/19 Q1009=
0175875530999992024010607004-34450-058583FM-12+000399999V0203601N001512200019N010000199+02321+01921100941ADDGA1031+030001031GE19AGL   +99999+99999GF103991031999030001999999MA1999999100851MD1710051+9999REMSYN07087553 42960 33603 10232 20192 30085 40094 57005 83070 333 56060 83360=
0084875530999992024010607004-34453-058590FM-15+000399999V0203601V001519999999Y009900599+02301+01901999999ADDMA1100901999999REMMET057METAR COR SADF 060700Z 36003KT 330V040 CAVOK 23/19 Q1009=
0175875530999992024010608004-34450-058583FM-12+000399999V0200201N004112200019N010000199+02301+01901100851ADDGA1021+030001031GE19AGL   +99999+99999GF102991021999030001999999MA1999999100761MD1710091+9999REMSYN07087553 42960 20208 10230 20190 30076 40085 57009 82070 333 56060 82360=
0072875530999992024010608004-34453-058590FM-15+000399999V0200201N004119999999Y009900599+02301+01901999999ADDMA1100801999999REMMET045METAR SADF 060800Z 02008KT CAVOK 23/19 Q1008=
0084875530999992024010609004-34453-058590FM-15+000399999V0200201V002619999999Y009900599+02201+01901999999ADDMA1100901999999REMMET057METAR COR SADF 060900Z 02005KT 340V040 CAVOK 22/19 Q1009=
0197875530999992024010610004-34450-058583FM-12+000399999V0203401N003610600019N010000199+02201+01951100901ADDGA1021+030001031GA2081+060001021GE19AGL   +99999+99999GF108991021999030001999999MA1999999100811MD1710041+9999REMSYN07687553 42960 83407 10220 20195 30081 40090 57004 82077 333 56066 82360 88270=
0084875530999992024010610004-34453-058590FM-15+000399999V0203401V003619999999Y009900599+02301+02001999999ADDMA1100901999999REMMET057METAR COR SADF 061000Z 34007KT 320V020 CAVOK 23/20 Q1009=
0197875530999992024010611004-34450-058583FM-12+000399999V0200201N003610600019N010000199+02311+01961100831ADDGA1041+030001031GA2081+060001021GE19AGL   +99999+99999GF108991041999030001999999MA1999999100741MD1710011+9999REMSYN07687553 42960 80207 10231 20196 30074 40083 57001 84077 333 56066 84360 88270=
0084875530999992024010611004-34453-058590FM-15+000399999V0200201V003619999999Y009900599+02301+02001999999ADDMA1100801999999REMMET057METAR COR SADF 061100Z 02007KT 350V050 CAVOK 23/20 Q1008=
0235875530999992024010612004-34450-058583FM-12+000399999V0203201N002610600019N010000199+02451+02061100921ADDGA1041+030001031GA2081+060001021GE19AGL   +99999+99999GF108991041999030001999999KA1240M+02651KA2240N+02231MA1999999100821MD1310041+9999REMSYN08887553 32960 83205 10245 20206 30082 40092 53004 84077 333 10265 20223 56066 84360 88270=
0084875530999992024010612004-34453-058590FM-15+000399999V0203201V002619999999Y009900599+02501+02101999999ADDMA1100901999999REMMET057METAR COR SADF 061200Z 32005KT 260V020 CAVOK 25/21 Q1009=
0197875530999992024010613004-34450-058583FM-12+000399999V0203601N004110600019N010000199+02521+02121100931ADDGA1021+030001031GA2081+060001021GE19AGL   +99999+99999GF108991021999030001999999MA1999999100841MD1310031+9999REMSYN07687553 42960 83608 10252 20212 30084 40093 53003 82077 333 56066 82360 88270=
0072875530999992024010613004-34453-058590FM-15+000399999V0203601N004119999999Y009900599+02501+02101999999ADDMA1100901999999REMMET045METAR SADF 061300Z 36008KT CAVOK 25/21 Q1009=
0197875530999992024010614004-34450-058583FM-12+000399999V0200601N002610600019N010000199+02561+02141100991ADDGA1021+030001031GA2081+060001021GE19AGL   +99999+99999GF108991021999030001999999MA1999999100901MD1210161+9999REMSYN07687553 42960 80605 10256 20214 30090 40099 52016 82077 333 56066 82360 88270=
0084875530999992024010614004-34453-058590FM-15+000399999V0200601V002619999999Y009900599+02601+02101999999ADDMA1100901999999REMMET057METAR COR SADF 061400Z 06005KT 010V100 CAVOK 26/21 Q1009=
0072875530999992024010615004-34453-058590FM-15+000399999V0209999C000019999999Y009900599+02601+02101999999ADDMA1101001999999REMMET045METAR SADF 061500Z 00000KT CAVOK 26/21 Q1010=
0197875530999992024010616004-34450-058583FM-12+000399999V0200301N003110600019N010000199+02601+02171100971ADDGA1021+030001031GA2081+060001021GE19AGL   +99999+99999GF108991021999030001999999MA1999999100881MD1110041+9999REMSYN07687553 42960 80306 10260 20217 30088 40097 51004 82077 333 56066 82360 88270=
0072875530999992024010616004-34453-058590FM-15+000399999V0200301N003119999999Y009900599+02601+02201999999ADDMA1100901999999REMMET045METAR SADF 061600Z 03006KT CAVOK 26/22 Q1009=
0197875530999992024010617004-34450-058583FM-12+000399999V0200501N004610600019N010000199+02671+02211100901ADDGA1021+030001031GA2081+060001021GE19AGL   +99999+99999GF108991021999030001999999MA1999999100811MD1810091+9999REMSYN07687553 42960 80509 10267 20221 30081 40090 58009 82077 333 56066 82360 88270=
0072875530999992024010617004-34453-058590FM-15+000399999V0200501N004619999999Y009900599+02701+02201999999ADDMA1100901999999REMMET045METAR SADF 061700Z 05009KT CAVOK 27/22 Q1009=
0214875530999992024010618004-34450-058583FM-12+000399999V0200201N005110600019N010000199+02791+02061100831ADDAA106000091GA1021+030001031GA2081+060001021GE19AGL   +99999+99999GF108991021999030001999999MA1999999100741MD1710161+9999REMSYN08287553 12960 80210 10279 20206 30074 40083 57016 60001 82077 333 56066 82360 88270=
0072875530999992024010618004-34453-058590FM-15+000399999V0200201N005119999999Y009900599+02801+02101999999ADDMA1100801999999REMMET045METAR SADF 061800Z 02010KT CAVOK 28/21 Q1008=
0197875530999992024010619004-34450-058583FM-12+000399999V0203401N004110600019N010000199+03011+02181100791ADDGA1011+030001031GA2081+060001021GE19AGL   +99999+99999GF108991011999030001999999MA1999999100701MD1710171+9999REMSYN07687553 42960 83408 10301 20218 30070 40079 57017 81077 333 56066 81360 88270=
0084875530999992024010619004-34453-058590FM-15+000399999V0203401V004119999999Y009900599+03001+02201999999ADDMA1100701999999REMMET057METAR COR SADF 061900Z 34008KT 300V050 CAVOK 30/22 Q1007=
0213875530999992024010620004-34450-058583FM-12+000399999V0203601N00361060001CN010000199+03041+02061100731ADDGA1011+010501081GA2061+060001021GA3999+999999021GE19AGL   +99999+99999GF106991011999010501999999MA1999999100641MD1710171+9999REMSYN07687553 42660 63607 10304 20206 30064 40073 57017 81176 333 56076 81835 86270=
0154875530999992024010620004-34453-058590FM-15+000399999V0203601V003619999999N009999199+03001+02101999999ADDGA1021+010671999GE19AGL   +99999+99999GF199999021999010671999999MA1100701999999REMMET063METAR COR SADF 062000Z 36007KT 330V040 9999 FEW035 30/21 Q1007=
0084875530999992024010621004-34453-058590FM-15+000399999V0200201V004119999999Y009900599+03001+02101999999ADDMA1100601999999REMMET057METAR COR SADF 062100Z 02008KT 350V060 CAVOK 30/21 Q1006=
0197875530999992024010622004-34450-058583FM-12+000399999V0203601N004112200019N010000199+02871+02011100681ADDGA1011+030001031GA2041+060001021GE19AGL   +99999+99999GF104991011999030001999999MA1999999100581MD1610121+9999REMSYN07687553 42960 43608 10287 20201 30058 40068 56012 81076 333 56066 81360 84270=
0072875530999992024010622004-34453-058590FM-15+000399999V0203601N004119999999Y009900599+02901+02001999999ADDMA1100601999999REMMET045METAR SADF 062200Z 36008KT CAVOK 29/20 Q1006=
0197875530999992024010623004-34450-058583FM-12+000399999V0203501N004112200019N010000199+02831+02041100721ADDGA1011+030001031GA2041+060001021GE19AGL   +99999+99999GF104991011999030001999999MA1999999100621MD1610011+9999REMSYN07687553 42960 43508 10283 20204 30062 40072 56001 81076 333 56066 81360 84270=
0072875530999992024010623004-34453-058590FM-15+000399999V0203501N004119999999Y009900599+02801+02101999999ADDMA1100701999999REMMET045METAR SADF 062300Z 35008KT CAVOK 28/21 Q1007=
0230875530999992024010700004-34450-058583FM-12+000399999V0203601N002612200019N010000199+02631+02121100741ADDAA106000091GA1031+060001021GE19AGL   +99999+99999GF103991031999060001999999KA1120M+03071KA2120N+02451MA1999999100651MD1310071+9999REMSYN08887553 12960 33605 10263 20212 30065 40074 53007 60001 80006 333 10307 20245 56006 83270=
0072875530999992024010700004-34453-058590FM-15+000399999V0203501N002119999999Y009900599+02601+02201999999ADDMA1100801999999REMMET045METAR SADF 070000Z 35004KT CAVOK 26/22 Q1008=
0089875530999992024010701004-34450-058583FM-12+000399999V0203301N001519999999N010000199+02581+02131100881ADDMA1999999100781MD1310201+9999REMSYN04887553 42960 03303 10258 20213 30078 40088 53020=
0072875530999992024010701004-34453-058590FM-15+000399999V0203301N001519999999Y009900599+02601+02101999999ADDMA1100801999999REMMET045METAR SADF 070100Z 33003KT CAVOK 26/21 Q1008=
0089875530999992024010702004-34450-058583FM-12+000399999V0203601N002619999999N010000199+02401+02101100741ADDMA1999999100651MD1990031+9999REMSYN04887553 42960 03605 10240 20210 30065 40074 50003=
0072875530999992024010703004-34453-058590FM-15+000399999V0200101N003119999999Y009900599+02301+02101999999ADDMA1100701999999REMMET045METAR SADF 070300Z 01006KT CAVOK 23/21 Q1007=
0089875530999992024010704004-34450-058583FM-12+000399999V0200101N003119999999N010000199+02341+02161100731ADDMA1999999100641MD1510151+9999REMSYN04887553 42960 00106 10234 20216 30064 40073 55015=
0072875530999992024010704004-34453-058590FM-15+000399999V0200101N003119999999Y009900599+02401+02201999999ADDMA1100701999999REMMET045METAR SADF 070400Z 01006KT CAVOK 24/22 Q1007=
0089875530999992024010705004-34450-058583FM-12+000399999V0202201N002119999999N010000199+02401+02131100781ADDMA1999999100691MD1310041+9999REMSYN04887553 42960 02204 10240 20213 30069 40078 53004=
0072875530999992024010705004-34453-058590FM-15+000399999V0202201N002119999999Y009900599+02401+02101999999ADDMA1100701999999REMMET045METAR SADF 070500Z 22004KT CAVOK 24/21 Q1007=
0106875530999992024010706004-34450-058583FM-12+000399999V0202001N002119999999N010000199+02391+02041100781ADDAA106000091MA1999999100691MD1110081+9999REMSYN05487553 12960 02004 10239 20204 30069 40078 51008 60001=
0072875530999992024010706004-34453-058590FM-15+000399999V0202001N002119999999Y009900599+02401+02001999999ADDMA1100701999999REMMET045METAR SADF 070600Z 20004KT CAVOK 24/20 Q1007=
0089875530999992024010707004-34450-058583FM-12+000399999V0201301N004119999999N010000199+02261+01851100731ADDMA1999999100641MD1990001+9999REMSYN04887553 42960 01308 10226 20185 30064 40073 50000=
0084875530999992024010707004-34453-058590FM-15+000399999V0201301V004119999999Y009900599+02301+01901999999ADDMA1100701999999REMMET057METAR COR SADF 070700Z 13008KT 100V160 CAVOK 23/19 Q1007=
0089875530999992024010708004-34450-058583FM-12+000399999V0201301N002119999999N010000199+02261+01981100781ADDMA1999999100691MD1510001+9999REMSYN04887553 42960 01304 10226 20198 30069 40078 55000=
0072875530999992024010708004-34453-058590FM-15+000399999V0201301N002119999999Y009900599+02301+02001999999ADDMA1100701999999REMMET045METAR SADF 070800Z 13004KT CAVOK 23/20 Q1007=
0072875530999992024010709004-34453-058590FM-15+000399999V0201101N004119999999Y009900599+02401+02101999999ADDMA1100701999999REMMET045METAR SADF 070900Z 11008KT CAVOK 24/21 Q1007=
0175875530999992024010710004-34450-058583FM-12+000399999V0200901N003612200019N010000199+02431+02071100821ADDGA1041+060001021GE19AGL   +99999+99999GF104991041999060001999999MA1999999100731MD1310091+9999REMSYN07087553 42960 40907 10243 20207 30073 40082 53009 80006 333 56006 84270=
0072875530999992024010710004-34453-058590FM-15+000399999V0200901N003619999999Y009900599+02401+02101999999ADDMA1100801999999REMMET045METAR SADF 071000Z 09007KT CAVOK 24/21 Q1008=
0197875530999992024010711004-34450-058583FM-12+000399999V0200901N004110600019N010000199+02501+02061100841ADDGA1041+030001031GA2081+060001021GE19AGL   +99999+99999GF108991041999030001999999MA1999999100741MD1310051+9999REMSYN07687553 42960 80908 10250 20206 30074 40084 53005 84077 333 56077 84360 88270=
0072875530999992024010711004-34453-058590FM-15+000399999V0200901N004119999999Y009900599+02501+02101999999ADDMA1100801999999REMMET045METAR SADF 071100Z 09008KT CAVOK 25/21 Q1008=
0235875530999992024010712004-34450-058583FM-12+000399999V0200801N00511030001CN010000199+02541+02061100821ADDGA1051+030001031GA2071+060001021GE19AGL   +99999+99999GF107991051999030001999999KA1240M+02631KA2240N+02231MA1999999100731MD1990041+9999REMSYN08887553 32960 70810 10254 20206 30073 40082 50004 85076 333 10263 20223 56066 85360 87270=
0072875530999992024010712004-34453-058590FM-15+000399999V0200801N005119999999Y009900599+02501+02101999999ADDMA1100801999999REMMET045METAR SADF 071200Z 08010KT CAVOK 25/21 Q1008=
0216875530999992024010713004-34450-058583FM-12+000399999V0200801N00461999999CN010000199+02681+02051100861ADDGA1031+030001031GA2041+060001021GE19AGL   +99999+99999GF104991031999030001999999MA1999999100771MD1310041+9999REMSYN07687553 42960 40809 10268 20205 30077 40086 53004 83076 333 56066 83360 84270=EQDQ01 060003SCOCIG
0084875530999992024010713004-34453-058590FM-15+000399999V0200801V004619999999Y009900599+02701+02101999999ADDMA1100801999999REMMET057METAR COR SADF 071300Z 08009KT 050V110 CAVOK 27/21 Q1008=
0216875530999992024010714004-34450-058583FM-12+000399999V0209999V00411999999CN010000199+02851+02081100841ADDGA1021+009001081GA2041+060001021GE19AGL   +99999+99999GF104991021999009001999999MA1999999100741MD1410001+9999REMSYN07687553 42560 49908 10285 20208 30074 40084 54000 82106 333 56206 82830 84270=EQDQ01 060003SCOCIG
0142875530999992024010714004-34453-058590FM-15+000399999V0209999V004119999999N009999199+02901+02101999999ADDGA1021+009141999GE19AGL   +99999+99999GF199999021999009141999999MA1100801999999REMMET051METAR SADF 071400Z VRB08KT 9999 FEW030 29/21 Q1008=
0142875530999992024010715004-34453-058590FM-15+000399999V0209999V003619999999N009999199+02901+01901999999ADDGA1021+009141999GE19AGL   +99999+99999GF199999021999009141999999MA1100701999999REMMET051METAR SADF 071500Z VRB07KT 9999 FEW030 29/19 Q1007=
0213875530999992024010716004-34450-058583FM-12+000399999V0209999V00261030001CN010000199+03041+01901100751ADDGA1041+010501081GA2041+030001031GA3999+999999021GE19AGL   +99999+99999GF105991041999010501999999MA1999999100661MD1710111+9999REMSYN07687553 42660 59905 10304 20190 30066 40075 57011 84176 333 56166 84835 84360=
0142875530999992024010716004-34453-058590FM-15+000399999V0209999V002619999999N009999199+03001+01901999999ADDGA1041+010671999GE19AGL   +99999+99999GF199999041999010671999999MA1100701999999REMMET051METAR SADF 071600Z VRB05KT 9999 SCT035 30/19 Q1007=
0222875530999992024010717004-34450-058583FM-12+000399999V0200901N00461999999CN010000199+03021+01971100681ADDGA1041+012001081GA2021+013501081GE19AGL   +99999+99999GF104991041999012001999999MA1999999100581MD1710161+9999REMSYN08287553 42660 40909 10302 20197 30058 40068 57016 84201 333 56009 57854 84840 82845=EQDQ01 013503SCOCIG
0180875530999992024010717004-34453-058590FM-15+000399999V0201001V004619999999N009999199+03001+02001999999ADDGA1041+012191999GA2021+013721081GE19AGL   +99999+99999GF199999041999012191999999MA1100601999999REMMET073METAR COR SADF 071700Z 10009KT 070V130 9999 SCT040 FEW045TCU 30/20 Q1006=
0214875530999992024010718004-34450-058583FM-12+000399999V0200901N00511030001CN010000199+03011+01991100571ADDAA106000091GA1041+012001081GA2041+030001031GE19AGL   +99999+99999GF105991041999012001999999MA1999999100481MD1710211+9999REMSYN08287553 12660 50910 10301 20199 30048 40057 57021 60001 84170 333 56260 84840 84360=
0142875530999992024010718004-34453-058590FM-15+000399999V0200901N005119999999N009999199+03001+02001999999ADDGA1041+012191999GE19AGL   +99999+99999GF199999041999012191999999MA1100501999999REMMET051METAR SADF 071800Z 09010KT 9999 SCT040 30/20 Q1005=
0275875530999992024010719004-34450-058583FM-12+000399999V0200901N00461015001CN009000199+02811+01871100471ADDAY191021AY261021GA1041+013501081GA2021+015001091GA3051+030001031GA4071+060001021GE19AGL   +99999+99999GF107991041999013501999999MA1999999100381MD1710281+9999MW1951REMSYN10087553 41659 70909 10281 20187 30038 40047 57028 79596 84976 333 56266 57900 84845 82950 85360 87270=
0179875530999992024010719004-34453-058590FM-15+000399999V0200901N004619999999N009000199+02801+01901999999ADDGA1041+013721999GA2021+015241091GE19AGL   +99999+99999GF199999041999013721999999MA1100401999999MW1951REMMET066METAR SADF 071900Z 09009KT 9000 -TSRA SCT045 FEW050CB 28/19 Q1004=
0196875530999992024010719184-34453-058590FM-16+000399999V0201801V006210304819N003000199+02501+02001999999ADDGA1021+013721091GA2081+030481999GE19AGL   +99999+99999GF199999021999013721999999MA1100501999999MW1951REMMET083SPECI SADF 071918Z 18012KT 140V210 3000 TSRA FEW045CB OVC100 25/20 Q1005 RMK PP999=
0196875530999992024010719314-34453-058590FM-16+000399999V0201801V006219999999N001000199+02301+02101999999ADDED105U99999GA1041+015241091GE19AGL   +99999+99999GF199999041999015241999999MA1100501999999MW1971REMMET088SPECI SADF 071931Z 18012KT 140V210 1000 R05/P2000N +TSRA SCT050CB 23/21 Q1005 RMK PP003=
0223875530999992024010719464-34453-058590FM-16+000399999V0202101N009810106719N002500199+02201+02001999999ADDGA1041+007321999GA2071+010671999GA3021+015241091GE19AGL   +99999+99999GF199999041999007321999999MA1100601999999MW1971OC101601REMMET086SPECI SADF 071946Z 21019G31KT 2500 +TSRA SCT024 BKN035 FEW050CB 22/20 Q1006 RMK PP007=
0231875530999992024010720004-34450-058583FM-12+000399999V0202201N01081015001CN001500199+02051+01881100591ADDAY191021AY261021GA1041+003901071GA2031+015001091GE19AGL   +99999+99999GF108991041999003901999999MA1999999100501MD1510081+9999MW1971REMSYN08887553 41415 82221 10205 20188 30050 40059 55008 79796 889// 333 56500 57920 84713 83950=
0240875530999992024010720004-34453-058590FM-15+000399999V0202201N01081007321CN001500199+02101+01901999999ADDGA1021+003961999GA2041+007321999GA3081+009141999GA4041+015241091GE19AGL   +99999+99999GF199999021999003961999999MA1100601999999MW1971OC101601REMMET087METAR COR SADF 072000Z 22021G31KT 1500 +TSRA FEW013 SCT024 OVC030 SCT050CB 21/19 Q1006=
0212875530999992024010720154-34453-058590FM-16+000399999V0201801N004110128019N004000199+02101+01801999999ADDGA1021+003961999GA2071+012801999GA3021+015241091GE19AGL   +99999+99999GF199999021999003961999999MA1100501999999MW1951REMMET083SPECI SADF 072015Z 18008KT 4000 -TSRA FEW013 BKN042 FEW050CB 21/18 Q1005 RMK PP014=
0220875530999992024010720494-34453-058590FM-16+000399999V0200201V00261012191CN006000199+02101+01901999999ADDGA1021+003961999GA2041+012191999GA3021+015241091GE19AGL   +99999+99999GF199999021999003961999999MA1100501999999MW1951REMMET091SPECI SADF 072049Z 02005KT 350V060 6000 -TSRA FEW013 SCT040 FEW050CB 21/19 Q1005 RMK PP004=
0156875530999992024010721004-34453-058590FM-15+000399999V0203501N005119999999N008000199+02101+01901999999ADDGA1021+015241091GE19AGL   +99999+99999GF199999021999015241999999MA1100601999999MW1951REMMET059METAR SADF 072100Z 35010KT 8000 -TSRA FEW050CB 21/19 Q1006=
0165875530999992024010721044-34453-058590FM-16+000399999V0203601N005719999999N004000199+02101+01901999999ADDGA1021+015241091GE19AGL   +99999+99999GF199999021999015241999999MA1100501999999MW1951REMMET068SPECI SADF 072104Z 36011KT 4000 TSRA FEW050CB 21/19 Q1005 RMK PP002=
0189875530999992024010721184-34453-058590FM-16+000399999V0203201N004119999999N006000199+02001+01901999999ADDGA1021+014021999GA2021+015241091GE19AGL   +99999+99999GF199999021999014021999999MA1100601999999MW1951REMMET076SPECI SADF 072118Z 32008KT 6000 -TSRA FEW046 FEW050CB 20/19 Q1006 RMK PP999=
0247875530999992024010722004-34450-058583FM-12+000399999V0200301N00261030001CN009000199+01991+01881100651ADDAY191021AY261021GA1031+013501061GA2051+030001031GA3081+060001021GE19AGL   +99999+99999GF108991031999013501999999MA1999999100561MD1310171+9999MW1911REMSYN08887553 41659 80305 10199 20188 30056 40065 53017 79196 83576 333 56266 83645 85360 88270=
0169875530999992024010722004-34453-058590FM-15+000399999V0200301V002619999999N009000199+02001+01901999999ADDGA1041+013721999GE19AGL   +99999+99999GF199999041999013721999999MA1100601999999MW1611REMMET072METAR COR SADF 072200Z 03005KT 360V090 9000 -RA SCT045 20/19 Q1006 RETS=
0225875530999992024010723004-34450-058583FM-12+000399999V0200101N003110300019N008000199+02021+01861100771ADDAY191021AY261021GA1021+013501061GA2081+030001031GE19AGL   +99999+99999GF108991021999013501999999MA1999999100681MD1310171+9999MW1601REMSYN08287553 41658 80106 10202 20186 30068 40077 53017 76096 8257/ 333 56169 82645 88360=
0164875530999992024010723004-34453-058590FM-15+000399999V0200101V003119999999N008000199+02001+01901999999ADDGA1021+013721999GE19AGL   +99999+99999GF199999021999013721999999MA1100801999999MW1611REMMET067METAR COR SADF 072300Z 01006KT 330V050 8000 -RA FEW045 20/19 Q1008=
0280875530999992024010800004-34450-058583FM-12+000399999V0202101N007210300019N008000199+02091+01901100821ADDAA106019031AY191021AY261021GA1021+004201061GA2081+030001031GE19AGL   +99999+99999GF108991021999004201999999KA1120M+03151KA2120N+01981MA1999999100731MD1310231+9999MW1601REMSYN10087553 11458 82114 10209 20190 30073 40082 53023 60191 76096 8257/ 333 10315 20198 56569 82614 88360=
0152875530999992024010800004-34453-058590FM-15+000399999V0202101N007219999999N008000199+02101+01901999999ADDGA1021+004271999GE19AGL   +99999+99999GF199999021999004271999999MA1100801999999MW1611REMMET055METAR SADF 080000Z 21014KT 8000 -RA FEW014 21/19 Q1008=
0183875530999992024010800534-34453-058590FM-16+000399999V0201501V004610134119N009999199+02101+01801999999ADDGA1041+010061999GA2071+013411999GE19AGL   +99999+99999GF199999041999010061999999MA1100901999999REMMET076SPECI SADF 080053Z 15009KT 120V190 9999 SCT033 BKN044 21/18 Q1009 RMK PP001=
0225875530999992024010801004-34450-058583FM-12+000399999V0201701N004610300019N010000199+02151+01821100921ADDAY161021AY221021GA1031+009901061GA2081+030001031GE19AGL   +99999+99999GF108991031999009901999999MA1999999100821MD1310271+9999MW1211REMSYN08287553 41560 81709 10215 20182 30082 40092 53027 72162 8357/ 333 56469 83633 88360=
0177875530999992024010801004-34453-058590FM-15+000399999V0201701V004610134119N009999199+02101+01801999999ADDGA1041+010061999GA2071+013411999GE19AGL   +99999+99999GF199999041999010061999999MA1100901999999REMMET070METAR COR SADF 080100Z 17009KT 120V210 9999 SCT033 BKN044 21/18 Q1009=
0203875530999992024010802004-34450-058583FM-12+000399999V0201201N00261030001CN010000199+02101+01701100951ADDAY161021AY221021GA1081+030001031GE19AGL   +99999+99999GF108991081999030001999999MA1999999100861MD1110191+9999MW1211REMSYN07687553 41960 81205 10210 20170 30086 40095 51019 72162 8807/ 333 56069 88360=
0084875530999992024010802004-34453-058590FM-15+000399999V0201201V002619999999Y009900599+02101+01701999999ADDMA1100901999999REMMET057METAR COR SADF 080200Z 12005KT 090V150 CAVOK 21/17 Q1009=
0152875530999992024010803004-34453-058590FM-15+000399999V0209999V002619999999N008000199+02101+01801999999ADDGA1021+012191999GE19AGL   +99999+99999GF199999021999012191999999MA1101001999999MW1611REMMET055METAR SADF 080300Z VRB05KT 8000 -RA FEW040 21/18 Q1010=
0225875530999992024010804004-34450-058583FM-12+000399999V0200201N002110300019N009000199+01921+01811100741ADDAY161021AY221021GA1021+012001061GA2081+030001031GE19AGL   +99999+99999GF108991021999012001999999MA1999999100651MD1810171+9999MW1601REMSYN08287553 41659 80204 10192 20181 30065 40074 58017 76062 8257/ 333 56169 82640 88360=
0152875530999992024010804004-34453-058590FM-15+000399999V0200201N002119999999N009000199+01901+01801999999ADDGA1021+012191999GE19AGL   +99999+99999GF199999021999012191999999MA1100701999999MW1611REMMET055METAR SADF 080400Z 02004KT 9000 -RA FEW040 19/18 Q1007=
0084875530999992024010805004-34453-058590FM-15+000399999V0200401V003119999999Y009900599+02001+01901999999ADDMA1100601999999REMMET057METAR COR SADF 080500Z 04006KT 360V060 CAVOK 20/19 Q1006=
0220875530999992024010806004-34450-058583FM-12+000399999V0203601N001512200019N010000199+01931+01831100681ADDAA106000021AY161021AY211021GA1021+030001031GE19AGL   +99999+99999GF102991021999030001999999MA1999999100581MD1510371+9999MW1011REMSYN08287553 11960 23603 10193 20183 30058 40068 55037 69901 70161 82070 333 56060 82360=
0084875530999992024010806004-34453-058590FM-15+000399999V0203601V001519999999Y009900599+01901+01901999999ADDMA1100601999999REMMET057METAR COR SADF 080600Z 36003KT 300V020 CAVOK 19/19 Q1006=
0117875530999992024010807004-34450-058583FM-12+000399999V0209999C000019999999N008000199+01811+01791100611ADDAY141021AY211021MA1999999100521MD1610131+9999MW1111REMSYN05487553 41958 00000 10181 20179 30052 40061 56013 71141=
0112875530999992024010807004-34453-058590FM-15+000399999V0209999C000012200019N008000199+01701+01701999999ADDGF100991999999999999999999MA1100601999999MW1121REMMET053METAR SADF 080700Z 00000KT 8000 MIFG NSC 17/17 Q1006=
0120875530999992024010807114-34453-058590FM-16+000399999V0209999V000512200019N003000199+01801+01801999999ADDGF100991999999999999999999MA1100601999999MW1101REMMET061SPECI SADF 080711Z VRB01KT 3000 BR NSC 18/18 Q1006 RMK PP000=
0122875530999992024010807354-34453-058590FM-16+000399999V0209999V001012200019N005000199+01801+01801999999ADDGF100991999999999999999999MA1100601999999MW1121REMMET063SPECI SADF 080735Z VRB02KT 5000 MIFG NSC 18/18 Q1006 RMK PP000=
0117875530999992024010808004-34450-058583FM-12+000399999V0209999V001019999999N010000199+01841+01821100681ADDAY141021AY221021MA1999999100581MD1310041+9999MW1021REMSYN05487553 41960 09902 10184 20182 30058 40068 53004 70242=
0072875530999992024010808004-34453-058590FM-15+000399999V0209999V001019999999Y009900599+01901+01801999999ADDMA1100601999999REMMET045METAR SADF 080800Z VRB02KT CAVOK 19/18 Q1006=
0112875530999992024010809004-34453-058590FM-15+000399999V0209999V001012200019N008000199+01801+01801999999ADDGF100991999999999999999999MA1100701999999MW1121REMMET053METAR SADF 080900Z VRB02KT 8000 MIFG NSC 18/18 Q1007=
0203875530999992024010810004-34450-058583FM-12+000399999V0202301N002112200019N010000199+01871+01791100921ADDAY141021AY221021GA1031+060001001GE19AGL   +99999+99999GF103991031999060001999999MA1999999100821MD1210311+9999MW1021REMSYN07687553 41960 32304 10187 20179 30082 40092 52031 70242 80004 333 56009 83070=
0072875530999992024010810004-34453-058590FM-15+000399999V0202301N002119999999Y009900599+01901+01801999999ADDMA1100901999999REMMET045METAR SADF 081000Z 23004KT CAVOK 19/18 Q1009=
0175875530999992024010811004-34450-058583FM-12+000399999V0202101N001512200019N010000199+02051+01911100981ADDGA1011+060001001GE19AGL   +99999+99999GF101991011999060001999999MA1999999100891MD1110311+9999REMSYN07087553 42960 12103 10205 20191 30089 40098 51031 80002 333 56006 81070=
0080875530999992024010811004-34453-058590FM-15+000399999V0202201V001519999999Y009900599+02101+01901999999ADDMA1100901999999REMMET053METAR SADF 081100Z 22003KT 180V270 CAVOK 21/19 Q1009=
0258875530999992024010812004-34450-058583FM-12+000399999V0202001N002112200019N010000199+02341+01891100981ADDAA124019031AY141021AY201021GA1011+060001001GE19AGL   +99999+99999GF101991011999060001999999KA1240M+02341KA2240N+01571MA1999999100891MD1110191+9999MW1021REMSYN09487553 11960 12004 10234 20189 30089 40098 51019 60194 70240 80002 333 10234 20157 56006 81070=
0084875530999992024010812004-34453-058590FM-15+000399999V0202001V002119999999Y009900599+02301+01901999999ADDMA1100901999999REMMET057METAR COR SADF 081200Z 20004KT 150V250 CAVOK 23/19 Q1009=
0175875530999992024010813004-34450-058583FM-12+000399999V0202301N002612200019N010000199+02471+01881101001ADDGA1011+060001001GE19AGL   +99999+99999GF101991011999060001999999MA1999999100901MD1310081+9999REMSYN07087553 42960 12305 10247 20188 30090 40100 53008 80002 333 56006 81070=
0084875530999992024010813004-34453-058590FM-15+000399999V0202301V002619999999Y009900599+02501+01901999999ADDMA1101001999999REMMET057METAR COR SADF 081300Z 23005KT 190V270 CAVOK 25/19 Q1010=
0089875530999992024010814004-34450-058583FM-12+000399999V0202201N003119999999N010000199+02641+01891100971ADDMA1999999100881MD1810011+9999REMSYN04887553 42960 02206 10264 20189 30088 40097 58001=
0084875530999992024010814004-34453-058590FM-15+000399999V0202201V003119999999Y009900599+02601+01901999999ADDMA1100901999999REMMET057METAR COR SADF 081400Z 22006KT 180V280 CAVOK 26/19 Q1009=
0084875530999992024010815004-34453-058590FM-15+000399999V0202401V003119999999Y009900599+02801+01801999999ADDMA1100901999999REMMET057METAR COR SADF 081500Z 24006KT 200V280 CAVOK 28/18 Q1009=
0089875530999992024010816004-34450-058583FM-12+000399999V0209999V002119999999N010000199+02941+01641100861ADDMA1999999100771MD1810131+9999REMSYN04887553 42960 09904 10294 20164 30077 40086 58013=
0072875530999992024010816004-34453-058590FM-15+000399999V0209999V002119999999Y009900599+02901+01601999999ADDMA1100801999999REMMET045METAR SADF 081600Z VRB04KT CAVOK 29/16 Q1008=
0175875530999992024010817004-34450-058583FM-12+000399999V0202101N004112200019N010000199+02981+01661100851ADDGA1011+012001081GE19AGL   +99999+99999GF101991011999012001999999MA1999999100761MD1610121+9999REMSYN07087553 42660 12108 10298 20166 30076 40085 56012 81100 333 56000 81840=
0150875530999992024010817004-34453-058590FM-15+000399999V0202101V004119999999N009999199+03001+01701999999ADDGA1021+012191999GE19AGL   +99999+99999GF199999021999012191999999MA1100801999999REMMET059METAR SADF 081700Z 21008KT 180V240 9999 FEW040 30/17 Q1008=
0192875530999992024010818004-34450-058583FM-12+000399999V0202301N003112200019N010000199+03031+01561100831ADDAA106000091GA1011+015001081GE19AGL   +99999+99999GF101991011999015001999999MA1999999100741MD1610081+9999REMSYN07687553 12760 12306 10303 20156 30074 40083 56008 60001 81100 333 56000 81850=
0084875530999992024010818004-34453-058590FM-15+000399999V0202301V003119999999Y009900599+03001+01601999999ADDMA1100801999999REMMET057METAR COR SADF 081800Z 23006KT 210V270 CAVOK 30/16 Q1008=
0175875530999992024010819004-34450-058583FM-12+000399999V0202701N002612200019N010000199+03131+01451100801ADDGA1011+015001081GE19AGL   +99999+99999GF101991011999015001999999MA1999999100701MD1810071+9999REMSYN07087553 42760 12705 10313 20145 30070 40080 58007 81100 333 56000 81850=
0084875530999992024010819004-34453-058590FM-15+000399999V0202701V002619999999Y009900599+03101+01501999999ADDMA1100801999999REMMET057METAR COR SADF 081900Z 27005KT 240V310 CAVOK 31/15 Q1008=
0191875530999992024010820004-34450-058583FM-12+000399999V0209999V001512200019N010000199+03081+01881100791ADDGA1011+015001081GA2999+999999001GE19AGL   +99999+99999GF101991011999015001999999MA1999999100701MD1610051+9999REMSYN07087553 42760 19903 10308 20188 30070 40079 56005 81104 333 56006 81850=
0072875530999992024010820004-34453-058590FM-15+000399999V0209999V001519999999Y009900599+03101+01901999999ADDMA1100801999999REMMET045METAR SADF 082000Z VRB03KT CAVOK 31/19 Q1008=
0080875530999992024010821004-34453-058590FM-15+000399999V0200601V004619999999Y009900599+03001+01901999999ADDMA1100701999999REMMET053METAR SADF 082100Z 06009KT 030V090 CAVOK 30/19 Q1007=
0191875530999992024010822004-34450-058583FM-12+000399999V0200601N004612200019N010000199+02851+01941100801ADDGA1011+030001031GA2999+999999001GE19AGL   +99999+99999GF101991011999030001999999MA1999999100701MD1510001+9999REMSYN07087553 42960 10609 10285 20194 30070 40080 55000 81054 333 56066 81360=
0072875530999992024010822004-34453-058590FM-15+000399999V0200601N004619999999Y009900599+02901+01901999999ADDMA1100801999999REMMET045METAR SADF 082200Z 06009KT CAVOK 29/19 Q1008=
0191875530999992024010823004-34450-058583FM-12+000399999V0200601N004112200019N010000199+02661+02011100841ADDGA1011+030001031GA2999+999999001GE19AGL   +99999+99999GF101991011999030001999999MA1999999100741MD1310041+9999REMSYN07087553 42960 10608 10266 20201 30074 40084 53004 81054 333 56066 81360=
0072875530999992024010823004-34453-058590FM-15+000399999V0200601N004119999999Y009900599+02701+02001999999ADDMA1100801999999REMMET045METAR SADF 082300Z 06008KT CAVOK 27/20 Q1008=
0230875530999992024010900004-34450-058583FM-12+000399999V0200301N001512200019N010000199+02521+01871100941ADDAA106000091GA1011+060001021GE19AGL   +99999+99999GF101991011999060001999999KA1120M+03171KA2120N+02341MA1999999100851MD1210191+9999REMSYN08887553 12960 10303 10252 20187 30085 40094 52019 60001 80008 333 10317 20234 56007 81270=
0072875530999992024010900004-34453-058590FM-15+000399999V0200301N001519999999Y009900599+02501+01901999999ADDMA1100901999999REMMET045METAR SADF 090000Z 03003KT CAVOK 25/19 Q1009=
0089875530999992024010901004-34450-058583FM-12+000399999V0203601N001019999999N010000199+02421+01931100991ADDMA1999999100901MD1210201+9999REMSYN04887553 42960 03602 10242 20193 30090 40099 52020=
0072875530999992024010901004-34453-058590FM-15+000399999V0203601N001019999999Y009900599+02401+01901999999ADDMA1100901999999REMMET045METAR SADF 090100Z 36002KT CAVOK 24/19 Q1009=
0089875530999992024010902004-34450-058583FM-12+000399999V0209999C000019999999N010000199+02371+01891101031ADDMA1999999100941MD1210201+9999REMSYN04887553 42960 00000 10237 20189 30094 40103 52020=
0072875530999992024010902004-34453-058590FM-15+000399999V0209999C000019999999Y009900599+02401+01901999999ADDMA1101001999999REMMET045METAR SADF 090200Z 00000KT CAVOK 24/19 Q1010=
0072875530999992024010903004-34453-058590FM-15+000399999V0200401N001519999999Y009900599+02201+01901999999ADDMA1101001999999REMMET045METAR SADF 090300Z 04003KT CAVOK 22/19 Q1010=
0089875530999992024010904004-34450-058583FM-12+000399999V0200601N001519999999N010000199+02301+01901101011ADDMA1999999100921MD1210011+9999REMSYN04887553 42960 00603 10230 20190 30092 40101 52001=
0072875530999992024010904004-34453-058590FM-15+000399999V0200601N001519999999Y009900599+02301+01901999999ADDMA1101001999999REMMET045METAR SADF 090400Z 06003KT CAVOK 23/19 Q1010=
0089875530999992024010905004-34450-058583FM-12+000399999V0209999C000019999999N010000199+02101+01781100971ADDMA1999999100881MD1710071+9999REMSYN04887553 42960 00000 10210 20178 30088 40097 57007=
0072875530999992024010905004-34453-058590FM-15+000399999V0209999C000019999999Y009900599+02101+01801999999ADDMA1100901999999REMMET045METAR SADF 090500Z 00000KT CAVOK 21/18 Q1009=
0106875530999992024010906004-34450-058583FM-12+000399999V0200501N000519999999N010000199+02101+01781100991ADDAA106000091MA1999999100901MD1710011+9999REMSYN05487553 12960 00501 10210 20178 30090 40099 57001 60001=
0072875530999992024010906004-34453-058590FM-15+000399999V0200501N000519999999Y009900599+02101+01801999999ADDMA1100901999999REMMET045METAR SADF 090600Z 05001KT CAVOK 21/18 Q1009=
0089875530999992024010907004-34450-058583FM-12+000399999V0209999C000019999999N010000199+02211+01881101031ADDMA1999999100941MD1210031+9999REMSYN04887553 42960 00000 10221 20188 30094 40103 52003=
0072875530999992024010907004-34453-058590FM-15+000399999V0209999C000019999999Y009900599+02201+01901999999ADDMA1101001999999REMMET045METAR SADF 090700Z 00000KT CAVOK 22/19 Q1010=
0089875530999992024010908004-34450-058583FM-12+000399999V0209999C000019999999N010000199+02061+01811101051ADDMA1999999100961MD1210081+9999REMSYN04887553 42960 00000 10206 20181 30096 40105 52008=
0072875530999992024010908004-34453-058590FM-15+000399999V0209999C000019999999Y009900599+02101+01801999999ADDMA1101001999999REMMET045METAR SADF 090800Z 00000KT CAVOK 21/18 Q1010=
0072875530999992024010909004-34453-058590FM-15+000399999V0209999C000019999999Y009900599+02001+01801999999ADDMA1101001999999REMMET045METAR SADF 090900Z 00000KT CAVOK 20/18 Q1010=
0089875530999992024010910004-34450-058583FM-12+000399999V0209999C000019999999N010000199+02371+01951101061ADDMA1999999100971MD1210031+9999REMSYN04887553 42960 00000 10237 20195 30097 40106 52003=
0072875530999992024010910004-34453-058590FM-15+000399999V0209999C000019999999Y009900599+02401+02001999999ADDMA1101001999999REMMET045METAR SADF 091000Z 00000KT CAVOK 24/20 Q1010=
0089875530999992024010911004-34450-058583FM-12+000399999V0200401N003119999999N010000199+02501+01861101071ADDMA1999999100981MD1110031+9999REMSYN04887553 42960 00406 10250 20186 30098 40107 51003=
0072875530999992024010911004-34453-058590FM-15+000399999V0200401N003119999999Y009900599+02501+01801999999ADDMA1101001999999REMMET045METAR SADF 091100Z 04006KT CAVOK 25/18 Q1010=
0213875530999992024010912004-34450-058583FM-12+000399999V0200301N003112200019N010000199+02691+01891101081ADDGA1011+060001001GE19AGL   +99999+99999GF101991011999060001999999KA1240M+02711KA2240N+01871MA1999999100981MD1110051+9999REMSYN08287553 32960 10306 10269 20189 30098 40108 51005 80001 333 10271 20187 56006 81070=
0084875530999992024010912004-34453-058590FM-15+000399999V0200301V003119999999Y009900599+02701+02001999999ADDMA1101001999999REMMET057METAR COR SADF 091200Z 03006KT 350V060 CAVOK 27/20 Q1010=
0175875530999992024010913004-34450-058583FM-12+000399999V0200301N003612200019N010000199+02861+02041101101ADDGA1031+060001001GE19AGL   +99999+99999GF103991031999060001999999MA1999999101011MD1210041+9999REMSYN07087553 42960 30307 10286 20204 30101 40110 52004 80002 333 56006 83070=
0072875530999992024010913004-34453-058590FM-15+000399999V0200301N003619999999Y009900599+02801+02001999999ADDMA1101101999999REMMET045METAR SADF 091300Z 03007KT CAVOK 28/20 Q1011=
0175875530999992024010914004-34450-058583FM-12+000399999V0203501N004612200019N010000199+03011+01991101131ADDGA1031+060001021GE19AGL   +99999+99999GF103991031999060001999999MA1999999101041MD1210051+9999REMSYN07087553 42960 33509 10301 20199 30104 40113 52005 80006 333 56006 83270=
0084875530999992024010914004-34453-058590FM-15+000399999V0203501V004619999999Y009900599+03001+02001999999ADDMA1101101999999REMMET057METAR COR SADF 091400Z 35009KT 330V030 CAVOK 30/20 Q1011=
0154875530999992024010915004-34453-058590FM-15+000399999V0203601V004619999999N009999199+03101+01901999999ADDGA1021+013411999GE19AGL   +99999+99999GF199999021999013411999999MA1101101999999REMMET063METAR COR SADF 091500Z 36009KT 330V040 9999 FEW044 31/19 Q1011=
0197875530999992024010916004-34450-058583FM-12+000399999V0200701N003112200019N010000199+03111+01841101061ADDGA1021+013501081GA2031+060001021GE19AGL   +99999+99999GF103991021999013501999999MA1999999100971MD1810041+9999REMSYN07687553 42660 30706 10311 20184 30097 40106 58004 82106 333 56106 82845 83270=
0154875530999992024010916004-34453-058590FM-15+000399999V0200701V003119999999N009999199+03201+01901999999ADDGA1021+013721999GE19AGL   +99999+99999GF199999021999013721999999MA1101001999999REMMET063METAR COR SADF 091600Z 07006KT 350V120 9999 FEW045 32/19 Q1010=
0191875530999992024010917004-34450-058583FM-12+000399999V0203401N003612200019N010000199+03211+01821101051ADDGA1031+015001081GA2999+999999021GE19AGL   +99999+99999GF103991031999015001999999MA1999999100961MD1710081+9999REMSYN07087553 42760 33407 10321 20182 30096 40105 57008 83105 333 56106 83850=
0080875530999992024010917004-34453-058590FM-15+000399999V0203401V003619999999Y009900599+03201+01801999999ADDMA1101001999999REMMET053METAR SADF 091700Z 34007KT 300V040 CAVOK 32/18 Q1010=
0239875530999992024010918004-34450-058583FM-12+000399999V0203401N00211999999CN010000199+03281+01911100961ADDAA106000091GA1041+015001081GA2041+060001021GE19AGL   +99999+99999GF104991041999015001999999MA1999999100861MD1810151+9999REMSYN08887553 12760 43404 10328 20191 30086 40096 58015 60001 84205 333 56106 57848 84850 84270=EQDQ01 060003SCOCIG
0084875530999992024010918004-34453-058590FM-15+000399999V0203401V002119999999Y009900599+03201+01901999999ADDMA1100901999999REMMET057METAR COR SADF 091800Z 34004KT 280V060 CAVOK 32/19 Q1009=
0197875530999992024010919004-34450-058583FM-12+000399999V0200801N00361060001CN010000199+03061+01931100921ADDGA1021+015001081GA2061+060001021GE19AGL   +99999+99999GF106991021999015001999999MA1999999100821MD1810151+9999REMSYN07687553 42760 60807 10306 20193 30082 40092 58015 82106 333 56209 82850 86270=
0072875530999992024010919004-34453-058590FM-15+000399999V0200801N003619999999Y009900599+03101+01901999999ADDMA1100901999999REMMET045METAR SADF 091900Z 08007KT CAVOK 31/19 Q1009=
0197875530999992024010920004-34450-058583FM-12+000399999V0200801N00211060001CN010000199+02981+01941100851ADDGA1011+015001081GA2071+060001021GE19AGL   +99999+99999GF107991011999015001999999MA1999999100761MD1810201+9999REMSYN07687553 42760 70804 10298 20194 30076 40085 58020 81106 333 56209 81850 87270=
0072875530999992024010920004-34453-058590FM-15+000399999V0200801N002119999999Y009900599+03001+02001999999ADDMA1100801999999REMMET045METAR SADF 092000Z 08004KT CAVOK 30/20 Q1008=
0072875530999992024010921004-34453-058590FM-15+000399999V0209999C000019999999Y009900599+03101+01901999999ADDMA1100801999999REMMET045METAR SADF 092100Z 00000KT CAVOK 31/19 Q1008=
0219875530999992024010922004-34450-058583FM-12+000399999V0200801N00261030001CN010000199+02971+02051100831ADDGA1011+015001081GA2061+030001031GA3061+060001021GE19AGL   +99999+99999GF106991011999015001999999MA1999999100741MD1510081+9999REMSYN08287553 42760 60805 10297 20205 30074 40083 55008 81176 333 56269 81850 86360 86270=
0072875530999992024010922004-34453-058590FM-15+000399999V0200801N002619999999Y009900599+03001+02101999999ADDMA1100801999999REMMET045METAR SADF 092200Z 08005KT CAVOK 30/21 Q1008=
0197875530999992024010923004-34450-058583FM-12+000399999V0200701N00311060001CN010000199+02741+02101100851ADDGA1021+030001031GA2051+060001021GE19AGL   +99999+99999GF105991021999030001999999MA1999999100761MD1990001+9999REMSYN07687553 42960 50706 10274 20210 30076 40085 50000 82076 333 56069 82360 85270=
0072875530999992024010923004-34453-058590FM-15+000399999V0200701N003119999999Y009900599+02701+02101999999ADDMA1100801999999REMMET045METAR SADF 092300Z 07006KT CAVOK 27/21 Q1008=
0230875530999992024011000004-34450-058583FM-12+000399999V0201101N001512200019N010000199+02751+02081100911ADDAA106000091GA1021+030001031GE19AGL   +99999+99999GF102991021999030001999999KA1120M+03281KA2120N+02661MA1999999100821MD1210121+9999REMSYN08887553 12960 21103 10275 20208 30082 40091 52012 60001 82070 333 10328 20266 56070 82360=
0072875530999992024011000004-34453-058590FM-15+000399999V0201101N001519999999Y009900599+02801+02101999999ADDMA1100901999999REMMET045METAR SADF 100000Z 11003KT CAVOK 28/21 Q1009=
